:020000040001F9
:10600000D02E0020F56001000F6101001161010038
:106010000000000000000000000000000000000080
:1060200000000000000000000000000013610100FB
:106030000000000000000000156101001761010070
:106040001961010019610100396401001961010041
:1060500019610100000000007D6201000962010079
:106060001961010019610100196101001961010044
:106070001961010019610100196101001961010034
:10608000196101004D6301001961010019610100EE
:106090006D63010019610100C16301001961010014
:1060A00019610100196101000000000000000000FA
:1060B00000000000000000000000000000000000E0
:1060C0000348854600F08EF800480047018B010028
:1060D000D02E0020401E00BF00BF00BF00BF00BF89
:1060E00000BF00BF00BF00BF00BF00BF00BFF1D1B5
:1060F000704700000321094802680A43026008480B
:1061000002680A4302600748804707480047FEE7E5
:10611000FEE7FEE7FEE7FEE7FEE70000240500409D
:1061200054050040E5630100C160010030B50B4635
:10613000014600202022012409E00D46D5409D4261
:1061400005D31D469540491B2546954040191546E7
:10615000521E002DF1DC30BD70B50024254600280C
:1061600001DA01244042002901DA01254942FFF702
:10617000DDFFAC4200D04042002C00D0494270BD4F
:1061800003460B439B0703D009E008C9121F08C050
:10619000042AFAD203E00B780370401C491C521EFB
:1061A000F9D27047D2B201E00270401C491EFBD206
:1061B00070470022F6E710B513460A460446194612
:1061C000FFF7F0FF204610BD30B50446002003461F
:1061D00000E05B1C934203D2E05CCD5C401BF8D036
:1061E00030BD0000064C0125064E05E0E36807CCF3
:1061F0002B430C3C98471034B442F7D3FFF764FFAD
:10620000609C0100809C010010B5164801680029BF
:1062100026D00021016014488068144A0121C0B2D0
:1062200051604B2109014843FF21FFF77FFF4100E7
:106230004018FF300F3080B200F0E6FE01460C48F7
:1062400000F05CFF00280BD0082809D009498842DB
:1062500006D00949884203D00022114600F010FC04
:1062600010BD00000071004000750040007000404B
:106270008C2400200430000001340000F8B51F48D1
:1062800005691F490020C863074632E014213A46D9
:106290004A434168806854180121B940014226D020
:1062A000E068C64320686E4006403146204603F051
:1062B000FFF81248006968400CD00543E068216887
:1062C000C0436840084001460090204603F0F0F8C3
:1062D000009806433046A168A84301402A466068FA
:1062E0003240104002460A4301D0226990477F1C89
:1062F000FFB2044841788F42C8D3F8BD0005005072
:1063000040610040942000208307FF22DB0E9A406A
:106310008907090E994000280BDA0007000F08389A
:10632000830808489B001818C36993430B43C36153
:106330007047830804489B001B1818689043084363
:106340001860704700ED00E000E400E010B5064979
:106350000020086048608860C860034940390860D0
:10636000486003F0DFFA10BD40110140FEB5002087
:10637000C043124D02906869019068462E6902F090
:1063800041F9074602F0FAFA0446002F08D002AAA3
:106390000199009802F056F9029802F039FB06E0E4
:1063A000029802F035FB002801D1002C02D03046C3
:1063B00001F0E6FB00206871FEBD0000A020002077
:1063C00010B507484068002807D08047002803D050
:1063D0000022114600F054FB10BD02F04BFA10BD34
:1063E000C420002010B502F093FA002805D00E4911
:1063F0000C484860C8130D4988610D48018CC9B22A
:1064000001290ED1818C09070BD1018D0906090FD5
:10641000042906D1808D0006000F02D10549012014
:10642000886010BDDFFF07C000050040006C004021
:10643000C00F00F0000600407CB51B4CA0681B4E4E
:106440000025002818D0A56019488069C1B21948F4
:1064500000F039FB002805D001216A461170019037
:10646000684607E01348C1688068081A012803D10C
:1064700068460570B1688847E069002803D0E56187
:10648000032002F0E1FC606A00280BD06562084935
:1064900080390868086002216A4611700190B1686D
:1064A000684688477CBD0000002100406020002035
:1064B00000250040D425002030B47446641E2578A1
:1064C000641CAB4200D21D46635D5B00E31830BC28
:1064D000184702E008C8121F08C1002AFAD1704705
:1064E0007047002001E001C1121F002AFBD1704754
:1064F00038B50D4C6078022802D00C490120886024
:1065000069460B4800F0CEFA002802D000F016F8D9
:1065100038BD0848802181606A46074B1278DA61ED
:1065200002226270416038BD6020002000200040DF
:10653000E425002000230040002500401CB506494A
:106540000120C8600549487003206A4610708968B8
:10655000684688471CBD00000020004060200020E5
:1065600004490020487004490122CA604A60034976
:106570000860704760200020002000400025004097
:1065800070B5134801244460124818214160124E2E
:1065900000253560046007202ADF002803D0002290
:1065A000114600F06DFA032107202BDF002803D0ED
:1065B0000022114600F064FA072026DF002803D0ED
:1065C0000022114600F05CFA35600448046070BD9A
:1065D00000730040007500400071004000700040F2
:1065E000F7B582B0002605461670007814460028DC
:1065F00005D02846039902F025FB06002DD1A87886
:1066000000281BD02078039F001D1F2824D868462F
:1066100079DF002821D121780322481C20707A5488
:1066200021781922481C20707A542078C1196846B4
:10663000008803F0FDF9217840182070A98800290E
:1066400023D001208446AA680398002A07D0227824
:1066500053189B1C1F2B04D90C2005B0F0BD07203C
:10666000FBE71346521C2270491CC154227867462E
:10667000511C217087542378AA881818A968FFF73D
:106680007FFD2078297940182070E868002815D00F
:106690000021415622788C46D01C03991F28DBD854
:1066A000501C022320708B5422780A23501C207027
:1066B0008B5420786246431C23700A54288A002891
:1066C00009D028460094062202211030039B03F0D3
:1066D0002DFA0600C1D1288B002809D02846009445
:1066E000072203211830039B03F020FA0600B4D1DF
:1066F000288C2F462037002808D00094152214211A
:106700003846039B03F012FA0600A6D1A86A0028B7
:1067100005D02246039901F085FA06009DD1E86A6A
:10672000002805D02246039902F05AFA060094D1B7
:10673000387D002806D022462846039902F0DAFE6A
:1067400006008AD1304688E701B592B00721C943D7
:106750006846134A017007CA0FAB07C311490020EE
:106760004870382101A8FFF724FD02216846017115
:1067700001218171018112A80390684603210490D0
:1067800081830FA80890002101A800F083FC002855
:1067900003D00022114600F073F913B000BD0000D1
:1067A000F49B010000200020F0B59BB009A802F086
:1067B000C9FB002803D00022114600F061F90998B6
:1067C0000127364C002802D027701BB0F0BD1421E1
:1067D0006846FFF7EEFC00206946087001900872D9
:1067E0000390607803252826002806D0012805D0CC
:1067F00002282DD0032848D134E06770082008769D
:1068000008A908700AA8059012A80790234805A9AE
:10681000C01C01F0ABFE002803D00022114600F09E
:106820002FF96846007E002803D108A800780028C8
:1068300007D002256846057205A803900420FFF7DB
:1068400083FF657069460E821E204882032014E093
:106850000520FFF779FF69460E821E204882657089
:1068600002200AE00520FFF76FFF1921C9016846E1
:106870000182B42141820420607000F01DFF0028D5
:1068800003D00022114600F0FBF8684673DF0028B1
:106890009BD00022114600F0F3F896E7002000207C
:1068A00070B590B005461C216846FFF782FC69462A
:1068B0000878042108436946087000240194039471
:1068C00004940594012608A906948E70144869461C
:1068D0000884601C00070794000F0C77203048776D
:1068E000887FF9210840F721801C0840EF210840EB
:1068F000B0436946887714210AA8FFF75AFC08A913
:106900000C7107A80A910B9069460E864C868E86FC
:1069100009A80E90A888AB1D0AAAA2DF10B070BD0E
:10692000062A0000F0B58FB00D4606461C216846C9
:10693000FFF73FFC684601780A2001436846017072
:1069400000240194039404940594012708A8069454
:1069500087701649684601840794697A0177A97A95
:106960004177807FF9210840F721801C0840EF2102
:106970000840410849006846817714210AA8FFF7BA
:1069800018FC297A08A801710A9007A80B9068469C
:1069900007864486878609A80E90334630890A33D5
:1069A0000AAA6946A2DF0FB0F0BD0000062A000067
:1069B00010B5002805D001280AD0022807D11020E0
:1069C00007E0112005E00022114600F059F810BD43
:1069D0000D2000F071FE0028F5D110BD044842687A
:1069E0000121C9050B46934383600A40C26070478A
:1069F0000005005010B505484168002903D04078D3
:106A000000F0BEF810BD082010BD00007820002066
:106A1000F8B50C46052A01D20720F8BD1449154DDA
:106A200048600C70CB608A60002101230BE0E2001B
:106A3000121816789778B600BF0076193760167866
:106A40001A46B24011432246641EE4B2002AEED137
:106A50000748094B0A46401C00F0DCF80028DCD14E
:106A60000348064A0021103000F010F9F8BD00007C
:106A70007820002000070050498801006D7D01004A
:106A8000BFF34F8F03490248C860BFF34F8FFEE743
:106A90000400FA0500ED00E0014B1B6818470000F8
:106AA000C8250020C26883689A420AD08268838819
:106AB0001A4003689A5C0A708168491C8160002052
:106AC000704705207047C2688368D31A8288934252
:106AD00008D8C36813400268D154C168491CC1601A
:106AE000002070470420704710B5002903D08A07A2
:106AF0000024002A01D0072010BD0F4A0B46516028
:106B0000107014215470414318469460FFF751FBF4
:106B100000200A49C0438860094840210160094AB1
:106B20001068FF231B0498430B04184310600648A9
:106B30000160002010BD0000942000200063004090
:106B400080E200E004E400E000E100E00A4B5A6863
:106B5000002A04D05B78984203D3072070470820AE
:106B60007047142358438018044A12690068024091
:106B700000200A60704700009420002000050050AB
:106B8000F0B51F4A5168002904D05378984203D3C6
:106B90000720F0BD0820F0BD1A4B0025DD631A4B1D
:106BA0001C699768002F02D1184EDB05736001261F
:106BB00086403E439660142250434218D56000221E
:106BC00001230D5893401D4215D01C4202D00325CD
:106BD0002D0405E001256D044618F7681F43F76092
:106BE0000B4B9600F3181E6803273F04BE431E603C
:106BF0001E682E431E60521C202AE1D30020F0BDE7
:106C000094200020406100400005005000630040D7
:106C100000070050F8B5114F84467D68002D07D05D
:106C2000002B07D078783C78A04205D30420F8BD2B
:106C30000820F8BD0720F8BD0E461424164344432F
:106C40002E5164192361A260616061460870411C85
:106C5000797002F059F90020F8BD0000942000205E
:106C600038B50246084814230178074C59430818E0
:106C7000C368CC341B01E4580179C388009343698D
:106C80000C30A04738BD0000F425002070B5114C31
:106C9000A568002D06D0002A06D0002804D00023C5
:106CA000247809E0082070BD072070BD24265E43CB
:106CB000AE5D002E04D05B1CA342F7DB042070BD48
:106CC000242401265C432E5564196170A26103607F
:106CD000002070BDA0200020FFB59807002481B0DF
:106CE0001E4615460F4600280BD1002E09D002F093
:106CF000BDFB22490A9888610F70324600208E60E1
:106D000008E0072005B0F0BD24234343D4549B186A
:106D10001C75401CB842F7DB24204743BB190320F5
:106D200048700F461846CB601946183000221823C9
:106D30002E465E43D3005B181C705C709D705860DB
:106D40003018521C032AF5DB0020C0433861BC70A8
:106D5000FC7001240A482405046003211420FFF775
:106D6000D3FA08480460084C0198A0600321112060
:106D7000FFF7CAFA606878610020C3E7A02000200E
:106D800080E200E000E100E000150140FEB50446AD
:106D90001D48174682680D46002A0CD001788C42A7
:106DA00001D2052D01D20720FEBD214624235943DF
:106DB000535C012B01D00820FEBD881840780128C3
:106DC0001DD0002602F076FEC0000F490190C96870
:106DD0004018694602F098FE002812D00121017087
:106DE0000A49446049680830E2C007490198C96807
:106DF00041180098487002F023FD0020FEBD2E4689
:106E0000E0E70420FEBD0000A020002000150140A6
:106E1000F8B5144D0446A868002809D029788C429A
:106E200001D30720F8BD24216143405C012801D033
:106E30000820F8BD02F03EFEC600E868694630183A
:106E400002F062FE00280AD0022101704460E86866
:106E500031180098487002F0F3FC0020F8BD0420BF
:106E6000F8BD0000A020002000B585B014216846C0
:106E7000FFF79FF914480090012168460171002036
:106E80000290642168460173012001466846103172
:106E9000417301200146684610318173002001468C
:106EA0006846C17301200146684610310174694685
:106EB000064800F055F9002803D000221146FFF7DC
:106EC000DFFD05B000BD0000BD8C01008C2400205A
:106ED000F0B50546007D002493B00E4600280DD085
:106EE000012001466846103103940173717B4173A0
:106EF000817BF92001406846891C81731C2104A80C
:106F0000FFF757F96946087C02210843694608746F
:106F10002A7DEF21002A02D01022104300E0084011
:106F20006A461074059407940894287D002800D0C0
:106F300003A8099001270A9410469771304A82806D
:106F40000094B27B0270F27B42708078F92210408C
:106F5000F722801C1040EF21084041084900684694
:106F60008170317B017214210BA8FFF722F901A86F
:106F70000B9068460C908786C486078702A80F90FE
:106F8000A888AB1D0BAA04A9A2DF002835D1B068E0
:106F9000002830D0684687711A4981800094317C7E
:106FA000017000200146684641708078F921084050
:106FB000F721801C0840EF2108404108490068463D
:106FC000817011A8B16800F09AFA064614210BA846
:106FD000FFF7EFF801A80B9068460C908686C486F0
:106FE000068711A80F902A46E8880E320BA9A3DF66
:106FF000002802D100E0EC81002013B0F0BD0000B9
:10700000192A0000082900001C4A10B5904201D33B
:10701000642010BD19496439884207D9101A3A21F1
:1070200048436421FFF798F8642109E0144A90422C
:1070300009D9081A18214843A021FFF78DF82A2101
:10704000081AC0B210BD0F49884208D9101A0C2185
:107050004843FF212D31FFF77FF81221F0E70A4A5C
:10706000904208D9081A06214843FF215531FFF7FD
:1070700073F80621E4E7002010BD0000B80B000003
:10708000B40A0000880900003408000010B5FFF7BA
:1070900077FA10BD70B50D4692B000216A461170A6
:1070A00007241171002812D08188002905D0816839
:1070B000002902D00978490702D4204612B070BDD9
:1070C00002A9FFF78DFA0028F8D102AE00E00026F1
:1070D000002D0BD0A8880028EFD101AA0AA92846C4
:1070E000FFF77EFA0028E9D10AAA00E000226846EC
:1070F00003790178304672DFE0E7000033B585B0F0
:1071000004466946227C097E00208A4222D001255D
:10711000684605822174E08806AB04AA0021A4DF3A
:10712000002817D1608A0D49884215D0207D00289B
:1071300012D00020009001900290694603900D82C9
:10714000E2880A808D70888004A8029006A80390C7
:10715000608AA6DF07B030BD0820FBE7FFFF000014
:1071600038B50446086820600020C0436082087972
:107170002075FF200D462074012168468170064964
:107180000180221D69460120A0DF002803D1294685
:107190002046FFF79DFE38BD0F18000038B50A885D
:1071A000102A1AD0112A1AD0502A1BD1027D002A87
:1071B00018D0CA884389891D9A4213D10A8B022AA2
:1071C00010D10268002A0DD0CB7E8C7E190221439B
:1071D000C907C90F07D0002106E0898801E0002116
:1071E000C943418238BD01216B46197069469047F9
:1071F00038BD000070B5054601461C220F48FEF759
:10720000BFFF0F4C002626702968002907D00822EE
:10721000A018FEF7B5FF204608307ADF02E00848E4
:1072200008307BDF002808D1401E6080044866706B
:10723000044A0021001DFFF729FD70BDB024002085
:107240002C200020519A0100F8B5224C028800271A
:107250001F4DE689102A16D029464968112A21D0E7
:10726000122A2DD0502A1CD1C288801DB24218D1BA
:10727000028B022A15D1C27E837E10021843C007FA
:10728000C00F0CD112E081886980014610480822A5
:107290000E311030FEF774FF6F70002E01D100F038
:1072A00009FDF8BD0020C04368806F700846FFF7F5
:1072B000AFFD0028F5D0A1690029F2D08847F8BDBC
:1072C000811D034808221030FEF75AFFE7E700004F
:1072D0002C200020B024002010B5044600F06EFEE3
:1072E0002046FFF7B1FF21460A4800F0A3F80948FD
:1072F0002146103000F0DCF8064821462430FFF724
:107300004DFF044821463C3000F01EF8204601F0B5
:10731000EFFC10BD682400200A68002A0ED002602D
:10732000496841600021C94341810021018104482D
:1073300001218170034901800020704707207047B8
:107340005C200020062A000038B504460888012287
:10735000102809D0112828D0302810D0322802D186
:10736000204601F025FD38BD88886081684682701E
:107370001549018060896A46012190DF09E0CB88C8
:107380002046002B0CD18B89002B09D0608912314B
:1073900092DF0028E7D061680029E4D0884738BD33
:1073A00069460A700268904738BD0020C04360817A
:1073B00020890028F8D002206946087022682046FB
:1073C00090470020208138BD0218000033B50189A4
:1073D000002285B0002910D04089009201926D46AC
:1073E00003920123698002212970AA8006ACEB80F8
:1073F0006946029497DF07B030BD0520FBE7000027
:1074000038B50446086800280FD02060012168467E
:10741000817007490180221D69460120A0DF0028F4
:1074200002D12046FFF73CFA38BD072038BD0000E6
:107430000218000008B50A88502A0FD1CA88C388EC
:10744000891D9A420AD10A8B012A07D100236A4674
:107450001370897E517002686946904708BD08B56F
:1074600001226B461A800B4640896A460021A5DF3F
:1074700008BD000038B5044608680D46002813D042
:10748000206068686060012168468170074901805A
:107490002246083269460120A0DF002803D1294690
:1074A0002046FFF73FFA38BD072038BD031800001B
:1074B00038B50B880022102B06D0112B09D0172BC2
:1074C00017D18979002914D169460A704A70026877
:1074D00013E00446887908280BD168460270411CE5
:1074E0002046FFF7BCFF002804D06168002900D0C7
:1074F000884738BD226869462046904738BD0A78DB
:1075000002704978417002207047000008B50023DE
:1075100050221449082002F0A1F8002803D00022CC
:107520001146FFF7ADFA00206946009008706846E2
:1075300060DF002803D000221146FFF7A1FA0A48B5
:1075400002F082F8002803D000221146FFF798FAD3
:10755000064802F09BF8002803D000221146FFF7EE
:107560008FFA08BDF8230020D97201001998010094
:1075700038B504460D4601216846817006490180F0
:10758000224669460120A0DF002803D12946204673
:1075900002F008FA38BD0000041800001CB50446CB
:1075A00081786A460C4801F0E1FC002812D160782D
:1075B0001821484309491C2340181822694601F044
:1075C00089FD064806493830807A80000A582146ED
:1075D000684690471CBD00005420002090250020E4
:1075E000409C010030B4002201290BD10B49C9682D
:1075F000002907D00A4B94001C59844204D0521C25
:10760000042AF8D330BC7047042AFBD20348103058
:10761000805C0028F6D030BC084700000C20002019
:10762000009C010010B5024604280DD207480069ED
:10763000074C9200A45CC34301220020A2401A40E0
:1076400000D001220A7010BD072010BD00050050B7
:10765000009C0100F0B500210F4D01270F4A0323C4
:107660001B048C002E593C468C40044207D0B400C9
:10767000A41826689E43266026681E4305E0B400D1
:10768000A41826689E43266026682660491C0429A3
:10769000E7D30020F0BD0000009C0100000700506F
:1076A00002460020042A02D2024B99547047072058
:1076B000704700001C20002010B5054A0146127AD0
:1076C0000020D20702D0084600F056F810BD000096
:1076D0000C200020F8B50646214800248660C260D0
:1076E00041600F46B0071DD5002528460B30C1B2BA
:1076F0002846FFF7D5FF6D1C0446042D01D2002C4F
:10770000F3D07A08002304211648FFF781F90028F6
:1077100003D000221146FFF7B3F9002C02D1FFF786
:1077200069F90446F00708D00F210F484904C161E8
:107730000E4981600022C2608161002C0ED1084890
:107740000B4A00211430FFF7A1FA040006D10448C7
:10775000084A01211830FFF799FA04462046F8BD7F
:107760000C200020109C0100000500504000C001CA
:1077700065890100DD690100FEB5724906464F6862
:107780004B690093BB00FB18002001934022054683
:107790006D4C3300FEF790FE180D121235465567FA
:1077A0007C887F88919B9E9E9E9E9EBCC0C5CAD0B1
:1077B000D011664AA260E5600D70FEBD052080050F
:1077C000A060E5606068624B5840400609D5A26041
:1077D000E560022E02D1E120C0000AE07D204001D8
:1077E00007E0E260A560022E01D1C82001E0FF2081
:1077F00091300E706421FEF799FC78430022014617
:1078000042E005208005A060E5606068504B58406C
:10781000400604D5A260E56019204001E9E7E26076
:10782000A560E2E705208005A060E5606068484B40
:107830005840400602D5A260E560CFE7E260A5604F
:10784000D5E705208005A060E5606068404B5840A2
:10785000400602D5A260E56001E0E260A5600E701E
:107860007900002210E005208005A060E5606068D6
:10787000374B5840400602D5A260E56001E0E26067
:10788000A5600E70002239460098FFF77FFAFEBD12
:1078900005239B0542E06068012189050A46824371
:1078A000A2600840E06010E06168012080050246A7
:1078B0008A43A2600140E160E4E76168012080053D
:1078C00002468A43A2600140E1600199C9E720496C
:1078D000E1601BE00F468869FFF79AFA11218A1BC5
:1078E0001C4E01D0002802D0A660E560FEBD012A32
:1078F0000BD91046C82148436421FEF717FC79686C
:1079000000224143B869FFF741FAE660A560FEBD79
:107910000F4AA260E56012E007239B05A360E560C3
:107920000BE00D4AA260E560120406E00322D205D6
:10793000A260E560094A00E0054AE260A5600E70B9
:10794000FEBD00000C20002000050050400040015A
:107950004000C00100008000400080014000400065
:1079600010B50B2807D00C2804D11120FFF7A4FE76
:10797000002812D110BD0F4CA078002812D0002191
:107980000D48FFF723FD00280ED00C498842F1D0A6
:107990000B498842EED00528ECD000221146FFF7B3
:1079A0006FF810BD0221EBE7A07801214840A070DC
:1079B00010BD000000200020A4240020043000009E
:1079C0000134000010B50E4AD368002B0AD0CAB2A9
:1079D000017840689847002803D000221146FFF73D
:1079E0004FF810BD012906D00029FAD1037842686A
:1079F0001846904710BD037801214268F8E700005F
:107A000078200020F8B5384914230A780F205A430B
:107A100054183649227926698F88241D022A1BD0E2
:107A200001252D07042A2AD0052A5BD1286981B2B5
:107A30003046FEF77BFB0146A38828699A1980B27D
:107A40004843101A820860881818861928694B1C48
:107A500080B25843801B34E0B80262882169121A50
:107A60000918A3883018181801239B029A4202D2E1
:107A7000920821DF31E0FF22013221DF2DE0A368EF
:107A800019481901CC300818018942894068B04270
:107A900003D160885143814218D0022B16D0286947
:107AA00081B23046FEF742FB0146286980B2484366
:107AB000301A820828694B1C80B2584363889B198E
:107AC000C01A8308204601F0EDFD06E0286981B266
:107AD0003046FEF72BFBC01920DF002802D10249F7
:107AE00001228A70F8BD0000F42500206C200020DF
:107AF00010B5064900204978002906D0FFF782FF1B
:107B0000002802D0112800D1002010BDF42500204B
:107B100014225043054A002180180171C1800122BE
:107B20000161C2604161018170470000F4250020BD
:107B3000F8B5124C069E65780A2D1DD027787D1960
:107B4000EDB20A2D01D30A3DEDB214277D432D1964
:107B500028716A6103C92961E860EB802E81A178F0
:107B60000020002904D1FFF74DFF112800D100208B
:107B70006178491C6170F8BD0420F8BDF42500202F
:107B8000F8B5224801694A1C3DD02422514382683D
:107B900089184E681E494C6847690079E11B0D023F
:107BA0002D0AED1C002814D101201A4A000450604F
:107BB000184A403A50601849400008601749086068
:107BC0001749012008602F20FEF784FA0F49012091
:107BD0000871B54200D23546E81900020C49000A86
:107BE000403108600A494968001B091B0902090A5B
:107BF0000002000AC91C814204D901200649400440
:107C000080390860F8BD01F031FCF8BDA0200020EB
:107C1000001501404013014080E200E000E100E077
:107C200000100140F8B50D4611780646881D14462F
:107C30001F2801D90C20F8BD33880720062BFAD362
:107C40001927FF01BB4202D9164A9342F3D1728829
:107C5000062AF0D3BA4202D9124FBA42EBD1114FE1
:107C6000BB4203D0BA4201D09342E4D8481C05225B
:107C700020706A5420781222411C21702A542078E6
:107C80004119308801F0D4FE21784018C0B220702C
:107C90004119708801F0CCFE217840182070002036
:107CA000F8BD0000FFFF000010B500221146FEF7EE
:107CB000E7FE10BDF8B5164800F01CFE144D002676
:107CC000103D144C002807D0616900291BD0012009
:107CD0006A461070684615E02878002805D061696A
:107CE000002910D0684606700CE0687800280CD097
:107CF000A16800226868FFF749F8002803D0A1694D
:107D0000002900D088472E70F8BD6168F1E70000B7
:107D10003C200020B024002070B5094B04469E7A18
:107D2000082000250E4207D00648844202D0188958
:107D3000A04202D10020156070BD052070BD00007A
:107D4000BC250020FFFF00000C214843064910B568
:107D5000012240188272911E0181FF21C172072108
:107D6000FEF727FA10BD0000BC250020F8B5184D1D
:107D700069466878FEF7EAFE00281DD12F460024E8
:107D80001437012615E06968E00040180378314691
:107D90003A6899400A4210D04268002A0DD04178D2
:107DA000012901D1002100E00121FFF70BFE641C35
:107DB000E4B228788442E6D3F8BD7A680A42F6D065
:107DC00041680029F3D041780129EDD0EAE70000AD
:107DD00078200020FEB50E46044681786A46234886
:107DE00001F0C4F8002827D160780C21204F4843C7
:107DF000C019807A800620D4022E1ED0012E1ED0FB
:107E00001C4DA0781C21484319490023F039411822
:107E10001C226846A847002813D0022E0CD02078D8
:107E20000C21484312490C314018807A12498000D5
:107E30000A58214668469047FEBD104DE1E7104DB7
:107E4000DFE7022EF8D060780C214843C019817A10
:107E5000DF221140817260781821484304491C23B5
:107E60002C39411818226846A847D8E7542000202A
:107E7000BC250020A1960100309C0100DD9301008B
:107E80007592010070B50546114A124800241C2362
:107E900063431B189B7EFF2B04D0641C072CF6D376
:107EA000104670BD0A78022A09D01C2262431018BD
:107EB000FD22827607221030FEF762F904E01C21D1
:107EC00061430818FE2181762C700022E8E700004B
:107ED00043800000CC240020F7B505250F4F06464F
:107EE0000024002E0AD01C206043C019072231460E
:107EF0001030FEF769F9002807D00AE01C20604323
:107F0000C019018B0298814203D1019800250460B9
:107F100002E0641C072CE4D32846FEBDCC240020DC
:107F200010B5100003D000221146FEF7A9FD002075
:107F300010BD00001FB501F081F8002803D0002219
:107F40001146FEF79DFD03A90120FFF76BFB0028FA
:107F500003D000221146FEF793FD03A800F0D2F9EA
:107F6000002803D000221146FEF78AFD01A8062151
:107F70000230FEF71EF91E206946C880087A0122E9
:107F80001043E1210840DF210C30084069460872A7
:107F90000720487210208872064800900A7106482F
:107FA00000F0B8FA002803D000221146FEF768FD61
:107FB0001FBD0000217F010003200020F0B5054611
:107FC0008BB0FF24C34807940078002868D0C24FC4
:107FD0003868002864D0684600F086F9002803D08D
:107FE00000221146FEF74CFD002006460290281D97
:107FF0000590342168460183FF21817000210170C2
:108000000191B54C28880C3C10280ED0A88801AAF4
:108010000221FFF781FE002807D101980C2141437E
:108020000919CA7A69468A7048702888142873D05A
:108030002ADC102836D0112870D0132830D1132113
:10804000684601743A1DA88800217FDF002827D1E7
:1080500001980C2141430A19917A04231943917222
:10806000D37AFF2B0FD016236D462B74142358435D
:10807000994B203BC318002058609860D860186165
:1080800020200143917210E117287DD093491828D0
:108090007BD0522804D1B87A8000095868468847B6
:1080A0000BB0F0BD8E4F01AA01213846FFF734FE18
:1080B0000028F5D101990C20484302220019827250
:1080C00011236A4613745170A98801810722A91DE2
:1080D000FEF756F8687BC10707D041087D48083095
:1080E000405CFF2808D0079006E03A4607A9A81D83
:1080F000FFF7F2FE0028C6D101990C22514309195D
:108100000798C8728A7A08231A438A726946887067
:108110006846FFF743FAC8E024E0FFE701980C2126
:1081200048430119887AFD2210408872010706D55C
:1081300040060DD500216846FFF74CFE08E0684672
:108140008078FF2804D000F0C3FEFF2069468870C5
:1081500001980C22504310210019817212206946A7
:108160000874A2E001980C2148430019C07AFF2846
:108170001FD1EA8907A90020FFF7AEFE002811D120
:1081800001990C22514301E020E07BE00919079896
:10819000C8728A7A08231A438A72694688706846C8
:1081A000FFF7FCF901980C2148430019C07AFF2819
:1081B00007D0019818214843474938394018001D15
:1081C0000290A8880022029981DF69E701980C21BA
:1081D000414309198A7AFB231A408A7214216A469C
:1081E0001174A979002901D00E465EE01821484398
:1081F0003949142238394018E97A8170A97A4170D6
:1082000029460C31001DFDF7BBFF01980C214843A6
:108210000119887A420648D5082210438872CA7A22
:10822000FF2A04D0202210438872002126E007A8EC
:10823000FFF728FE002801D0064636E06946079879
:10824000887001990C2251430919C872224F1C22CF
:108250005043FC3FA989C0190183E97A49070CD52D
:10826000294610222031FDF78BFF07981C21484337
:10827000C019817E49084900817601216846FFF7CF
:10828000A9FD12E001980C2250430019827A402384
:108290001A43827215206A461074B87A8000095811
:1082A00068468847002800D00E4E04A9324668462A
:1082B000FEF7F2FB6846007C122886D101980C215B
:1082C00041430919897A012900D1E9E6FFF73CFD0C
:1082D000E6E6000044200020C8250020509C010054
:1082E000FFFF000041800000002806D0FF21017040
:1082F00041708170C17000207047014870470000D4
:108300000E800000F0B585B0040035D00025294965
:1083100028460D608D72FFF717FD2648142120387E
:10832000FDF747FF0026FF27304600F0D1FD224829
:108330008755761C072EF7D34C216846818007218C
:10834000C1801E481C4900900831684600F014FFA7
:1083500000280FD1184E0120083E307020780028E8
:108360000CD069468888C988484381B230461030AD
:1083700000F026FE05B0F0BD1148FBE70D4F0024CC
:10838000FC3F0D48A1B202AA083000F0EFFD002822
:1083900009D11C206043C01900231C2202A900F04F
:1083A00099FE002801D03570E4E7641C072CE8D35F
:1083B000E0E70000C82500204C200020C583010014
:1083C0000E800000FFB551488BB00068149F1E4618
:1083D00000286AD04C2F68D803A8FFF785FF002833
:1083E00003D000221146FEF74BFB002568460573BB
:1083F00005702C4604970596A1B208AA444800F0DF
:10840000B5FD002806D1082208A90B98FDF7DCFE6F
:10841000002818D0641C072CEED36846847BFF2C00
:1084200043D00C98042811D038481C21FC38301A4D
:10843000FDF77CFE0127072824D204A801900D989F
:10844000002811D017E068468473E6E74C2F09D066
:108450004020694608706846017803200143684659
:10846000017048E02020F4E738462949A04010393F
:108470004968084219D0204601F0E0FA20206946F8
:1084800008702FE0214818213838301AFDF74EFEC9
:1084900000280CD01D4C1421203C301BFDF746FE5B
:1084A000002811D04020694608700FB0F0BD04A824
:1084B00001902020694608701C20444313484D73E6
:1084C000FC38201805900DE0302168460170457396
:1084D000C7730E480C38807A800703D420461421D5
:1084E000FDF767FE0C986946032808780BD0022137
:1084F00008436946087004A80190694603A80D9ACC
:10850000FEF7CAFAD1E73843F4E70000C825002097
:108510005420002070B5064611480D46007800280A
:108520000ED01049002E0ED0002D0CD02868002847
:1085300009D00D4C2168002907D00A480A3870BDBF
:108540000848801F70BD084670BD20600622A91D26
:10855000201DFDF715FE2879A0720020307070BD37
:10856000442000200E800000C8250020F0B5224ADB
:108570001378224A002B1AD0931D00280BD0002913
:1085800009D00C68002C06D08C68002C03D0007831
:1085900000280CD101E01846F0BD194800680028F9
:1085A00005D00023164D18461A46FC3D19E010462A
:1085B000F0BD1C2454436419A67EF60706D18E68CC
:1085C0008700F4510C4E08363254401CA67EB60784
:1085D00004D49F0010340E685B1CF451521C072A0F
:1085E00005D20C799C4202D90C7B8442E1D80B71F4
:1085F00008730020F0BD0000442000200880000027
:10860000C825002010B50E4900238A78CC78A242F4
:1086100012D0521CD2B28A70022A00D18B708A7892
:10862000074B92001C339A580260486910180002E8
:10863000000A4861012010BD0360002010BD000049
:10864000A0200020F7B5144C0025A76823691EE080
:1086500024215943C9194E68864202D9301A48600C
:1086600017E0801B751900264E600E750E699C463A
:108670000B6AB646002E0AD0019E76193602360ADB
:108680008E607646CE6016680E6261461160591C97
:10869000DED12361FEBD0000A02000200EB5112018
:1086A000694608720B2217A102A87CDF002803D0BC
:1086B00000221146FEF7E4F90920800178DF002846
:1086C00003D000221146FEF7DBF90021FF20913094
:1086D00000916A4601911080430053809180D080C0
:1086E00068467ADF002803D000221146FEF7C8F959
:1086F0000720C04377DF002803D000221146FEF791
:10870000BFF90EBD4E6F726469635F50726F78007F
:10871000002070470020704700207047F8B540786F
:108720000D4C1423434326460C270021E5581436EC
:10873000784380190A46002D07D0867A770604D53B
:10874000B60602D41919AAB2091D0089A9DF0028AA
:1087500000D00248F8BD0000A8250020418000009C
:1087600070B50D46014668781422084C5043001934
:10877000342300F0AFFC002806D16978142251435D
:108780006258521C00D1625070BD0000A825002024
:10879000F0B585B00D460746102069460882687816
:1087A0000C2148431F4E04AA801900896946AADF9C
:1087B000002833D1687814214843741A0019694697
:1087C0000A8A001DFDF700FD0028687806D01421F4
:1087D0004843215800290DD0134E0CE00C21414391
:1087E0008919897A890719D4142148430019FDF79A
:1087F000E0FC13E00D4E69460A8A22506878142185
:10880000484300196946001DFDF7BAFC6878142139
:1088100048430119342314223846B047002005B0DC
:10882000F0BD0000BC250020DD9301007592010021
:1088300010B5FFF773FF10BD10B5FFF791FF10BD26
:1088400010B5FFF7A5FF10BD70B5094D04460E46E3
:108850002869FEF7DDFA002809D1284614300660A1
:10886000446034432246A9682869FEF78FFA70BD38
:1088700078200020F8B51E4C2078002837D02069D9
:10888000002807D00026E068002805D00025002E2B
:1088900004D013E00126F6E70125F8E7684651DF2A
:1088A000052806D0002806D000221146FEF7E8F879
:1088B00004E0012602E0216900988847002D12D1CA
:1088C000608869460880A06861DF052806D0002816
:1088D00006D000221146FEF7D3F804E0012502E09D
:1088E000E168A0688847002ED8D0002DCFD0F8BD11
:1088F000C4200020418805480288914204D3408862
:10890000814201D8012070470020704734200020A8
:108910001048018CC9B2012917D1818C090714D1E3
:10892000018D09060A0F03D1828D1206120F0ED097
:10893000090F012903D1828D1206120F07D00329D6
:1089400003D1808D0006000F01D000207047012068
:1089500070470000C00F00F0800701D00020704772
:108960000120704710B50448017AC90702D0007889
:10897000FEF702FF10BD00000C200020F8B52348D0
:1089800001690091457833E02048E900C0680E187D
:1089900034782AE0182060437168641C0818B178A4
:1089A000E4B2A14200D100240178022902D00329B7
:1089B0001BD113E0154A40682421926841438F1867
:1089C000397D002911D000F075FF002038750CE0CA
:1089D00024277843C0180275006A03E00B4900227F
:1089E0008B680869471CF3D108617078A042D1D127
:1089F00028466D1EEDB20028C6D1044801690098D2
:108A0000814201D00120F8BD0020F8BDA020002047
:108A1000F8B50446384800270169009146785CE0C3
:108A20003548F100C2688D1851E0601C07D0324A09
:108A300024209268604321468018046A24E0287844
:108A4000182141436A68401CC0B252182870A978A6
:108A5000884200D12F70284B516824209B684843DE
:108A6000C0181378012B34D1037D002B31D19368CA
:108A70008360D368C360136903615269C2611E4A8F
:108A80005279002A00D087601B4B82685B6996464A
:108A90009C46D31A1A02194B120A9A4202D2C36890
:108AA000D21808E0724663469A1A1202C368120A84
:108AB000934202D99A1A426000E04760876001221F
:108AC000C7600275921E0262084600F0C1FE601C7B
:108AD000ABD1287869788842A7D13046761EF6B2A5
:108AE00000289DD1044801690098814201D00120ED
:108AF000F8BD0020F8BD0000A0200020FFFF7F008F
:108B0000002488B02F4B0722052120460094FEF751
:108B1000E3F8002803D000221146FDF7B1FF2A4AEE
:108B200001212A48FEF7B2F8002803D0002211469E
:108B3000FDF7A6FF26490120FDF7D6FF002803D048
:108B400000221146FDF79CFF224A23490320FEF72D
:108B5000C1FD002803D000221146FDF791FFFEF76A
:108B6000D5FCFFF7E7F9FFF799FD0520FDF7ECFDD0
:108B700000F004FD1C216846FDF71BFB0520C00327
:108B800001900F20000402900094032168460173B5
:108B9000C481012101741148069005946846FEF7CE
:108BA00029FB002803D000221146FDF769FFFDF7DD
:108BB000FBFD40DF0028FCD000221146FDF760FFDE
:108BC000F7E70000D82000208D7001000820002069
:108BD0004824002061790100CD0C0000A97C01002F
:108BE00070B5054600790E46801C1446C0B2117857
:108BF000821C8A181F2A01D90C2070BD0A46491C04
:108C00002170401CB0542078FF22411C2170325446
:108C100020788119288800F00BFF21784018C0B215
:108C20002070AA88002A09D0A968002908D08019D4
:108C3000FDF7A6FA2078297940182070002070BD31
:108C4000072070BDF8B514780746A01C15460E46DF
:108C50001F2803D87878801C1F2801D90C20F8BD64
:108C60001D20001B80B26946864608803019801C92
:108C70007DDF0028F3D13878022805D168460088C6
:108C8000704501D8092107E078780821002801D033
:108C9000704501D968460088421C3255641CE2B216
:108CA000B1542978801C081828700020F8BD0020D5
:108CB00070470020704700207047000010B50B4837
:108CC0000978806800290AD0012907D1FEF7A0F8A9
:108CD000002803D000221146FDF7D2FE10BD0F215F
:108CE00000228904FEF752F8F2E70000002000207D
:108CF00070B50646008800252C4C192839D01BDC9D
:108D0000102821D0112816D10020FEF7D5FC00280C
:108D100003D000221146FDF7B3FE0020C043A0801F
:108D20000020FEF797FC002803D000221146FDF733
:108D3000A7FEFDF739FD70BD392801D05528FAD1BD
:108D40001321A08876DF2EE00720FEF7B5FC00286F
:108D500003D000221146FDF793FE6570B088A08015
:108D60000320FEF777FC1EE000221146FDF788FE87
:108D700070BDB0790028FBD160780428D9D10020DB
:108D8000FEF79AFC002803D000221146FDF778FE7A
:108D900065700320FEF75EFC002803D00022114618
:108DA000FDF76EFE34DF0028DED170BD002000200C
:108DB000F8B5CA88002A1BD1114B8E899C781D8872
:108DC0000C3113E00A2353435B181F79BC420CD1CA
:108DD0005F88BD4209D10A24624351188979490745
:108DE00006D559890181002103E0521C9642E9DC35
:108DF00001216A461170026869469047F8BD00007B
:108E00005C20002010B5087800280CD001280AD07A
:108E1000022808D10020FEF71DFC002803D0002204
:108E20001146FDF72DFE10BD10B50878002802D1BF
:108E30004878FDF7BDFD10BD10B50878002802D1B7
:108E40004878FDF7B5FD10BD10B51D4A1D4903005A
:108E5000FDF732FB05040B3120271200487801286A
:108E60001FD0022808D1032005E04878002804D04C
:108E7000032801D10220487010BD134B0420186054
:108E8000124B01201860D36892689342F3D0FDF72B
:108E90002FFB10BD4878012806D0022804D00328F3
:108EA000F7D1FDF75DFB10BDD06891688842EED127
:108EB000FDF744FB10BD48780128E8D010BD000044
:108EC000E425002060200020002500400020004014
:108ED00070B505461C200B496843441820461130E4
:108EE0000621FDF766F920461021FDF762F9FF2102
:108EF00021740020A176C0432083284600F09EFD07
:108F000070BD0000CC240020F0B50C4A002153684D
:108F10001422504301240A4D03273F041E582246C1
:108F20008A40164206D08A0052191668BE4316605F
:108F300016681660491C2029F0D3F0BD942000204B
:108F40000007005007490978002906D0002806D0FC
:108F500005494978016000207047082070470E20BD
:108F6000704700006C200020F425002030B5124B23
:108F70001B78002B07D0002807D0002A05D00468F2
:108F8000002C12D103E0082030BD0E2030BD0B4B69
:108F90001D68002D09D045681889414369185D890D
:108FA000454358682818884201D8072030BD14600E
:108FB0000020516030BD00006C200020C026002041
:108FC000F8B505461B480F460078002805D0002D4F
:108FD00005D02868002820D103E00820F8BD0E2025
:108FE000F8BD154C00262068002816D0608921891C
:108FF000484361684118686881420ED9FFF7ACFCAC
:1090000000280CD029686868090109194A6809898B
:10901000801AFDF78BF8002903D00720F8BD102037
:10902000F8BD3B460022294604200096FEF780FD4D
:10903000F8BD00006C200020C0260020F8B50026F6
:10904000214C2248A68066700670467086703546B0
:109050002846FEF75DFD6D1C0A2DF9D31C4F668076
:1090600078693D04401C05D0286981B27869FDF714
:109070005DF800E068692969801E89B24843A060F4
:109080001248A680CC300660068186814681082081
:1090900060707869401C05D0286981B27869FDF755
:1090A00045F800E068692969401E89B2484329698A
:1090B00089B2FDF73BF820DF002803D1034A0121E4
:1090C00091702170F8BD00006C200020F425002074
:1090D00000100010FFB5264881B000781F461646E4
:1090E0000D46002808D0002D09D00198002806D090
:1090F0002868002818D104E0082005B0F0BD0E2033
:10910000FBE71C4C206800280ED06189208962682A
:10911000414389186A68914206D9002E04D0B042B2
:1091200002D3F119814201D90720E6E70198FFF740
:1091300013FC00281AD03846FFF70EFC002815D083
:109140006868FFF709FC002810D068683246C1192A
:109150000198FDF715F800962868002200012458B0
:1091600003212846019BA0470020C6E71020C4E742
:109170006C200020C0260020F8B504463A480F466F
:10918000007800281DD0002C1DD0002F1BD0206897
:10919000002818D001252D07A688286980B28642AC
:1091A00030D8102E2ED3E088009000282AD02F48E7
:1091B0004169491C09D02969406989B2FCF7B6FFA9
:1091C00004E00820F8BD0E20F8BD68692969401E3A
:1091D00089B24843244B00999D6871434B199842CA
:1091E00010D301200007006980B2814208DD012010
:1091F00000070069314680B2FCF798FF002901D1D1
:10920000B00701D00720F8BD17484288012A1AD0BC
:10921000174824C711010E18756023684350A088B1
:109220003081E0887081A088E188002348430121D3
:1092300009075B1C0C699BB2A4B2844205D20C697D
:10924000A4B2001B02E00420F8BD00200C69A4B207
:1092500065190C69A4B28442EBD90348521C85609D
:10926000B38142800020F8BD6C2000200010001067
:10927000C0260020F8B5044620481E460078154652
:109280000F46002807D0002F07D0002C05D02068FB
:10929000002817D103E00820F8BD0E20F8BD1848BB
:1092A000016800290ED04289018940684A4310189C
:1092B0006268904206D9002D04D0A94202D3A819B1
:1092C000884201D90720F8BD3846FFF745FB002842
:1092D00011D03046FFF740FB00280CD06068FFF744
:1092E0003BFB002807D02B463A4621460220009639
:1092F000FEF71EFCF8BD1020F8BD00006C20002019
:10930000C0260020F8B5334B9978012914D10025E7
:1093100031499D704A78082A05D002280FD00328C9
:109320000AD10D2006E0022807D00D70FEF7E0FB01
:10933000002801D0FDF794FCF8BD4D70F6E72548F4
:10934000142403782449634318188B885B1C9CB24F
:109350008C800379001D022B05D14688A102B14201
:1093600001D3012700E00027052B01D1072A03D0F4
:109370000021042B02D003E00121FAE7072A03D0E1
:109380000026042B02D007E00126FAE74088A3025A
:10939000834201D3002A1AD00020314301433943CC
:1093A000C4D00D4E28467570FDF75AFC094C207844
:1093B000FEF7AEFBB5806078401E60702078401CE0
:1093C000C0B220700A28B1D30A382070AEE701205D
:1093D000E3E70000F42500206C200020F8B50446E7
:1093E00020481E46007815460F46002807D0002F5B
:1093F00007D0002C05D02068002817D103E00820F2
:10940000F8BD0E20F8BD1848016800290ED0428929
:10941000018940684A4310186268904206D9002DBD
:1094200004D0A94202D3A819884201D90720F8BD67
:109430003846FFF791FA002811D03046FFF78CFA32
:1094400000280CD06068FFF787FA002807D02B4669
:109450003A46214605200096FEF76AFBF8BD10202B
:10946000F8BD00006C200020C026002070B501244B
:109470000B49600408600B49401088600949403975
:109480008860094D6C602F20FCF724FEAC60074D0E
:1094900000242F206C61FCF71DFE2C7170BD0000B4
:1094A00080E100E04013014000100140A0200020B6
:1094B000F0B500220123032636041F4697403942A7
:1094C00012D0C5683D4203D1012464043D4301E04C
:1094D0003446BD43C560064D97007D192F68B743DC
:1094E0002F602F6827432F60521C202AE5D3F0BD40
:1094F00000070050F7B582B002981446006B0F4683
:10950000002833D0029800252030009028E00298EF
:10951000016B0C2068430E18217830794A1C2270A8
:10952000C01C785420781622411C21703A542078AF
:10953000C119308800F07CFA21784018C0B2207040
:10954000B288002A09D0B16800290FD0C019FCF7F1
:1095500017FE20783179401820706D1C0098EDB20C
:10956000007DA842D3D8002005B0F0BD0720FBE75E
:1095700010B500221146FDF783FA10BD3EB5002458
:109580000721C943684600940170601C0107090F58
:10959000684620314170847069462248FDF7E8FF33
:1095A000002803D000221146FDF76AFA1E480090F9
:1095B0001C4869460C30FDF723FF002803D0002229
:1095C0001146FDF75DFA1948194D00900195029476
:1095D000684604720120014668462031417201202C
:1095E00001466846203181720E4869461C30FDF7FD
:1095F00041FF002803D000221146FDF741FAFDF794
:1096000033FC0C4884700C4800900648694601956C
:109610004830FDF781FE002803D000221146FDF7F7
:109620002FFA3EBD5C240020298E0100398E0100F6
:109630007195010000200020058E010010B508463C
:109640001146C046C04610BD002803D00249C8607C
:10965000002070470E207047C420002070B50029FC
:1096600001D08C0701D0072070BD064C0125A160F8
:1096700062800549636010DF0028F5D1257016204F
:1096800026DF70BDC42000203D960100002803D0D5
:1096900002490861002070470E207047C420002056
:1096A00000207047FFB583B00F46594D069A0599C3
:1096B00006466B78114303200191002B03D100294A
:1096C0000FD001216970059A69780124920024075E
:1096D00000920B00FCF7F0FE07320721345474832C
:1096E00032000221EEE74B484169491C05D021694F
:1096F000406989B2FCF71AFD00E060692169401EEB
:1097000089B24843216909048A0C216989B27943E5
:1097100021DF002812D102210FE0384620DF002887
:109720000CD10599002901D0032106E006990029F2
:109730001FD13178042968D020E0697007B0F0BDEE
:1097400034484169491C05D02169406989B2FCF758
:10975000EDFC00E060692169401E89B24143206947
:10976000059A80B2784321DF0028E7D106990029C5
:1097700001D00421E1E7317804292ED00521DCE76E
:1097800024484169491C05D02169406989B2FCF728
:10979000CDFC00E060692169401E89B248437188B0
:1097A000421800981018226992B27A435218009910
:1097B000531801461846069A21DF0028DBD0BDE782
:1097C0002069718880B2784380188A08316921DF66
:1097D0000028B3D10199002917D00621ADE70D4823
:1097E0004169491C05D02169406989B2FCF79EFC9A
:1097F00000E060692169401E89B24843216989B24D
:10980000FCF794FC20DF002898D1072195E70000A1
:109810006C2000200010001010B50446FFF772FD08
:10982000022C01D0032C07D104480178002903D071
:1098300000210170FCF7B8FF10BD000000200020DF
:1098400001200249000508607047000000E200E0C6
:10985000F0B5174F2421BC6841430D1939694A1CE2
:1098600009D024224A4316196B687268934204D8BF
:10987000D21A726029623861F0BD0A4602E00A46D7
:10988000396A9B1B4E1C0BD024264E4337197E6829
:109890009E42F4D324264E4336197768FF1A776028
:1098A0006B60296224214A4311190862F0BD00004F
:1098B000A020002070B5194C2269A56813461146F6
:1098C00006E0814207D00A46242671434919096AF5
:1098D0004E1CF6D170BD002EFCD08A420CD1242043
:1098E00043435819006A2061401C05D10C4B0120EC
:1098F0009860002363616071242041434819242348
:1099000041685A43006A52191062421CE2D0242274
:109910005043401942685118416070BDA02000209A
:1099200000100140F8B51D4C2569681C35D01C4855
:10993000002640686169401A07023F0A19E02420A6
:109940004543A0682A185068B84214D8A3693F1A42
:109950008619156A002B09D0D169906998470028AB
:1099600007D000221146FDF78BF802E09169D0691B
:109970008847681CE3D1A178E078814206D1401C79
:10998000C0B2E070022801D10020E0700349000657
:10999000800D1C310E50FFF753FFF8BDA0200020B2
:1099A00000150140F0B58FB00D4606461C216846F3
:1099B000FCF7FFFB6846017802200143684601700E
:1099C00000240194039404940594012708A80694A4
:1099D0008770164968460184079469780177A978E9
:1099E0004177807FF9210840F721801C0840EF2152
:1099F00008404108490068468177142109A8FCF70E
:109A0000D8FB142109A8FCF7D4FB08A8099007A8E3
:109A10000A9068468785C48507860D953088B31CF3
:109A200009AA6946A2DF0FB0F0BD0000072A0000B6
:109A30000870000A48700220704700000121814030
:109A4000024842688A434260704700004420002078
:109A500038B51549154A488890420FD04A78144CB9
:109A6000521CD2B24A70237B934208D3083175DF6F
:109A7000002803D0A169002900D0884738BD0025FF
:109A80004D70217C002907D03B2176DF002803D0D0
:109A9000A169002900D0884761690029EED0684695
:109AA0000570884738BD00002C200020FFFF000013
:109AB000B024002012494868C005C00D19D01038E4
:109AC00040B2002807DA0207120F083A9208920003
:109AD0005118C96904E081080A4A8900891809688F
:109AE0008007C00EC1400806800F012803D003285C
:109AF00003D002207047002070470120704700000B
:109B000000ED00E000E400E042788378521C9342CC
:109B100000D100220378934201D1002070470A60EF
:109B2000416840781822504308187047F8B5154628
:109B3000069C1E4607460222009400F00AF8002800
:109B400006D13346102229463846009400F001F829
:109B5000F8BDFFB583B0074600200C9C86462678EA
:109B600005463AE07868A90041180A88684682806C
:109B70004988C1800022694601A865DF002810D10C
:109B8000684601780598814226D17046002801D0A8
:109B9000002200E002222078891841181F2902D9EA
:109BA0000C2007B0F0BD7146002908D1401CC0B29E
:109BB000411C069B049A21701A5401208646217884
:109BC00006980A18694601A865DF0028E9D16946A8
:109BD00020780978401820706D1C3888A842C1DCB4
:109BE0007046002804D020780699801B401E8855B6
:109BF0000020D6E704180100021801000318010034
:109C0000110000001200000013000000140000000A
:109C100011000300E575010012000300E575010065
:109C200013000300E575010014000300E575010051
:109C3000B78C01009187010019870100418801005C
:109C4000B38C01006187010015870100398801008C
:109C5000AF8C01001D8701001187010031880100D0
:109C6000809C010000200020D8000000D264010088
:109C7000589D0100D8200020F80D0000E26401008A
:109C800000000000FFFF00000000000000000000D6
:109C900000000000000000000000000000000000C4
:109CA00000000000000000000024F400000000009C
:109CB00000000000000000000000000000000000A4
:109CC0000000000000000000000000000000000094
:109CD0000000000000000000000000000000000084
:109CE0000100000000000000000000000000000073
:109CF0000000000000000000000000000000000064
:109D00000000000000000000000000000000000053
:109D10000000000000000000000000000000000043
:109D20000000000000000000000000000000000033
:109D30000000000000000000000000000000000023
:109D40000000000000000000000000000000000013
:089D500000000000000000000B
:04000005000160C1D5
:00000001FF
