:020000040001F9
:10600000F0330020156101002F61010031610100B2
:106010000000000000000000000000000000000080
:1060200000000000000000000000000033610100DB
:106030000000000000000000356101003761010030
:106040003961010039610100BD630100396101005E
:106050003961010000000000E561010039610100C3
:1060600039610100396101003961010039610100C4
:1060700039610100396101003961010039610100B4
:1060800039610100D162010039610100396101000B
:10609000F1620100396101004563010039610100CD
:1060A00039610100396101000000000000000000BA
:1060B00000000000000000000000000000000000E0
:1060C0000348854600F07CF8004800472D72010027
:1060D000F0330020401E00BF00BF00BF00BF00BF64
:1060E00000BF00BF00BF00BF00BF00BF00BFF1D1B5
:1060F00070470000401E00BF00BF00BF00BF00BFD0
:1061000000BF00BF00BF00BF00BF00BF00BFF1D194
:10611000704700000321094802680A4302600848EA
:1061200002680A4302600748804707480047FEE7C5
:10613000FEE7FEE7FEE7FEE7FEE70000240500407D
:106140005405004069630100C160010030B50B4691
:10615000014600202022012409E00D46D5409D4241
:1061600005D31D469540491B2546954040191546C7
:10617000521E002DF1DC30BD03460B439B0703D0BC
:1061800009E008C9121F08C0042AFAD203E00B78FC
:106190000370401C491C521EF9D27047D2B201E074
:1061A0000270401C491EFBD270470022F6E710B572
:1061B00013460A4604461946FFF7F0FF204610BD75
:1061C000064C0125064E05E0E36807CC2B430C3C4A
:1061D00098471034B442F7D3FFF776FFF07F010001
:1061E00010800100F8B51F4805691F490020C863E9
:1061F000074632E014213A464A4341688068541801
:106200000121B940014226D0E068C64320686E40B3
:1062100006403146204601F019FC124800696840EA
:106220000CD00543E0682168C0436840084001463F
:106230000090204601F00AFC009806433046A16811
:10624000A84301402A4660683240104002460A4393
:1062500001D0226990477F1CFFB2044841788F42E9
:10626000C8D3F8BD00050050406100405420002014
:1062700010B505480279C178183001F093F9024849
:10628000183001F07AF910BD002000208307FF22AA
:10629000DB0E9A408907090E994000280BDA0007A7
:1062A000000F0838830808489B001818C3699343F7
:1062B0000B43C3617047830804489B001B18186890
:1062C000904308431860704700ED00E000E400E0F0
:1062D00010B506490020086048608860C86003491E
:1062E00040390860486001F0F7FC10BD40110140E2
:1062F000FEB50020C043124D0290686901906846C7
:106300002E6900F0E5FD074600F0CEFE0446002FA2
:1063100008D002AA0199009800F0FAFD029800F056
:106320000DFF06E0029800F009FF002801D1002CC3
:1063300002D0304600F000FD00206871FEBD000074
:106340006020002010B507484068002807D080472B
:10635000002803D00022114600F04AF910BD00F0D9
:1063600031FE10BD8420002010B500F079FE002819
:1063700005D00E490C484860C8130D4988610D4886
:10638000018CC9B201290ED1818C09070BD1018D75
:106390000906090F042906D1808D0006000F02D1DD
:1063A00005490120886010BDDFFF07C000050040DF
:1063B000006C0040C00F00F00006004010B501F076
:1063C000D5FB104C0E4B61795854491CCAB2981831
:1063D00062712038C07F0A2801D0132A0ED30849E1
:1063E0000948521C00F044FB082805D0002803D0BF
:1063F0000022114600F0FCF80020607110BD000082
:106400002421002000200020B423002030B4744652
:10641000641E2578641CAB4200D21D46635D5B00A0
:10642000E31830BC184702E008C8121F08C1002A50
:10643000FAD170477047002001E001C1121F002A05
:10644000FBD17047F7B582B000260546167000787C
:106450001446002805D02846039901F059F8060093
:106460002DD1A87800281BD02078039F001D1F285D
:1064700024D8684679DF002821D121780322481CDE
:1064800020707A5421781922481C20707A54207880
:10649000C1196846008801F0BDFC217840182070C1
:1064A000A988002923D001208446AA680398002ADD
:1064B00007D0227853189B1C1F2B04D90C2005B041
:1064C000F0BD0720FBE71346521C2270491CC15443
:1064D00022786746511C217087542378AA8818189F
:1064E000A968FFF749FE2078297940182070E868EC
:1064F000002815D00021415622788C46D01C0399E3
:106500001F28DBD8501C022320708B5422780A23CA
:10651000501C20708B5420786246431C23700A5410
:10652000288A002809D0284600940622022110302B
:10653000039B01F0E3FC0600C1D1288B002809D0A1
:1065400028460094072203211830039B01F0D6FC53
:106550000600B4D1288C2F462037002808D000949C
:10656000152214213846039B01F0C8FC0600A6D171
:10657000A86A002805D02246039900F02FFC0600E7
:106580009DD1E86A002805D02246039900F04AFF11
:10659000060094D1387D002806D02246284603996B
:1065A00001F076FA06008AD1304688E700B585B05A
:1065B00014216846FFF7F9FD002069460870019034
:1065C000087240200882B4204882684673DF0028A1
:1065D00003D00022114600F00BF8022000F0B8FAB8
:1065E000002803D00022114600F002F805B000BDDB
:1065F000BFF34F8F03490248C860BFF34F8FFEE7D8
:106600000400FA0500ED00E010B5002903D08A0768
:106610000024002A01D0072010BD0F4A0B4651600C
:10662000107014215470414318469460FFF7BDFD6B
:1066300000200A49C0438860094840210160094A96
:106640001068FF231B0498430B041843106006488E
:106650000160002010BD00005420002000630040B5
:1066600080E200E004E400E000E100E070B5114CDD
:10667000A568002D06D0002A06D0002804D00023EB
:10668000247809E0082070BD072070BD24265E43F1
:10669000AE5D002E04D05B1CA342F7DB042070BD6E
:1066A000242401265C432E5564196170A2610360A5
:1066B000002070BD60200020FFB59807002481B045
:1066C0001E4615460F4600280BD1002E09D001F0BA
:1066D00037F922490A9888610F70324600208E608F
:1066E00008E0072005B0F0BD24234343D4549B1891
:1066F0001C75401CB842F7DB24204743BB1903201C
:1067000048700F461846CB601946183000221823EF
:106710002E465E43D3005B181C705C709D70586001
:106720003018521C032AF5DB0020C0433861BC70CE
:10673000FC7001240A482405046003211420FFF79B
:10674000A5FD08480460084C0198A06003211120B1
:10675000FFF79CFD606878610020C3E7602000209F
:1067600080E200E000E100E000150140FEB50446D3
:106770001D48174682680D46002A0CD001788C42CD
:1067800001D2052D01D20720FEBD21462423594305
:10679000535C012B01D00820FEBD881840780128E9
:1067A0001DD0002601F06EFBC0000F490190C968A2
:1067B0004018694601F090FB002812D001210170B9
:1067C0000A49446049680830E2C007490198C9682D
:1067D00041180098487001F00DFA0020FEBD2E46C9
:1067E000E0E70420FEBD000060200020001501400D
:1067F000F8B5144D0446A868002809D029788C42C1
:1068000001D30720F8BD24216143405C012801D059
:106810000820F8BD01F036FBC600E868694630186C
:1068200001F05AFB00280AD0022101704460E86898
:1068300031180098487001F0DDF90020F8BD0420FF
:10684000F8BD00006020002070B50D4692B0002118
:106850006A46117007241171002812D0818800291E
:1068600005D08168002902D00978490702D4204662
:1068700012B070BD02A9FFF7E5FD0028F8D102AE05
:1068800000E00026002D0BD0A8880028EFD101AA37
:106890000AA92846FFF7D6FD0028E9D10AAA00E098
:1068A0000022684603790178304672DFE0E7000095
:1068B00070B5054601461C220F48FFF75DFC0F4CE2
:1068C000002626702968002907D00822A018FFF7A3
:1068D00053FC204608307ADF02E0084808307BDFAE
:1068E000002808D1401E608004486670044A0021D8
:1068F000001DFFF7BBFE70BDD02300203C20002010
:10690000217E0100F8B5224C028800271F4DE68940
:10691000102A16D029464968112A21D0122A2DD0D2
:10692000502A1CD1C288801DB24218D1028B022A83
:1069300015D1C27E837E10021843C007C00F0CD150
:1069400012E0818869800146104808220E3110301B
:10695000FFF712FC6F70002E01D100F087FAF8BD2E
:106960000020C04368806F700846FFF741FF002891
:10697000F5D0A1690029F2D08847F8BD811D0348F0
:1069800008221030FFF7F8FBE7E700003C2000206A
:10699000D023002010B50446FFF7B4FF214603487A
:1069A00000F03AF8204600F04BFF10BDB423002061
:1069B00030B5184B0D4604000FCB85B003936B46E2
:1069C00007C324D0002D22D00020C043A082286815
:1069D000A0610020A0752146684663DF002814D11D
:1069E00021786846817401210182A21C04A901203A
:1069F000A0DF002809D12946204600F0C3FF002867
:106A000003D12946204601F0A7F905B030BD0E207C
:106A1000FBE70000C47F010000281ED000291CD025
:106A20000A88102A14D0112A14D0502A15D1CA88E5
:106A3000038A891D9A4202D10B8B022B0ED08388C8
:106A40009A420AD18369002B07D00A8B1A31184762
:106A5000898801E00021C94381827047CA7E8B7E0C
:106A600011021943C907C90F00D001218175704770
:106A700007B584B000280DD0828A114B9A420BD002
:106A8000827D002A08D06A46128B142A06D9072074
:106A900007B000BD0E20FBE70820F9E700220092B6
:106AA00001920292039282896B461A80039106A991
:106AB000029101219970808A6946A6DFE8E700000B
:106AC000FFFF000030B4002201290BD10B49C96837
:106AD000002907D00A4B94001C59844204D0521C50
:106AE000022AF8D330BC7047022AFBD20348401C6C
:106AF000805C0028F6D030BC084700002020002031
:106B0000D87F0100F0B500210F4D01270F4A032364
:106B10001B048C002E593C468C40044207D0B40024
:106B2000A41826689E43266026681E4305E0B4002C
:106B3000A41826689E43266026682660491C022900
:106B4000E7D30020F0BD0000D87F0100000700500F
:106B500010B5054A0146127A0020520602D50846B1
:106B600000F004F810BD000020200020FEB506460D
:106B70006F480021476803690093BB00FB1801229E
:106B8000019392040D466B4C3300FFF73FFC180D48
:106B90001111313E495B6769727B86919595959598
:106BA00095B7BEC5C5CBCBBCA560E2600570AAE0B9
:106BB000A560E2606168490609D5A560E560022E1E
:106BC00002D1E122D2000AE07D22520107E0E56015
:106BD000A560022E01D1C82201E0FF229132067089
:106BE00064211046FFF7B2FA78430022014624E000
:106BF000A560E2606168490604D5A560E5601922D8
:106C00005201ECE7E560A560E5E7A560E260616838
:106C1000490602D5A560E560D6E7E560A560DCE73A
:106C2000A560E2606168490602D5A560E56001E003
:106C3000E560A5600670790038E00098FFF796FDE2
:106C4000014660E0A560E2606168490602D5A56082
:106C5000E56001E0E560A56006701BE0A56057E017
:106C600060680121C9040A468243A2600840E060CE
:106C700010E061680120C00402468A43A26001401E
:106C8000E16012E061680120C00402468A43A2600C
:106C90000140E16000223946CFE760680121C90464
:106CA0000A468243A2600840E06001990022C4E7DE
:106CB000E560032080041FE007464069FFF798FD68
:106CC00001461120801B01D0002904D0A5600120BD
:106CD000C004E06017E001280BD9C82148436421B3
:106CE000FFF734FA7968002241437869FFF73EFDE7
:106CF0000146E5600120C004A06004E0A560032215
:106D00009204E26006700846FEBDA560032292046C
:106D1000E260E560A560F5E7A560E260E56001225C
:106D2000D20402E0E56003229204A260EAE70000D8
:106D30002020002000050050F8B5224801694A1CB7
:106D40003DD024225143826889184E681E494C6800
:106D500047690079E11B0D022D0AED1C002814D1B2
:106D600001201A4A00045060184A403A50601849FD
:106D700040000860174908601749012008602F206B
:106D8000FFF7B8F90F4901200871B54200D2354626
:106D9000E81900020C49000A403108600A494968B4
:106DA000001B091B0902090A0002000AC91C8142D2
:106DB00004D901200649400480390860F8BD00F07C
:106DC000BFFDF8BD602000200015014040130140C8
:106DD00080E200E000E100E000100140F8B50D465F
:106DE00011780646881D14461F2801D90C20F8BDCD
:106DF00033880720062BFAD31927FF01BB4202D99B
:106E0000164A9342F3D17288062AF0D3BA4202D9C5
:106E1000124FBA42EBD1114FBB4203D0BA4201D05C
:106E20009342E4D8481C052220706A54207812222C
:106E3000411C21702A5420784119308800F0EAFF63
:106E400021784018C0B220704119708800F0E2FF2C
:106E50002178401820700020F8BD0000FFFF0000DE
:106E600010B500221146FFF7C3FB10BDF8B5164858
:106E700000F0E8F8144D0026103D144C002807D00F
:106E8000616900291BD001206A461070684615E030
:106E90002878002805D06169002910D0684606705E
:106EA0000CE0687800280CD0A16800226868FFF721
:106EB0005DFC002803D0A169002900D088472E700E
:106EC000F8BD6168F1E700004C200020D0230020CD
:106ED00010B50E4900238A78CC78A24212D0521CF9
:106EE000D2B28A70022A00D18B708A78074B920046
:106EF0001C339A580260486910180002000A486161
:106F0000012010BD0360002010BD000060200020A3
:106F1000F7B5144C0025A76823691EE024215943C6
:106F2000C9194E68864202D9301A486017E0801BA2
:106F3000751900264E600E750E699C460B6AB646A2
:106F4000002E0AD0019E76193602360A8E607646E9
:106F5000CE6016680E6261461160591CDED1236155
:106F6000FEBD0000602000200EB5112069460872A9
:106F700002460FA102A87CDF002803D000221146A0
:106F8000FFF736FB002000901022694601900A802E
:106F90003C224A808880FF209130C88068467ADF92
:106FA000002803D000221146FFF722FB0EBD00008F
:106FB0004E6F726469635F554152543138313131DB
:106FC00032000000F8B51E4C2078002837D0206928
:106FD000002807D00026E068002805D00025002EF4
:106FE00004D013E00126F6E70125F8E7684651DFF3
:106FF000052806D0002806D000221146FFF7F8FA2F
:1070000004E0012602E0216900988847002D12D192
:10701000608869460880A06861DF052806D00028DE
:1070200006D000221146FFF7E3FA04E0012502E052
:10703000E168A0688847002ED8D0002DCFD0F8BDD9
:1070400084200020418805480288914204D340886A
:10705000814201D801207047002070474420002061
:107060001048018CC9B2012917D1818C090714D1AC
:10707000018D09060A0F03D1828D1206120F0ED060
:10708000090F012903D1828D1206120F07D003299F
:1070900003D1808D0006000F01D000207047012031
:1070A00070470000C00F00F0F8B523480169009157
:1070B000457833E02048E900C0680E1834782AE0AB
:1070C000182060437168641C0818B178E4B2A142CA
:1070D00000D100240178022902D003291BD113E03A
:1070E000154A40682421926841438F18397D002950
:1070F00011D000F0B9FD002038750CE0242778434A
:10710000C0180275006A03E00B4900228B68086909
:10711000471CF3D108617078A042D1D128466D1E7A
:10712000EDB20028C6D1044801690098814201D01F
:107130000120F8BD0020F8BD60200020F8B504460D
:10714000384800270169009146785CE03548F10035
:10715000C2688D1851E0601C07D0324A2420926822
:10716000604321468018046A24E0287818214143AE
:107170006A68401CC0B252182870A978884200D1B1
:107180002F70284B516824209B684843C0181378FF
:10719000012B34D1037D002B31D193688360D368F8
:1071A000C360136903615269C2611E4A5279002AA1
:1071B00000D087601B4B82685B6996469C46D31A59
:1071C0001A02194B120A9A4202D2C368D21808E076
:1071D000724663469A1A1202C368120A934202D98F
:1071E0009A1A426000E0476087600122C76002751A
:1071F000921E0262084600F005FD601CABD12878A3
:1072000069788842A7D13046761EF6B200289DD113
:10721000044801690098814201D00120F8BD002096
:10722000F8BD000060200020FFFF7F0000249EB01A
:10723000574B0522042120460094FFF73DFA002811
:1072400003D000221146FFF7D3F952490120FFF77E
:10725000DBF9002803D000221146FFF7C9F94C4999
:10726000002350226439082000F0ACFC002803D031
:1072700000221146FFF7BCF968460094047060DFF5
:10728000002803D000221146FFF7B2F9424800F06F
:107290008FFC002803D000221146FFF7A9F900F067
:1072A0009BFD3E48032505603C490C202C310860BD
:1072B000FEF7DEFF3A4A01213A48FFF7D7F939488D
:1072C00001210C3800228903C068FFF74FFAFFF74D
:1072D0004BFE354800902F4869461430FFF768FB95
:1072E000002803D000221146FFF782F9052118A8D3
:1072F00001752E4800681C9026481430017818A8A3
:10730000817438216846FEF750FF022168460170FB
:107310008470012686801DA8029038210EA8FEF7F1
:1073200044FF10A806821CA815900EA96846FFF716
:107330008BFA002803D000221146FFF759F91C21CF
:107340006846FEF732FF0520C00301900F200004BD
:107350000290009468460573C48104741448059033
:10736000144806906846FFF7A3FA002803D00022CD
:107370001146FFF73DF900F055FBFFF717F940DF25
:107380000028FCD000221146FFF732F9F7E7000091
:1073900038210020A0230020956901001807005023
:1073A000897401000C200020FD770100D47F0100CA
:1073B0001D790100616E0100F0B50B30C108C900F4
:1073C000144F0026144A0FE003688B420BD38B4204
:1073D00005D95C1A4318456830C3083B00E0436890
:1073E000136002C004E0021D10680028ECD1304692
:1073F000002803D13868002801D00020F0BD064ADB
:1074000006481060064A121AD208D20044C0012071
:107410003860D7E79C20002098200020F42300202B
:10742000F02B002070B5054600790E46801C1446EE
:10743000C0B21178821C8A181F2A01D90C2070BD95
:107440000A46491C2170401CB0542078FF22411C80
:107450002170325420788119288800F0DBFC2178D3
:107460004018C0B22070AA88002A09D0A968002953
:1074700008D08019FEF780FE207829794018207006
:10748000002070BD072070BD3EB51CA103C901904E
:107490001C480291426840219209D207D20F16D0AF
:1074A000C160052201A91848FFF7E2FA174CA57937
:1074B0000C2D0ED2A0780090681CA07120462946A1
:1074C00063782278183000F097F8E0713EBD816053
:1074D000E7E70C212846FEF739FE6D1CA571002553
:1074E0000A482B462A461830009500F085F8E071CE
:1074F000A0791728EAD9A5713EBD00003233363590
:107500000000000000050050B423002000200020EF
:10751000F8B514780746A01C15460E461F2803D858
:107520007878801C1F2801D90C20F8BD1D20001B75
:1075300080B26946864608803019801C7DDF0028AD
:10754000F3D13878022805D168460088704501D803
:10755000092107E078780821002801D0704501D979
:1075600068460088421C3255641CE2B2B154297846
:10757000801C081828700020F8BD70B50022134642
:107580000AE05100511844684D1C63544468891C3A
:1075900063554468521C635441889142F1DC00F009
:1075A00041F870BD70B50446500016460D461018DF
:1075B000FFF702FF60600E4A25700320A900668075
:1075C0008918086001200B49A840C86000200146C6
:1075D0000AE0420082186368551C99546368921C43
:1075E00059556368401C9954B042F2DB70BD0000ED
:1075F000000700500005005070B54588049C8D427E
:107600000DD94E00891945684E1CAA55426853543D
:107610004268891C545400F005F8002070BD012018
:1076200070BD0000F8B5064600780124724D844014
:10763000EC603220FEF74EFD0022D8E00021500021
:107640001318776858183F5CAC60FF090AD000BF78
:1076500000BF00BF00BF00BF00BF00BF00BF00BF32
:10766000EC6009E000BFEC6000BF00BF00BF00BFDE
:1076700000BF00BF00BF00BF77683F5CAC607F0603
:107680000AD500BF00BF00BF00BF00BF00BF00BFE2
:1076900000BF00BFEC6009E000BFEC6000BF00BFAE
:1076A00000BF00BF00BF00BF00BF00BF77683F5CE6
:1076B000AC60BF060AD500BF00BF00BF00BF00BF5F
:1076C00000BF00BF00BF00BFEC6009E000BFEC607E
:1076D00000BF00BF00BF00BF00BF00BF00BF00BFB2
:1076E00077683F5CAC60FF060AD500BF00BF00BFF3
:1076F00000BF00BF00BF00BF00BF00BFEC6009E0DB
:1077000000BFEC6000BF00BF00BF00BF00BF00BFF4
:1077100000BF00BF77683F5CAC603F070AD500BF81
:1077200000BF00BF00BF00BF00BF00BF00BF00BF61
:10773000EC6009E000BFEC6000BF00BF00BF00BF0D
:1077400000BF00BF00BF00BF77683F5CAC607F0731
:107750000AD500BF00BF00BF00BF00BF00BF00BF11
:1077600000BF00BFEC6009E000BFEC6000BF00BFDD
:1077700000BF00BF00BF00BF00BF00BF77683F5C15
:10778000AC60BF070AD500BF00BF00BF00BF00BF8D
:1077900000BF00BF00BF00BFEC6009E000BFEC60AD
:1077A00000BF00BF00BF00BF00BF00BF00BF00BFE1
:1077B0007768385CAC60C0070AD000BF00BF00BF6C
:1077C00000BF00BF00BF00BF00BF00BFEC6009E00A
:1077D00000BFEC6000BF00BF00BF00BF00BF00BF24
:1077E00000BF00BF491C032900DA2AE7521C708839
:1077F000904200DD22E7F8BD0005005070B5164646
:107800000C46002503E0605D00F0BEF96D1CB5423A
:10781000F9DB2078627800010849303810180870C8
:10782000A078E27800013038101848702079627929
:10783000000130381018887070BD00000020002052
:1078400070B504460088334D14283ED00BDC102858
:107850001AD0112824D0132815D12A46103200211D
:1078600028897FDF09E0172829D019283CD0522821
:1078700009D1002211462889A9DF002803D000225F
:107880001146FEF7B5FE70BD0720FFF761F900282D
:1078900003D000221146FEF7ABFEA088288170BD00
:1078A0000020FFF755F9002803D000221146FEF70B
:1078B0009FFE0020C0432881FEF778FE70BD322273
:1078C000A11D1548FEF758FC70BD1349E289C88810
:1078D000891D904203D10022288981DFCDE7002253
:1078E0001146288981DFC8E7A0790028ECD1FFF78D
:1078F0002FF9002803D000221146FEF779FE01205F
:10790000FFF700F9002803D000221146FEF770FEB1
:1079100034DFB2E700200020A020002010B500785E
:10792000002809D105483B21008976DF002803D0D3
:1079300000221146FEF75CFE10BD00000020002072
:1079400070B501240B49600408600B494010886041
:10795000094940398860094D6C602F20FEF7CAFB49
:10796000AC60074D00242F206C61FEF7C3FB2C7127
:1079700070BD000080E100E04013014000100140B4
:107980006020002070B500240546601C90B0000700
:10799000000F08A9103008940870601C0007000F41
:1079A000103048708878F9263040801C88701C217F
:1079B00001A8FEF7FAFB69460879102108436946D9
:1079C0000871029408A804940594079406902878F6
:1079D00008A98871032069468884112000940870E2
:1079E00048708878F7213040801C0840EF2108401B
:1079F000012630436946887014210AA8FEF7D5FB9A
:107A000009A80A9068460B9069460E8614204C8699
:107A100088862B4668880C330AAA01A9A2DF10B019
:107A200070BD000008491E2008808878012210439C
:107A3000E1221040DF220C30104088700720C8700F
:107A4000102008717047000010200020F0B50022BF
:107A50000123032636041F469740394212D0C568D9
:107A60003D4203D1012464043D4301E03446BD435B
:107A7000C560064D97007D192F68B7432F602F68AA
:107A800027432F60521C202AE5D3F0BD0007005089
:107A9000F7B582B002981446006B0F46002833D029
:107AA000029800252030009028E00298016B0C20FD
:107AB00068430E18217830794A1C2270C01C785413
:107AC00020781622411C21703A542078C119308840
:107AD00000F0A0F921784018C0B22070B288002AC6
:107AE00009D0B16800290FD0C019FEF745FB2078F6
:107AF0003179401820706D1C0098EDB2007DA842CD
:107B0000D3D8002005B0F0BD0720FBE7F0B5124C3C
:107B100003278D002D192F6000259E003619356032
:107B20000E4EF1607361059B0121002B0AD083008A
:107B30001B191F6093001B191D603261B06007485C
:107B40004030C162064870620420306005488160A0
:107B5000016005488560F0BD000700500025004029
:107B600000509D0000200040002100400448816832
:107B70000129FCD10021816002488069C0B27047B0
:107B8000002100400025004004490022CA61044B46
:107B9000D861C8690128FCD1CA6170470021004042
:107BA0000025004010B508461146C046C04610BD2D
:107BB000002803D00249C860002070470E2070479B
:107BC0008420002070B5002901D08C0701D0072047
:107BD00070BD064C0125A16062800549636010DF1D
:107BE0000028F5D12570162026DF70BD84200020E6
:107BF000A57B0100012002490005086070470000D4
:107C000000E200E0F0B5174F2421BC6841430D1994
:107C100039694A1C09D024224A4316196B687268D4
:107C2000934204D8D21A726029623861F0BD0A46C4
:107C300002E00A46396A9B1B4E1C0BD024264E4399
:107C400037197E689E42F4D324264E43361977684E
:107C5000FF1A77606B60296224214A431119086278
:107C6000F0BD00006020002070B5194C2269A568A5
:107C70001346114606E0814207D00A462426714386
:107C80004919096A4E1CF6D170BD002EFCD08A42FB
:107C90000CD1242043435819006A2061401C05D1AF
:107CA0000C4B0120986000236361607124204143E4
:107CB0004819242341685A43006A52191062421C31
:107CC000E2D024225043401942685118416070BDEF
:107CD0006020002000100140F8B51D4C2569681C8B
:107CE00035D01C48002640686169401A07023F0AE7
:107CF00019E024204543A0682A185068B84214D8D7
:107D0000A3693F1A8619156A002B09D0D1699069B9
:107D10009847002807D000221146FEF769FC02E0D0
:107D20009169D0698847681CE3D1A178E0788142E5
:107D300006D1401CC0B2E070022801D10020E070E2
:107D400003490006800D1C310E50FFF753FFF8BDAC
:107D5000602000200015014070B58EB005461C2142
:107D60006846FEF722FA694608780C2108436946FE
:107D700008700024019403940494059406942878D0
:107D800008A98870022069460884601C0007000F5B
:107D900010300794087711204877887FF921084030
:107DA000F721801C0840EF21084001263043694636
:107DB0008877142109A8FEF7F8F908A8099007A800
:107DC0000A9069468E851420CC85088668882B1D0C
:107DD00009AAA2DF0EB070BD08B5002000900B23E9
:107DE0000A2209210820FFF791FE07490420486074
:107DF00006490A68FF231B049A4303239B051A4381
:107E00000A600349086008BD0023004000E400E068
:107E100000E100E00870000A48700220704700008E
:107E200038B51549154A488890420FD04A78144C05
:107E3000521CD2B24A70237B934208D3083175DFBB
:107E4000002803D0A169002900D0884738BD00254B
:107E50004D70217C002907D03B2176DF002803D01C
:107E6000A169002900D0884761690029EED06846E1
:107E70000570884738BD00003C200020FFFF00004F
:107E8000D023002012494868C005C00D19D0103811
:107E900040B2002807DA0207120F083A920892004F
:107EA0005118C96904E081080A4A890089180968DB
:107EB0008007C00EC1400806800F012803D00328A8
:107EC00003D0022070470020704701207047000057
:107ED00000ED00E000E400E042788378521C934219
:107EE00000D100220378934201D1002070470A603C
:107EF000416840781822504308187047F8B5154675
:107F0000069C1E4607460222009400F00AF800284C
:107F100006D13346102229463846009400F001F875
:107F2000F8BDFFB583B0074600200C9C8646267836
:107F300005463AE07868A90041180A8868468280B8
:107F40004988C1800022694601A865DF002810D158
:107F5000684601780598814226D17046002801D0F4
:107F6000002200E002222078891841181F2902D936
:107F70000C2007B0F0BD7146002908D1401CC0B2EA
:107F8000411C069B049A21701A54012086462178D0
:107F900006980A18694601A865DF0028E9D16946F4
:107FA00020780978401820706D1C3888A842C1DC00
:107FB0007046002804D020780699801B401E885502
:107FC0000020D6E79ECADC240EE5A9E093F3A3B512
:107FD0000000406E010000001000000011000000D1
:107FE00010000300C56A010011000300C56A01000A
:107FF0001080010000200020A00000002664010085
:10800000B0800100A0200020501300003664010061
:10801000201000070C000000FFFF0000000000001F
:108020000000000000000000000000000000000050
:108030000000000000000000000000000000000040
:1080400000000000000000000024F4000000000018
:108050000000000000000000000000000000000020
:108060000000000000000000000000000000000010
:108070000000000000000000000000000000000000
:1080800000000000000000000000000000000000F0
:1080900000000000000000000000000000000000E0
:1080A00000000000000000000000000000000000D0
:04000005000160C1D5
:00000001FF
