:020000040000FA
:1000000010100020F50000000F0100001101000099
:1000100000000000000000000000000000000000E0
:1000200000000000000000000000000013010000BC
:100030000000000000000000150100001701000092
:100040001901000019010000190100001901000048
:100050001901000000000000190100001901000052
:100060001901000019010000190100001901000028
:100070001901000019010000190100001901000018
:100080001901000019010000190100001901000008
:1000900019010000190100001901000019010000F8
:1000A000190100001901000000000000000000001C
:1000B0000000000000000000000000000000000040
:1000C0000348854600F048F8004800473902000020
:1000D00010100020401E00BF00BF00BF00BF00BFC7
:1000E00000BF00BF00BF00BF00BF00BF00BFF1D115
:1000F000704700000321094802680A43026008486B
:1001000002680A4302600748804707480047FEE745
:10011000FEE7FEE7FEE7FEE7FEE7000024050040FD
:10012000540500407D010000C100000030B50B46C1
:10013000014600202022012409E00D46D5409D42C1
:1001400005D31D469540491B254695404019154647
:10015000521E002DF1DC30BD064C0125064E05E097
:10016000E36807CC2B430C3C98471034B442F7D3D8
:10017000FFF7AAFFAC050000CC05000010B500F0A9
:1001800037F8002805D00E490C484860C8130D49BF
:1001900088610D48018CC9B201290ED1818C0907F3
:1001A0000BD1018D0906090F042906D1808D0006A7
:1001B000000F02D105490120886010BDDFFF07C094
:1001C00000050040006C0040C00F00F00006004039
:1001D00002E008C8121F08C1002AFAD17047704710
:1001E000002001E001C1121F002AFBD1704700006E
:1001F0001048018CC9B2012917D1818C090714D18B
:10020000018D09060A0F03D1828D1206120F0ED03E
:10021000090F012903D1828D1206120F07D003297D
:1002200003D1808D0006000F01D00020704701200F
:1002300070470000C00F00F086B07D2002900020C3
:10024000019007210C220A247B2503A800F082F8E4
:1002500003A800F069F80020154E0322154B012178
:100260000F468740374202D08700FF183A60401C93
:100270002028F5D30F48183002600E490C201431A5
:1002800008600D4E4027641CE0B20C21FFF74EFFC2
:100290000C46009503A8019B029A00F085F830698E
:1002A0004009C007C00F01D0B760ECE7F760EAE78C
:1002B0004000C0010007005000050050F0B50B30B1
:1002C000C108C900144F0026144A0FE003688B428E
:1002D0000BD38B4205D95C1A4318456830C3083BE1
:1002E00000E04368136002C004E0021D10680028AB
:1002F000ECD13046002803D13868002801D0002016
:10030000F0BD064A06481060064A121AD208D2000A
:1003100044C001203860D7E7080000200400002016
:10032000140000201008002070B5002213460AE0D7
:100330005100511844684D1C63544468891C63552E
:100340004468521C635441889142F1DC00F042F849
:1003500070BD000070B50446500016460D461018DA
:10036000FFF7ACFF60600E4A25700320A90066808D
:100370008918086001200B49A840C8600020014688
:100380000AE0420082186368551C99546368921C05
:1003900059556368401C9954B042F2DB70BD0000AF
:1003A000000700500005005070B54588049C8D4240
:1003B0000DD94E00891945684E1CAA554268535400
:1003C0004268891C545400F005F8002070BD0120DB
:1003D00070BD0000F8B5064600780124724D8440D7
:1003E000EC603220FFF776FE0022D8E000215000BA
:1003F0001318776858183F5CAC60FF090AD000BF3B
:1004000000BF00BF00BF00BF00BF00BF00BF00BFF4
:10041000EC6009E000BFEC6000BF00BF00BF00BFA0
:1004200000BF00BF00BF00BF77683F5CAC607F06C5
:100430000AD500BF00BF00BF00BF00BF00BF00BFA4
:1004400000BF00BFEC6009E000BFEC6000BF00BF70
:1004500000BF00BF00BF00BF00BF00BF77683F5CA8
:10046000AC60BF060AD500BF00BF00BF00BF00BF21
:1004700000BF00BF00BF00BFEC6009E000BFEC6040
:1004800000BF00BF00BF00BF00BF00BF00BF00BF74
:1004900077683F5CAC60FF060AD500BF00BF00BFB5
:1004A00000BF00BF00BF00BF00BF00BFEC6009E09D
:1004B00000BFEC6000BF00BF00BF00BF00BF00BFB7
:1004C00000BF00BF77683F5CAC603F070AD500BF44
:1004D00000BF00BF00BF00BF00BF00BF00BF00BF24
:1004E000EC6009E000BFEC6000BF00BF00BF00BFD0
:1004F00000BF00BF00BF00BF77683F5CAC607F07F4
:100500000AD500BF00BF00BF00BF00BF00BF00BFD3
:1005100000BF00BFEC6009E000BFEC6000BF00BF9F
:1005200000BF00BF00BF00BF00BF00BF77683F5CD7
:10053000AC60BF070AD500BF00BF00BF00BF00BF4F
:1005400000BF00BF00BF00BFEC6009E000BFEC606F
:1005500000BF00BF00BF00BF00BF00BF00BF00BFA3
:100560007768385CAC60C0070AD000BF00BF00BF2E
:1005700000BF00BF00BF00BF00BF00BFEC6009E0CC
:1005800000BFEC6000BF00BF00BF00BF00BF00BFE6
:1005900000BF00BF491C032900DA2AE7521C7088FB
:1005A000904200DD22E7F8BD00050050CC050000B8
:1005B000000000200C000000D0010000D805000061
:1005C0000C00002004100000E00100000024F400F2
:0805D000000000000000000023
:04000005000000C136
:00000001FF
