:020000040000FA
:1000000010100020150100002F0100003101000038
:1000100000000000000000000000000000000000E0
:10002000000000000000000000000000330100009C
:100030000000000000000000350100003701000052
:1000400039010000390100003901000039010000C8
:1000500039010000000000003901000039010000F2
:1000600039010000390100003901000039010000A8
:100070003901000039010000390100003901000098
:100080003901000039010000390100003901000088
:100090003901000039010000390100003901000078
:1000A00039010000390100000000000000000000DC
:1000B0000000000000000000000000000000000040
:1000C0000348854600F042F8004800472D02000032
:1000D00010100020401E00BF00BF00BF00BF00BFC7
:1000E00000BF00BF00BF00BF00BF00BF00BFF1D115
:1000F00070470000401E00BF00BF00BF00BF00BF30
:1001000000BF00BF00BF00BF00BF00BF00BFF1D1F4
:10011000704700000321094802680A43026008484A
:1001200002680A4302600748804707480047FEE725
:10013000FEE7FEE7FEE7FEE7FEE7000024050040DD
:100140005405004071010000C1000000064C01256B
:10015000064E05E0E36807CC2B430C3C984710346F
:10016000B442F7D3FFF7B0FFE8050000080600002F
:1001700010B500F037F8002805D00E490C4848604B
:10018000C8130D4988610D48018CC9B201290ED1EF
:10019000818C09070BD1018D0906090F042906D1AD
:1001A000808D0006000F02D105490120886010BD36
:1001B000DFFF07C000050040006C0040C00F00F0EA
:1001C0000006004002E008C8121F08C1002AFAD148
:1001D00070477047002001E001C1121F002AFBD1C7
:1001E000704700001048018CC9B2012917D1818CD9
:1001F000090714D1018D09060A0F03D1828D120659
:10020000120F0ED0090F012903D1828D1206120F91
:1002100007D0032903D1808D0006000F01D00020F4
:100220007047012070470000C00F00F086B020200A
:10023000029010200025019007210C222C4603A8D3
:1002400000F098F803A800F07FF80020204E032269
:10025000204B01210F468740374202D08700FF180C
:100260003A60401C2028F5D31A481830026019491A
:100270000C2014310860184E30694009C007C00FC7
:1002800023D00095214603A8019B029A00F09CF818
:10029000FF20F53000F09AF94020B060641CE4B211
:1002A0000C2CE9D30024274600231A46214603A834
:1002B000009700F089F8FF20F53000F087F9641C02
:1002C000E4B20C2CF0D30024D6E74020F060D3E752
:1002D0004000C0010007005000050050F0B50B3091
:1002E000C108C900144F0026144A0FE003688B426E
:1002F0000BD38B4205D95C1A4318456830C3083BC1
:1003000000E04368136002C004E0021D106800288A
:10031000ECD13046002803D13868002801D00020F5
:10032000F0BD064A06481060064A121AD208D200EA
:1003300044C001203860D7E70800002004000020F6
:10034000140000201008002070B5002213460AE0B7
:100350005100511844684D1C63544468891C63550E
:100360004468521C635441889142F1DC00F042F829
:1003700070BD000070B50446500016460D461018BA
:10038000FFF7ACFF60600E4A25700320A90066806D
:100390008918086001200B49A840C8600020014668
:1003A0000AE0420082186368551C99546368921CE5
:1003B00059556368401C9954B042F2DB70BD00008F
:1003C000000700500005005070B54588049C8D4220
:1003D0000DD94E00891945684E1CAA5542685354E0
:1003E0004268891C545400F005F8002070BD0120BB
:1003F00070BD0000F8B5064600780124724D8440B7
:10040000EC603220FFF766FE0022D8E000215000A9
:100410001318776858183F5CAC60FF090AD000BF1A
:1004200000BF00BF00BF00BF00BF00BF00BF00BFD4
:10043000EC6009E000BFEC6000BF00BF00BF00BF80
:1004400000BF00BF00BF00BF77683F5CAC607F06A5
:100450000AD500BF00BF00BF00BF00BF00BF00BF84
:1004600000BF00BFEC6009E000BFEC6000BF00BF50
:1004700000BF00BF00BF00BF00BF00BF77683F5C88
:10048000AC60BF060AD500BF00BF00BF00BF00BF01
:1004900000BF00BF00BF00BFEC6009E000BFEC6020
:1004A00000BF00BF00BF00BF00BF00BF00BF00BF54
:1004B00077683F5CAC60FF060AD500BF00BF00BF95
:1004C00000BF00BF00BF00BF00BF00BFEC6009E07D
:1004D00000BFEC6000BF00BF00BF00BF00BF00BF97
:1004E00000BF00BF77683F5CAC603F070AD500BF24
:1004F00000BF00BF00BF00BF00BF00BF00BF00BF04
:10050000EC6009E000BFEC6000BF00BF00BF00BFAF
:1005100000BF00BF00BF00BF77683F5CAC607F07D3
:100520000AD500BF00BF00BF00BF00BF00BF00BFB3
:1005300000BF00BFEC6009E000BFEC6000BF00BF7F
:1005400000BF00BF00BF00BF00BF00BF77683F5CB7
:10055000AC60BF070AD500BF00BF00BF00BF00BF2F
:1005600000BF00BF00BF00BFEC6009E000BFEC604F
:1005700000BF00BF00BF00BF00BF00BF00BF00BF83
:100580007768385CAC60C0070AD000BF00BF00BF0E
:1005900000BF00BF00BF00BF00BF00BFEC6009E0AC
:1005A00000BFEC6000BF00BF00BF00BF00BF00BFC6
:1005B00000BF00BF491C032900DA2AE7521C7088DB
:1005C000904200DD22E7F8BD0005005031B5054C32
:1005D00004E0401E00902046FFF78CFD00980028A4
:1005E000F7D138BDE7030000080600000000002036
:1005F0000C000000C4010000140600000C000020E4
:1006000004100000D40100000024F40000000000E9
:0406100000000000E6
:04000005000000C136
:00000001FF
