:020000040001F9
:10600000882F0020F56001000F610100116101007F
:106010000000000000000000000000000000000080
:1060200000000000000000000000000013610100FB
:106030000000000000000000156101001761010070
:106040001961010019610100016401001961010079
:1060500019610100000000004562010019610100A2
:106060001961010019610100196101001961010044
:106070001961010019610100196101001961010034
:106080001961010015630100196101001961010026
:106090003563010019610100896301001961010084
:1060A00019610100196101000000000000000000FA
:1060B00000000000000000000000000000000000E0
:1060C0000348854600F08EF800480047B58A010075
:1060D000882F0020401E00BF00BF00BF00BF00BFD0
:1060E00000BF00BF00BF00BF00BF00BF00BFF1D1B5
:1060F000704700000321094802680A43026008480B
:1061000002680A4302600748804707480047FEE7E5
:10611000FEE7FEE7FEE7FEE7FEE70000240500409D
:1061200054050040AD630100C160010030B50B466D
:10613000014600202022012409E00D46D5409D4261
:1061400005D31D469540491B2546954040191546E7
:10615000521E002DF1DC30BD10B5431A934209D216
:106160008318881803E0401E01785B1E1970521EC8
:10617000F9D210BD03460B439B0703D009E008C9C1
:10618000121F08C0042AFAD203E00B780370401CE7
:10619000491C521EF9D210BDD2B201E00270401C5F
:1061A000491EFBD270470022F6E710B513460A4697
:1061B00004461946FFF7F0FF204610BD421C017847
:1061C000401C0029FBD1801A704730B504460020DE
:1061D000034600E05B1C934203D2E05CCD5C401BB5
:1061E000F8D030BD064C0125064E05E0E36807CC2B
:1061F0002B430C3C98471034B442F7D3FFF764FFAD
:10620000709C0100909C010030B58C180278401CF5
:1062100013071B0F01D10378401C120906D1027825
:10622000401C03E005780D70401C491C5B1EF9D131
:1062300001E00B70491C521EFBD1A142E6D30020A5
:1062400030BD0000F8B51F4805691F490020C8632C
:10625000074632E014213A464A43416880685418A0
:106260000121B940014226D0E068C64320686E4053
:1062700006403146204603F09FF812480069684006
:106280000CD00543E0682168C043684008400146DF
:106290000090204603F090F8009806433046A1682D
:1062A000A84301402A4660683240104002460A4333
:1062B00001D0226990477F1CFFB2044841788F4289
:1062C000C8D3F8BD00050050406100400421002003
:1062D0008307FF22DB0E9A408907090E99400028A8
:1062E0000BDA0007000F0838830808489B001818CD
:1062F000C36993430B43C3617047830804489B0001
:106300001B181868904308431860704700ED00E0C0
:1063100000E400E010B5064900200860486088608D
:10632000C860034940390860486003F0FFFA10BDB7
:1063300040110140FEB50020C043124D0290686933
:10634000019068462E6902F073F8074602F0F0FAF1
:106350000446002F08D002AA0199009802F088F89C
:10636000029802F02FFB06E0029802F02BFB0028B7
:1063700001D1002C02D0304601F062FB0020687190
:10638000FEBD00001021002010B50748406800281D
:1063900007D08047002803D00022114600F038FAC9
:1063A00010BD02F041FA10BD3421002010B502F0FA
:1063B00089FA002805D00E490C484860C8130D49D9
:1063C00088610D48018CC9B201290ED1818C090761
:1063D0000BD1018D0906090F042906D1808D000615
:1063E000000F02D105490120886010BDDFFF07C002
:1063F00000050040006C0040C00F00F000060040A7
:106400007CB51B4CA0681B4E0025002818D0A56049
:1064100019488069C1B2194800F01DFA002805D05A
:1064200001216A4611700190684607E01348C1686F
:106430008068081A012803D168460570B16888474A
:10644000E069002803D0E561032002F04DFC606A9A
:1064500000280BD06562084980390868086002216D
:106460006A4611700190B168684688477CBD00009B
:1064700000210040D0200020002500408826002078
:1064800030B47446641E2578641CAB4200D21D46AD
:10649000635D5B00E31830BC184702E008C8121FB8
:1064A00008C1002AFAD170477047002001E001C1FD
:1064B000121F002AFBD1704738B50D4C60780228B6
:1064C00002D00C490120886069460B4800F0B2F9FF
:1064D000002802D000F016F838BD084880218160FD
:1064E0006A46074B1278DA6102226270416038BD59
:1064F000D0200020002000409826002000230040EB
:10650000002500401CB506490120C86005494870B7
:1065100003206A4610708968684688471CBD0000E1
:1065200000200040D0200020044900204870044989
:106530000122CA604A60034908607047D0200020E9
:106540000020004000250040F7B582B00026054637
:10655000167000781446002805D02846039902F0EA
:1065600035FB06002DD1A87800281BD02078039F8A
:10657000001D1F2824D8684679DF002821D1217802
:106580000322481C20707A5421781922481C20705C
:106590007A542078C1196846008803F051FA2178AE
:1065A00040182070A988002923D001208446AA68B9
:1065B0000398002A07D0227853189B1C1F2B04D95C
:1065C0000C2005B0F0BD0720FBE71346521C2270DB
:1065D000491CC15422786746511C21708754237886
:1065E000AA881818A968FFF7B7FD207829794018FC
:1065F0002070E868002815D00021415622788C468A
:10660000D01C03991F28DBD8501C022320708B5408
:1066100022780A23501C20708B5420786246431C39
:1066200023700A54288A002809D02846009406229C
:1066300002211030039B03F081FA0600C1D1288BA0
:10664000002809D028460094072203211830039B14
:1066500003F074FA0600B4D1288C2F4620370028A6
:1066600008D00094152214213846039B03F066FAE3
:106670000600A6D1A86A002805D02246039901F099
:1066800031FA06009DD1E86A002805D02246039918
:1066900002F06AFA060094D1387D002806D022461E
:1066A0002846039902F0E6FE06008AD1304688E7C4
:1066B00000B593B006206946164A087007CA0FABAA
:1066C00007C3382101A8FFF76EFD02206946087153
:1066D0000120887108810320039188830FA8089006
:1066E000002101A800F07CFB002803D00022114605
:1066F00000F08EF814210848FFF755FD06480021E8
:1067000001704160017228210182B421418213B0DD
:1067100000BD0000049C0100B424002008B56846B8
:1067200002F080FB002803D00022114600F070F830
:106730000098002803D00B490120487008BD0A4882
:1067400073DF002803D00022114600F061F8022018
:1067500000F0F4FE0028F1D00022114600F058F8B5
:1067600008BD000000200020B42400200448426836
:106770000121C9050B46934383600A40C2607047FC
:106780000005005010B505484168002903D0407845
:1067900000F0BEF810BD082010BD0000E820002069
:1067A000F8B50C46052A01D20720F8BD1449154D4D
:1067B00048600C70CB608A60002101230BE0E2008E
:1067C000121816789778B600BF00761937601678D9
:1067D0001A46B24011432246641EE4B2002AEED1AA
:1067E0000748094B0A46401C00F0DCF80028DCD1C1
:1067F0000348064A0021103000F010F9F8BD0000EF
:10680000E820002000070050658601002D7C010073
:10681000BFF34F8F03490248C860BFF34F8FFEE7B5
:106820000400FA0500ED00E0014B1B68184700006A
:106830007C260020C26883689A420AD082688388D6
:106840001A4003689A5C0A708168491C81600020C4
:10685000704705207047C2688368D31A82889342C4
:1068600008D8C36813400268D154C168491CC1608C
:10687000002070470420704710B5002903D08A0714
:106880000024002A01D0072010BD0F4A0B4651609A
:10689000107014215470414318469460FFF783FC34
:1068A00000200A49C0438860094840210160094A24
:1068B0001068FF231B0498430B041843106006481C
:1068C0000160002010BD0000042100200063004092
:1068D00080E200E004E400E000E100E00A4B5A68D6
:1068E000002A04D05B78984203D307207047082021
:1068F0007047142358438018044A12690068024004
:1069000000200A60704700000421002000050050AC
:10691000F0B51F4A5168002904D05378984203D338
:106920000720F0BD0820F0BD1A4B0025DD631A4B8F
:106930001C699768002F02D1184EDB057360012691
:1069400086403E439660142250434218D560002290
:1069500001230D5893401D4215D01C4202D003253F
:106960002D0405E001256D044618F7681F43F76004
:106970000B4B9600F3181E6803273F04BE431E60AE
:106980001E682E431E60521C202AE1D30020F0BD59
:1069900004210020406100400005005000630040D9
:1069A00000070050F8B5114F84467D68002D07D0D0
:1069B000002B07D078783C78A04205D30420F8BD9E
:1069C0000820F8BD0720F8BD0E46142416434443A2
:1069D0002E5164192361A260616061460870411CF8
:1069E000797002F0E1F90020F8BD000004210020D8
:1069F00038B50246084814230178074C5943081853
:106A0000C368CC341B01E4580179C38800934369FF
:106A10000C30A04738BD0000A826002070B5114CEE
:106A2000A568002D06D0002A06D0002804D0002337
:106A3000247809E0082070BD072070BD24265E433D
:106A4000AE5D002E04D05B1CA342F7DB042070BDBA
:106A5000242401265C432E5564196170A2610360F1
:106A6000002070BD10210020FFB59807002481B0E0
:106A70001E4615460F4600280BD1002E09D002F005
:106A800079FC22490A9888610F70324600208E6096
:106A900008E0072005B0F0BD24234343D4549B18DD
:106AA0001C75401CB842F7DB24204743BB19032068
:106AB00048700F461846CB6019461830002218233C
:106AC0002E465E43D3005B181C705C709D7058604E
:106AD0003018521C032AF5DB0020C0433861BC701B
:106AE000FC7001240A482405046003211420FFF7E8
:106AF000EFFB08480460084C0198A06003211120B6
:106B0000FFF7E6FB606878610020C3E710210020F2
:106B100080E200E000E100E000150140FEB504461F
:106B20001D48174682680D46002A0CD001788C4219
:106B300001D2052D01D20720FEBD21462423594351
:106B4000535C012B01D00820FEBD88184078012835
:106B50001DD0002602F0B6FFC0000F490190C968A1
:106B60004018694602F0D8FF002812D001210170B8
:106B70000A49446049680830E2C007490198C96879
:106B800041180098487002F05FFE0020FEBD2E46BE
:106B9000E0E70420FEBD00001021002000150140A8
:106BA000F8B5144D0446A868002809D029788C420D
:106BB00001D30720F8BD24216143405C012801D0A6
:106BC0000820F8BD02F07EFFC600E868694630186C
:106BD00002F0A2FF00280AD0022101704460E86898
:106BE00031180098487002F02FFE0020F8BD0420F4
:106BF000F8BD00001021002010B5184C0121002222
:106C00000904E068FFF78AFF002803D0002211463C
:106C1000FFF7FEFD01210022C9032069FFF77EFF77
:106C2000002803D000221146FFF7F2FD00220C4994
:106C30006069FFF773FF002803D000221146FFF7B9
:106C4000E7FD05210022C903A069FFF767FF0028BF
:106C500003D000221146FFF7DBFD10BD002000200D
:106C600066260000F0B50546007D002493B00E4670
:106C700000280DD0012001466846103103940173AD
:106C8000717B4173817BF92001406846891C8173C7
:106C90001C2104A8FFF787FA6946087C02210843F3
:106CA000694608742A7DEF21002A02D01022104381
:106CB00000E008406A461074059407940894287D03
:106CC000002800D003A8099001270A941046977164
:106CD000304A82800094B27B0270F27B42708078EE
:106CE000F9221040F722801C1040EF210840410893
:106CF000490068468170317B017214210BA8FFF7AF
:106D000052FA01A80B9068460C908786C4860787C4
:106D100002A80F90A888AB1D0BAA04A9A2DF002827
:106D200035D1B068002830D0684687711A49818013
:106D30000094317C017000200146684641708078E3
:106D4000F9210840F721801C0840EF210840410844
:106D500049006846817011A8B16800F0E5FA06465E
:106D600014210BA8FFF71FFA01A80B9068460C909E
:106D70008686C486068711A80F902A46E8880E32B8
:106D80000BA9A3DF002802D100E0EC81002013B0A2
:106D9000F0BD0000192A00000829000010B50C49B8
:106DA0000C4800F09DFAC1B20948683800F04CF870
:106DB00000280BD0082809D00749884206D0074987
:106DC000884203D000221146FFF722FD10BD0000CB
:106DD000302500201C200020043000000134000079
:106DE00070B50D4692B000216A46117007241171EA
:106DF000002812D08188002905D08168002902D09E
:106E00000978490702D4204612B070BD02A9FFF7E5
:106E10009BFB0028F8D102AE00E00026002D0BD02D
:106E2000A8880028EFD101AA0AA92846FFF78CFB01
:106E30000028E9D10AAA00E0002268460379017817
:106E4000304672DFE0E7000033B585B0044669469E
:106E5000227C097E00208A4222D0012568460582D4
:106E60002174E08806AB04AA0021A4DF002817D112
:106E7000608A0D49884215D0207D002812D000205C
:106E8000009001900290694603900D82E2880A808A
:106E90008D70888004A8029006A80390608AA6DFFF
:106EA00007B030BD0820FBE7FFFF000038B50446FF
:106EB000086820600020C043608208792075FF20A8
:106EC0000D46207401216846817006490180221D0B
:106ED00069460120A0DF002803D129462046FFF79C
:106EE000C1FE38BD0F18000038B50A88102A1AD024
:106EF000112A1AD0502A1BD1027D002A18D0CA8824
:106F00004389891D9A4213D10A8B022A10D1026843
:106F1000002A0DD0CB7E8C7E19022143C907C90FF0
:106F200007D0002106E0898801E00021C9434182A1
:106F300038BD01216B4619706946904738BD000085
:106F400070B5054601461C220F48FFF705F90F4CA6
:106F5000002626702968002907D00822A018FFF70C
:106F6000FBF8204608307ADF02E0084808307BDF73
:106F7000002808D1401E608004486670044A002141
:106F8000001DFFF74BFD70BD602500205420002040
:106F9000619A0100F8B5224C028800271F4DE6894E
:106FA000102A16D029464968112A21D0122A2DD03C
:106FB000502A1CD1C288801DB24218D1028B022AED
:106FC00015D1C27E837E10021843C007C00F0CD1BA
:106FD00012E0818869800146104808220E31103085
:106FE000FFF7BAF86F70002E01D100F0C3FDF8BDB5
:106FF0000020C04368806F700846FFF7D1FD00286D
:10700000F5D0A1690029F2D08847F8BD811D034859
:1070100008221030FFF7A0F8E7E700005420002016
:10702000602500207FB504460121684681714A49E8
:1070300081804A4A01A90120A0DF00287ED1228850
:1070400025463C35002A09D044482B46801C009038
:107050004348616800F0E6FB00287BD12289002AC2
:107060000AD03E482B460A3000903D48E168401F58
:1070700000F0D8FB00286DD1228A002A0AD03748B8
:107080002B461230009036486169001F00F0CAFBA1
:1070900000285FD1228B002A0AD030482B461A30B4
:1070A00000902F48E169801E00F0BCFB002851D100
:1070B000228C002A0AD029482B46223000902848EA
:1070C000616AC01E00F0AEFB002843D1228D002A69
:1070D0000AD022482B462A3000902148E16A401EFF
:1070E00000F0A0FB002835D1216B00290ED002A8AA
:1070F00002F07EFB19482B463230009018480822D7
:1071000002A9801F00F08EFB002823D1606B0028AD
:107110000BD012492B463A31009102790168104890
:10712000401C00F07FFB002814D1A16B002910D077
:1071300002A801F057FE0948423000E00AE0009042
:1071400007482B46072202A9273000F06BFB0028D6
:1071500000D1002004B070BD0A1800008420002077
:10716000292A000010B5044600F088FE2146074891
:1071700000F068F8054821461838FFF7B5FE2046AC
:10718000FFF708FF204601F05DFD10BDE024002060
:1071900030B50446008C134A8BB090421FD006AA2B
:1071A000204601F0FDFA694605460880002001905E
:1071B00002900390049022898A8001228A710881BA
:1071C00006A803910490208C01A9A6DF002804D111
:1071D00069460988A94200D00C200BB030BD0820B8
:1071E000FBE70000FFFF000038B504460868206098
:1071F000087960710020C0430D46208400202221C0
:1072000008554C2108530121684681700C490180C2
:10721000A21D69460120A0DF00280FD12946204683
:1072200001F066FA002809D1A868002805D029468F
:10723000204600F0B1F8002800D1002038BD000041
:107240000D18000038B50A88102A17D0112A17D057
:10725000502A18D1CA888389891D9A4213D10A8B72
:10726000022A10D10268002A0DD0CB7E8C7E190232
:107270002143C907C90F07D0002106E0898801E032
:107280000021C943018438BD01216B46197069464C
:10729000904738BD70B5054604464035A8890E466E
:1072A000142807D12622A118881EFEF755FFA889A9
:1072B000401EA88180B241000919401CA8818E841B
:1072C00070BD2030817070470A7B002A03D0496866
:1072D0000160002102E0096801600121017170472D
:1072E00010B504798B680268002C08D049688C1AA4
:1072F0009C4201D9D11807E00160002108E009682B
:10730000541A9C4202D9D11A016002E001600121A5
:107310000171006810BD70B504460D460846FEF7C1
:107320004DFF2080656070BD0A7802704978417019
:107330000220704708B5002350221449082002F0AB
:1073400065F9002803D000221146FFF761FA0020FA
:10735000694600900870684660DF002803D000226C
:107360001146FFF755FA0A4802F046F9002803D003
:1073700000221146FFF74CFA064802F05FF9002898
:1073800003D000221146FFF743FA08BD5024002025
:1073900065710100C9970100F0B58FB00D46064632
:1073A0001C216846FEF7FFFE684601780220014373
:1073B0006846017000240194039404940594012705
:1073C00008A8069487701549684601840794E97BEC
:1073D0000177297C4177807FF9210840F721801CC3
:1073E0000840EF2108404108490068468177142190
:1073F00009A8FEF7D8FE08A8099007A80A906846D1
:107400008785C4850786A8680D903346F0881033B9
:1074100009AA6946A2DF0FB0F0BD0000382A0000BB
:107420001CB5044681786A460C4801F00FFD00281F
:1074300012D160781821484309491C2340181822AA
:10744000694601F0B7FD064806493C30807A800065
:107450000A582146684690471CBD00007C20002049
:1074600040260020509C010030B4002201290BD19D
:107470000B49C968002907D00A4B94001C59844263
:1074800004D0521C042AF8D330BC7047042AFBD223
:1074900003481030805C0028F6D030BC084700005C
:1074A00034200020109C010010B5024604280DD2A3
:1074B00007480069074C9200A45CC34301220020E6
:1074C000A2401A4000D001220A7010BD072010BD52
:1074D00000050050109C0100F0B500210F4D012760
:1074E0000F4A03231B048C002E593C468C40044257
:1074F00007D0B400A41826689E43266026681E4361
:1075000005E0B400A41826689E432660266826601D
:10751000491C0429E7D30020F0BD0000109C0100A5
:107520000007005002460020042A02D2024B995460
:1075300070470720704700004420002010B5054A1E
:107540000146127A0020520602D5084600F056F88D
:1075500010BD000034200020F8B506462148002464
:107560008660C26041600F46B0071DD500252846E1
:107570000B30C1B22846FFF7D5FF6D1C0446042D21
:1075800001D2002CF3D07A08002304211648FFF71B
:1075900007F9002803D000221146FFF739F9002C23
:1075A00002D1FFF7EFF80446700608D50F210F4807
:1075B0004904C1610E4981600022C2608161002CD2
:1075C0000ED108480B4A00211430FFF727FA0400B7
:1075D00006D10448084A01211830FFF71FFA044673
:1075E0002046F8BD34200020209C010000050050FA
:1075F0004000C001198901006D670100FEB57249A4
:1076000006464F684B690093BB00FB1800200193AE
:10761000402205466D4C3300FEF732FF180D121262
:10762000354655677C887F88919B9E9E9E9E9EBC1A
:10763000C0C5CAD0D011664AA260E5600D70FEBD1B
:1076400005208005A060E5606068624B58404006F8
:1076500009D5A260E560022E02D1E120C0000AE057
:107660007D20400107E0E260A560022E01D1C82024
:1076700001E0FF2091300E706421FEF757FD784342
:107680000022014642E005208005A060E5606068B8
:10769000504B5840400604D5A260E56019204001D7
:1076A000E9E7E260A560E2E705208005A060E5600B
:1076B0006068484B5840400602D5A260E560CFE7BD
:1076C000E260A560D5E705208005A060E560606800
:1076D000404B5840400602D5A260E56001E0E26000
:1076E000A5600E707900002210E005208005A060E2
:1076F000E5606068374B5840400602D5A260E560FF
:1077000001E0E260A5600E70002239460098FFF7A4
:1077100005FAFEBD05239B0542E06068012189054D
:107720000A468243A2600840E06010E061680120E0
:10773000800502468A43A2600140E160E4E7616897
:107740000120800502468A43A2600140E160019960
:10775000C9E72049E1601BE00F468869FFF720FA7E
:1077600011218A1B1C4E01D0002802D0A660E560C2
:10777000FEBD012A0BD91046C82148436421FEF7FB
:10778000D5FC796800224143B869FFF7C7F9E66084
:10779000A560FEBD0F4AA260E56012E007239B05CD
:1077A000A360E5600BE00D4AA260E560120406E00C
:1077B0000322D205A260E560094A00E0054AE260C2
:1077C000A5600E70FEBD00003420002000050050B2
:1077D000400040014000C0010000800040008001E6
:1077E0004000400010B50E4AD368002B0AD0CAB240
:1077F000017840689847002803D000221146FFF71F
:1078000007F810BD012906D00029FAD10378426893
:107810001846904710BD037801214268F8E7000040
:10782000E8200020FFB58FB01E4615460F0004D19A
:10783000002211461046FEF7EBFF002D04D1002276
:1078400011461046FEF7E4FF1C216846FEF7ABFC2C
:1078500068460178022001436846017000240194C3
:10786000039404940594012108A806948170684645
:107870000F99018407943178017771784177807F7F
:10788000F9210840F721801C0840EF2108404108F9
:10789000490068468177142109A8FEF784FC08A8EE
:1078A000099007A80A9068468585C485058604481E
:1078B0000D9709AA69460088189BA2DF13B0F0BD96
:1078C00084200020F8B5384914230A780F205A4341
:1078D00054183649227926698F88241D022A1BD024
:1078E00001252D07042A2AD0052A5BD1286981B2F7
:1078F0003046FEF71BFC0146A38828699A1980B21E
:107900004843101A820860881818861928694B1C89
:1079100080B25843801B34E0B80262882169121A91
:107920000918A3883018181801239B029A4202D222
:10793000920821DF31E0FF22013221DF2DE0A36830
:1079400019481901CC300818018942894068B042B1
:1079500003D160885143814218D0022B16D0286988
:1079600081B23046FEF7E2FB0146286980B2484307
:10797000301A820828694B1C80B2584363889B19CF
:10798000C01A8308204601F065FE06E0286981B22E
:107990003046FEF7CBFBC01920DF002802D1024998
:1079A00001228A70F8BD0000A8260020DC200020FB
:1079B00010B5064900204978002906D0FFF782FF5C
:1079C000002802D0112800D1002010BDA8260020D8
:1079D00014225043054A002180180171C180012200
:1079E0000161C2604161018170470000A82600204A
:1079F000F8B5124C069E65780A2D1DD027787D19A2
:107A0000EDB20A2D01D30A3DEDB214277D432D19A5
:107A100028716A6103C92961E860EB802E81A17831
:107A20000020002904D1FFF74DFF112800D10020CC
:107A30006178491C6170F8BD0420F8BDA8260020BB
:107A4000F8B5224801694A1C3DD02422514382687E
:107A500089184E681E494C6847690079E11B0D0280
:107A60002D0AED1C002814D101201A4A0004506090
:107A7000184A403A506018494000086017490860A9
:107A80001749012008602F20FEF724FB0F49012031
:107A90000871B54200D23546E81900020C49000AC7
:107AA000403108600A494968001B091B0902090A9C
:107AB0000002000AC91C814204D901200649400481
:107AC00080390860F8BD01F055FCF8BD1021002098
:107AD000001501404013014080E200E000E100E0B9
:107AE00000100140F8B50D4611780646881D144671
:107AF0001F2801D90C20F8BD33880720062BFAD3A4
:107B00001927FF01BB4202D9164A9342F3D172886A
:107B1000062AF0D3BA4202D9124FBA42EBD1114F22
:107B2000BB4203D0BA4201D09342E4D8481C05229C
:107B300020706A5420781222411C21702A54207827
:107B40004119308801F07CFF21784018C0B22070C4
:107B50004119708801F074FF2178401820700020CE
:107B6000F8BD0000FFFF000010B500221146FEF72F
:107B70004FFE10BDF8B5164800F096FE144D0026D5
:107B8000103D144C002807D0616900291BD001204A
:107B90006A461070684615E02878002805D06169AB
:107BA000002910D0684606700CE0687800280CD0D8
:107BB000A16800226868FEF7B1FF002803D0A16920
:107BC000002900D088472E70F8BD6168F1E70000F9
:107BD000642000206025002070B5094B04469E7A81
:107BE000082000250E4207D00648844202D018899A
:107BF000A04202D10020156070BD052070BD0000BC
:107C000070260020FFFF00000C214843064910B5F4
:107C1000012240188272911E0181FF21C172072149
:107C2000FEF7C1FA10BD000070260020F8B5184D0F
:107C300069466878FEF752FE00281DD12F460024C1
:107C40001437012615E06968E000401803783146D2
:107C50003A6899400A4210D04268002A0DD0417813
:107C6000012901D1002100E00121FFF7BBFD641CC7
:107C7000E4B228788442E6D3F8BD7A680A42F6D0A6
:107C800041680029F3D041780129EDD0EAE70000EE
:107C9000E8200020FEB50E46044681786A46234857
:107CA00001F0D4F8002827D160780C21204F4843F8
:107CB000C019807A800620D4022E1ED0012E1ED03C
:107CC0001C4DA0781C21484319490023F439411860
:107CD0001C226846A847002813D0022E0CD020781A
:107CE0000C21484312490C314018807A1249800017
:107CF0000A58214668469047FEBD104DE1E7104DF9
:107D0000DFE7022EF8D060780C214843C019817A51
:107D1000DF221140817260781821484304491C23F6
:107D20003039411818226846A847D8E77C2000203F
:107D30007026002051960100409C0100BD92010078
:107D40005591010070B50546114A124800241C23C4
:107D500063431B189B7EFF2B04D0641C072CF6D3B7
:107D6000104670BD0A78022A09D01C2262431018FE
:107D7000FD22827607221030FEF7EEF904E01C2186
:107D800061430818FE2181762C700022E8E700008C
:107D9000438000007C250020F7B505250F4F0646DF
:107DA0000024002E0AD01C206043C019072231464F
:107DB0001030FEF70AFA002807D00AE01C206043C2
:107DC000C019018B0298814203D1019800250460FB
:107DD00002E0641C072CE4D32846FEBD7C2500206D
:107DE00010B5100003D000221146FEF711FD00204F
:107DF00010BD00001FB501F091F8002803D000224B
:107E00001146FEF705FD03A90120FFF74DFB0028F1
:107E100003D000221146FEF7FBFC03A800F0D4F9C2
:107E2000002803D000221146FEF7F2FC01A806212B
:107E30000230FEF7B8F91E206946C880087A012290
:107E40001043E1210840DF210C30084069460872E8
:107E50000720487210208872064800900A71064870
:107E600000F0BAFA002803D000221146FEF7D0FC39
:107E70001FBD0000E17D010003200020F0B5054694
:107E800087B0FF24C3480594007800286BD0C24F08
:107E90003868002867D001A800F088F9002803D0CE
:107EA00000221146FEF7B4FC002006460690281D6D
:107EB0000390342168460182FF2181710021017104
:107EC0000091B54C28880C3C10280ED0A8886A4632
:107ED0000221FFF781FE002807D100980C214143C1
:107EE0000919CA7A69468A7148712888142876D097
:107EF0002DDC102839D0112873D0132833D16946CE
:107F000008723A1DA88800217FDF00282BD1009835
:107F10000C21414309198A7A04231A438A72C97AC7
:107F2000FF2913D016216A461172182148439A4935
:107F3000243940181421001DFEF735F900980C2152
:107F400048430019817A2022114381720FE11728DA
:107F50007ED0924918287CD0522804D1B87A80006B
:107F6000095801A8884707B0F0BD8D4F6A46012126
:107F70003846FFF731FE0028F5D100990C20484320
:107F800002220019827211236A4613725171A98864
:107F900001810722A91DFEF7DFF8687BC10707D022
:107FA00041087C480830405CFF2808D0059006E076
:107FB0003A4605A9A81DFFF7EFFE0028C6D1009993
:107FC0000C22514309190598C8728A7A08231A436A
:107FD0008A726946887101A8FFF722FAC7E024E097
:107FE000FFE700980C2148430119887AFD221040D0
:107FF0008872010706D540060DD5002101A8FFF7BC
:1080000049FE08E068468079FF2804D000F0B0FE01
:10801000FF206946887100990C22514310200919EC
:108020008872122069460872A1E000980C2148432A
:108030000019C07AFF281FD1EA8905A90020FFF79F
:10804000ABFE002811D100990C225143091901E01F
:108050001FE079E00598C8728A7A08231A438A7269
:108060006946887101A8FFF7DBF900980C214843A5
:108070000019C07AFF2807D00098182148434649C4
:108080003C394018001D0690A8880022069981DF1F
:1080900069E700980C21414309198A7AFB231A40A9
:1080A0008A7214216A461172A979002901D00E46FC
:1080B0005DE018214843384914223C394018E97AD8
:1080C0008170A97A417029460C31001DFEF744F8F1
:1080D00000980C2148430119887A420647D50822A6
:1080E00010438872CA7AFF2A04D020221043887273
:1080F000002125E005A8FFF725FE002801D006464F
:1081000035E069460598887100990C225143091998
:10811000C8721C22234F5043A989C0190183E97AF0
:1081200049070CD5294610222031FEF715F805988D
:108130001C214843C019817E4908490081760121EC
:1081400001A8FFF7A7FD12E000980C225043001988
:10815000827A40231A43827215206A461072B87AD6
:108160008000095801A88847002800D00E4E02A9B7
:10817000324601A8FEF758FB6846007A122887D1DC
:1081800000980C2141430919897A012980D0FFF711
:108190003BFDE8E66C2000207C260020609C01006E
:1081A000FFFF00007C25002041800000002806D051
:1081B000FF21017041708170C1700020704701483B
:1081C000704700000E800000F0B585B0040035D087
:1081D0000025284928460D608D72FFF715FD2548BA
:1081E00018212438FDF7DFFF0026FF27304600F076
:1081F000BFFD21488755761C072EF7D350216846CE
:1082000081800721C1801D481B49009008316846C4
:1082100000F022FF00280FD1174E0120083E3070D9
:10822000207800280CD069468888C988484381B2E4
:108230003046103000F034FE05B0F0BD1048FBE7CA
:10824000104F00240C48A1B202AA083000F0FEFD35
:10825000002809D11C206043C01900231C2202A958
:1082600000F0A8FE002801D03570E5E7641C072C5B
:10827000E8D3E1E77C2600207420002089820100F9
:108280000E8000007C250020FFB550488BB00068B0
:10829000149F1E46002869D0502F67D803A8FFF707
:1082A00085FF002803D000221146FEF7B1FA002511
:1082B0006846057305702C4604970596A1B208AA76
:1082C000434800F0C3FD002806D1082208A90B98F6
:1082D000FDF77BFF002817D0641C072CEED36846FF
:1082E000847BFF2C42D00C98042810D039481C21E4
:1082F000301AFDF71BFF0127072824D204A801909C
:108300000D98002811D017E068468473E7E7502FD6
:1083100009D040206946087068460178032001436F
:108320006846017047E02020F4E738462849A0401D
:1083300010394968084219D0204601F087FB2020F7
:10834000694608702EE0214818213C38301AFDF7A4
:10835000EDFE00280CD01D4C1821243C301BFDF7ED
:10836000E5FE002810D04020694608700FB0F0BD2F
:1083700004A801902020694608701C204443154839
:108380004D73201805900DE030216846017045734B
:10839000C7730E480C38807A800703D42046182112
:1083A000FDF701FF0C986946032808780BD00221DD
:1083B00008436946087004A80190694603A80D9A0D
:1083C000FEF732FAD2E73843F4E700007C260020BB
:1083D0007C2000207C25002070B5064611480D4603
:1083E000007800280ED01049002E0ED0002D0CD0A1
:1083F0002868002809D00D4C2168002907D00A48B8
:108400000A3870BD0848801F70BD084670BD2060E6
:108410000622A91D201DFDF79FFE2879A0720020CD
:10842000307070BD6C2000200E8000007C26002083
:1084300010B50E4900238A78CC78A24212D0521C83
:10844000D2B28A70022A00D18B708A78074B9200D0
:108450001C339A580260486910180002000A4861EB
:10846000012010BD0360002010BD0000102100207D
:10847000F7B5144C0025A76823691EE02421594351
:10848000C9194E68864202D9301A486017E0801B2D
:10849000751900264E600E750E699C460B6AB6462D
:1084A000002E0AD0019E76193602360A8E60764674
:1084B000CE6016680E6261461160591CDED12361E0
:1084C000FEBD0000102100200EB511206946087283
:1084D0000A2212A102A87CDF002803D00022114644
:1084E000FEF796F9104878DF002803D000221146E5
:1084F000FEF78EF90021FF20913000916A4601912C
:108500001080430053809180D08068467ADF002835
:1085100003D000221146FEF77BF90EBD4E6F726448
:1085200069635F48524D000041030000002070471E
:108530000020704700207047F8B540780D4C182394
:10854000434326460C270021E55818367843801906
:108550000A46002D07D0867A770604D5B60602D4DF
:108560001919AAB2091D0089A9DF002800D0024804
:10857000F8BD0000582600204180000070B50D466F
:10858000014668781822084C50430019342300F043
:1085900011FD002806D16978182251436258521CF7
:1085A00000D1625070BD000058260020F0B587B0A1
:1085B0000D46074614206946888268780C21484396
:1085C0001F4E05AA801900896946AADF002833D109
:1085D000687818214843741A001969468A8A001D70
:1085E000FDF7F3FD0028687806D01821484321588C
:1085F00000290DD0134E0CE00C2141438919897AD2
:10860000890719D4182148430019FDF7CCFD13E060
:108610000D4E69468A8A225068781821484300190D
:108620006946001DFDF798FD687818214843011937
:10863000342318223846B047002007B0F0BD0000B0
:1086400070260020BD9201005591010010B5FFF782
:1086500073FF10BD10B5FFF791FF10BD10B5FFF708
:10866000A5FF10BD70B5094D04460E462869FEF7FA
:1086700097FA002809D12846143006604460344334
:108680002246A9682869FEF749FA70BDE820002053
:1086900010B513491348FEF723FE124C81B2243C57
:1086A000A068401CA0600E486038FEF771FD0028ED
:1086B0000BD0082809D00C49884206D00B498842C3
:1086C00003D000221146FEF7A3F80321A068FDF7AE
:1086D0002DFD002901D0012000E00020207010BDF8
:1086E0004025002024200020043000000134000038
:1086F000F0B5002406460D46601C010795B0090F31
:1087000008A810310C940174297B4174817CF927ED
:108710003940891C81741C2105A8FDF744FD684679
:10872000017D10200143684601750CA806940A904B
:108730000894099401220B9408A882761749684688
:1087400001870D94697B08A80175A97B4175817D1E
:10875000F7203940891C0140EF200140114308A84F
:10876000817514216846FDF71EFD0EA800900DA826
:1087700001900FAA0021304600F012F80146684629
:1087800001811421448181810FA804903346F0882F
:1087900008336A4605A9A2DF15B0F0BD372A0000EC
:1087A000F7B542790025002A00D004252222135C67
:1087B0000222002B00D01543CBB2FF2907D901229A
:1087C0001543029A090A53709170032602E0029938
:1087D00002264B7004464034A189002901D01021A3
:1087E0000D43002716E0B11C142909D9A189C91B22
:1087F0004A007900091824302431FDF7ADFC0CE063
:10880000029B7A0012189B19928C1A70120A5A70E5
:10881000CEB27F1CA189B942E5DCA089C01BA08132
:10882000029805703046FEBDF8B51E4C2078002831
:1088300037D02069002807D00026E068002805D03E
:108840000025002E04D013E00126F6E70125F8E705
:10885000684651DF052806D0002806D000221146C0
:10886000FDF7D6FF04E0012602E021690098884761
:10887000002D12D1608869460880A06861DF052854
:1088800006D0002806D000221146FDF7C1FF04E003
:10889000012502E0E168A0688847002ED8D0002DAD
:1088A000CFD0F8BD3421002041880548028891428C
:1088B00004D34088814201D80120704700207047CE
:1088C0005C2000201048018CC9B2012917D1818C8D
:1088D000090714D1018D09060A0F03D1828D1206F2
:1088E000120F0ED0090F012903D1828D1206120F2B
:1088F00007D0032903D1808D0006000F01D000208E
:108900007047012070470000C00F00F0800701D0C1
:10891000002070470120704710B50448017A4906CD
:1089200002D50078FEF76AFE10BD0000342000205A
:10893000F8B5234801690091457833E02048E90003
:10894000C0680E1834782AE0182060437168641CEF
:108950000818B178E4B2A14200D1002401780229BC
:1089600002D003291BD113E0154A406824219268E4
:1089700041438F18397D002911D000F09FFF00205E
:1089800038750CE024277843C0180275006A03E0AC
:108990000B4900228B680869471CF3D10861707885
:1089A000A042D1D128466D1EEDB20028C6D10448A0
:1089B00001690098814201D00120F8BD0020F8BD76
:1089C00010210020F8B504463848002701690091BD
:1089D00046785CE03548F100C2688D1851E0601CB3
:1089E00007D0324A24209268604321468018046AE6
:1089F00024E02878182141436A68401CC0B252180C
:108A00002870A978884200D12F70284B5168242003
:108A10009B684843C0181378012B34D1037D002B89
:108A200031D193688360D368C3601369036152696D
:108A3000C2611E4A5279002A00D087601B4B8268AF
:108A40005B6996469C46D31A1A02194B120A9A423F
:108A500002D2C368D21808E0724663469A1A12021C
:108A6000C368120A934202D99A1A426000E0476032
:108A700087600122C7600275921E0262084600F0FC
:108A8000EBFE601CABD1287869788842A7D13046CC
:108A9000761EF6B200289DD10448016900988142F3
:108AA00001D00120F8BD0020F8BD000010210020F9
:108AB000FFFF7F0088B0FEF73DFC00F077FF2649FE
:108AC0000120FDF7D9FE002803D000221146FDF752
:108AD0009FFE002221494220FEF73EFD002803D0E0
:108AE00000221146FDF794FEFFF784F9FFF7ECFC36
:108AF000FDF7DEFD00F0FCFC00F08EFC1C2168465A
:108B0000FDF751FB0521C90301910F210904002044
:108B100002910090032269460A730F4940318A8905
:108B20006946CA8108740E4805900E48069068464A
:108B3000FEF706FA002803D000221146FDF768FE72
:108B4000FEF75AF8FDF7EAFD40DF0028FCD00022CE
:108B50001146FDF75DFEF7E7A0240020CD0C0000D4
:108B6000C58C0100697B010070B5054600790E4691
:108B7000801C1446C0B21178821C8A181F2A01D9A1
:108B80000C2070BD0A46491C2170401CB05420784E
:108B9000FF22411C2170325420788119288800F06E
:108BA0004FFF21784018C0B22070AA88002A09D04F
:108BB000A968002908D08019FDF7CEFA2078297914
:108BC00040182070002070BD072070BDF8B51478E3
:108BD0000746A01C15460E461F2803D87878801C2F
:108BE0001F2801D90C20F8BD1D20001B80B269464A
:108BF000864608803019801C7DDF0028F3D1387844
:108C0000022805D168460088704501D8092107E08F
:108C100078780821002801D0704501D9684600887D
:108C2000421C3255641CE2B2B1542978801C0818E9
:108C300028700020F8BD00207047002070470020F9
:108C40007047000010B50446008810281FD0112876
:108C50002AD019281AD1A079002817D1FEF76EFC66
:108C6000002803D000221146FDF7D2FD0320FEF7B5
:108C700033FC002803D000221146FDF7C9FD34DF84
:108C8000002803D000221146FDF7C2FD10BD0720C9
:108C9000FEF754FC002803D000221146FDF7B8FD72
:108CA0000749A088888010BD0020FEF747FC0028F7
:108CB00003D000221146FDF7ABFDFDF72FFD10BDDF
:108CC0000020002010B50078002809D105483B217C
:108CD000808876DF002803D000221146FDF798FD3A
:108CE00010BD00000020002010B51D4A1D490300E2
:108CF000FDF7C6FB05040B31202712004878012838
:108D00001FD0022808D1032005E04878002804D0AD
:108D1000032801D10220487010BD134B04201860B5
:108D2000124B01201860D36892689342F3D0FDF78C
:108D3000C3FB10BD4878012806D0022804D00328C0
:108D4000F7D1FDF7F1FB10BDD06891688842EED1F4
:108D5000FDF7D8FB10BD48780128E8D010BD000011
:108D600098260020D0200020002500400020004050
:108D700070B505461C200B49684344182046113045
:108D80000621FDF710FA20461021FDF70CFAFF210D
:108D900021740020A176C0432083284600F056FEAF
:108DA00070BD00007C250020F0B50C4A00215368FE
:108DB0001422504301240A4D03273F041E58224623
:108DC0008A40164206D08A0052191668BE431660C1
:108DD00016681660491C2029F0D3F0BD042100203C
:108DE0000007005070B50D00044604D10022114662
:108DF0001046FDF70DFD002C04D10022114610464F
:108E0000FDF706FD2878207069886170090AA17055
:108E1000A988E170090A2171E8886071000AA071CF
:108E200070BD000007490978002906D0002806D047
:108E300005494978016000207047082070470E20DE
:108E400070470000DC200020A826002030B5124B1F
:108E50001B78002B07D0002807D0002A05D0046813
:108E6000002C12D103E0082030BD0E2030BD0B4B8A
:108E70001D68002D09D045681889414369185D892E
:108E8000454358682818884201D8072030BD14602F
:108E90000020516030BD0000DC200020742700203D
:108EA000F8B505461B480F460078002805D0002D70
:108EB00005D02868002820D103E00820F8BD0E2046
:108EC000F8BD154C00262068002816D0608921893D
:108ED000484361684118686881420ED9FFF716FD62
:108EE00000280CD029686868090109194A680989AD
:108EF000801AFDF71BF9002903D00720F8BD1020C8
:108F0000F8BD3B460022294604200096FEF770FD7E
:108F1000F8BD0000DC20002074270020F8B50026F2
:108F2000214C2248A68066700670467086703546D1
:108F30002846FEF74DFD6D1C0A2DF9D31C4F6680A7
:108F400078693D04401C05D0286981B27869FDF735
:108F5000EDF800E068692969801E89B24843A06085
:108F60001248A680CC3006600681868146810820A2
:108F700060707869401C05D0286981B27869FDF776
:108F8000D5F800E068692969401E89B2484329691B
:108F900089B2FDF7CBF820DF002803D1034A012175
:108FA00091702170F8BD0000DC200020A826002070
:108FB00000100010FFB5264881B000781F46164605
:108FC0000D46002808D0002D09D00198002806D0B1
:108FD0002868002818D104E0082005B0F0BD0E2054
:108FE000FBE71C4C206800280ED06189208962684C
:108FF000414389186A68914206D9002E04D0B042D4
:1090000002D3F119814201D90720E6E70198FFF761
:109010007DFC00281AD03846FFF778FC002815D0D0
:109020006868FFF773FC002810D068683246C119E1
:109030000198FDF791F80096286800220001245855
:1090400003212846019BA0470020C6E71020C4E763
:10905000DC20002074270020F8B504463A480F466B
:10906000007800281DD0002C1DD0002F1BD02068B8
:10907000002818D001252D07A688286980B28642CD
:1090800030D8102E2ED3E088009000282AD02F4808
:109090004169491C09D02969406989B2FDF746F840
:1090A00004E00820F8BD0E20F8BD68692969401E5B
:1090B00089B24843244B00999D6871434B199842EB
:1090C00010D301200007006980B2814208DD012031
:1090D00000070069314680B2FDF728F8002901D168
:1090E000B00701D00720F8BD17484288012A1AD0DE
:1090F000174824C711010E18756023684350A088D3
:109100003081E0887081A088E188002348430121F4
:1091100009075B1C0C699BB2A4B2844205D20C699E
:10912000A4B2001B02E00420F8BD00200C69A4B228
:1091300065190C69A4B28442EBD90348521C8560BE
:10914000B38142800020F8BDDC2000200010001018
:1091500074270020F8B5044620481E4600781546BE
:109160000F46002807D0002F07D0002C05D020681C
:10917000002817D103E00820F8BD0E20F8BD1848DC
:10918000016800290ED04289018940684A431018BD
:109190006268904206D9002D04D0A94202D3A819D2
:1091A000884201D90720F8BD3846FFF7AFFB0028F9
:1091B00011D03046FFF7AAFB00280CD06068FFF7FB
:1091C000A5FB002807D02B463A46214602200096F0
:1091D000FEF70EFCF8BD1020F8BD0000DC200020DA
:1091E00074270020F8B5334B9978012914D1002554
:1091F00031499D704A78082A05D002280FD00328EB
:109200000AD10D2006E0022807D00D70FEF7D0FB32
:10921000002801D0FDF7ECFBF8BD4D70F6E72548BE
:10922000142403782449634318188B885B1C9CB270
:109230008C800379001D022B05D14688A102B14222
:1092400001D3012700E00027052B01D1072A03D015
:109250000021042B02D003E00121FAE7072A03D002
:109260000026042B02D007E00126FAE74088A3027B
:10927000834201D3002A1AD00020314301433943ED
:10928000C4D00D4E28467570FDF7B2FB094C20780E
:10929000FEF79EFBB5806078401E60702078401C11
:1092A000C0B220700A28B1D30A382070AEE701207E
:1092B000E3E70000A8260020DC200020F8B50446E3
:1092C00020481E46007815460F46002807D0002F7C
:1092D00007D0002C05D02068002817D103E0082013
:1092E000F8BD0E20F8BD1848016800290ED042894B
:1092F000018940684A4310186268904206D9002DDF
:1093000004D0A94202D3A819884201D90720F8BD88
:109310003846FFF7FBFA002811D03046FFF7F6FA7F
:1093200000280CD06068FFF7F1FA002807D02B4620
:109330003A46214605200096FEF75AFBF8BD10205C
:10934000F8BD0000DC2000207427002010B507487D
:109350000078002809D0054805492C30FDF7C0FFEA
:1093600081B203487038FDF795FF10BD0020002042
:109370005025002070B501240B49600408600B499A
:1093800040108860094940398860094D6C602F2081
:10939000FCF7A0FEAC60074D00242F206C61FCF7A9
:1093A00099FE2C7170BD000080E100E04013014087
:1093B0000010014010210020F0B5002201230326F7
:1093C00036041F469740394212D0C5683D4203D14A
:1093D000012464043D4301E03446BD43C560064DAD
:1093E00097007D192F68B7432F602F6827432F60A0
:1093F000521C202AE5D3F0BD0007005010B50448E8
:1094000001228178514081700248FDF75AFF10BD5A
:1094100000200020E024002070B5144801245121D0
:109420006425846022C0047110491148FDF74CFF87
:109430000E488C2110300160FF212D3141600A213E
:10944000816000260673014609480830FDF73CFF9D
:109450000648FF2120300560F531846041600673C5
:10946000014603481030FDF72FFF70BD3025002066
:109470001C200020F7B582B002981446006B0F46FE
:10948000002833D0029800252030009028E0029870
:10949000016B0C2068430E18217830794A1C227029
:1094A000C01C785420781622411C21703A54207830
:1094B000C119308800F0C4FA21784018C0B2207079
:1094C000B288002A09D0B16800290FD0C019FCF772
:1094D00043FE20783179401820706D1C0098EDB261
:1094E000007DA842D3D8002005B0F0BD0720FBE7DF
:1094F00030B59BB0032118A80172142110A8FCF705
:1095000052FE0024012510A8109405711AA812908B
:10951000601C0107090F10A8103101734473847394
:10952000601C0107090F10A81031C173002001460B
:1095300010A8017401462748FDF756FE002803D005
:1095400000221146FDF764F9142115A8FCF72BFE43
:109550000120014618A8103141700120014618A8C9
:10956000103181700020014618A8C1700120014609
:1095700018A81031017110A815940576642118A857
:1095800017940170134815A91838FDF78FFC0028AF
:1095900003D000221146FDF73BF940216846FCF755
:1095A00002FE0DA16846FDF7B6FE0120014608A89F
:1095B000103101770020014608A841776846FDF781
:1095C00031FD002803D000221146FDF721F91BB020
:1095D00030BD0000E02400204E6F72646963536563
:1095E0006D69636F6E647563746F720010B50846C1
:1095F0001146C046C04610BD002803D00249C860CD
:10960000002070470E2070473421002070B50029DB
:1096100001D08C0701D0072070BD064C0125A16048
:1096200062800549636010DF0028F5D1257016209F
:1096300026DF70BD34210020ED950100002803D005
:1096400002490861002070470E2070473421002035
:1096500000207047FFB583B00F46594D069A059913
:1096600006466B78114303200191002B03D100299A
:109670000FD001216970059A6978012492002407AE
:1096800000920B00FCF7FCFE073207213454748370
:1096900032000221EEE74B484169491C05D021699F
:1096A000406989B2FCF742FD00E060692169401E13
:1096B00089B24843216909048A0C216989B2794336
:1096C00021DF002812D102210FE0384620DF0028D8
:1096D0000CD10599002901D0032106E00699002943
:1096E0001FD13178042968D020E0697007B0F0BD3F
:1096F00034484169491C05D02169406989B2FCF7A9
:1097000015FD00E060692169401E89B2414320696E
:10971000059A80B2784321DF0028E7D10699002915
:1097200001D00421E1E7317804292ED00521DCE7BE
:1097300024484169491C05D02169406989B2FCF778
:10974000F5FC00E060692169401E89B248437188D8
:10975000421800981018226992B27A435218009960
:10976000531801461846069A21DF0028DBD0BDE7D2
:109770002069718880B2784380188A08316921DFB6
:109780000028B3D10199002917D00621ADE70D4873
:109790004169491C05D02169406989B2FCF7C6FCC2
:1097A00000E060692169401E89B24843216989B29D
:1097B000FCF7BCFC20DF002898D1072195E70000CA
:1097C000DC2000200010001010B50446FFF70AFD51
:1097D000022C01D0032C07D104484178002903D082
:1097E00000214170FCF79AFF10BD0000002000200E
:1097F00070B50C00054604D1002211461046FDF755
:1098000007F8002D04D1002211461046FDF700F89C
:10981000207828702088FF2109020840000A68701B
:10982000206809020840000CA8702068000EE8704B
:1098300020792871207A68712089000AA871A068AF
:10984000000CE87170BD00000120024900050860AD
:109850007047000000E200E0F0B5174F2421BC681B
:1098600041430D1939694A1C09D024224A4316196B
:109870006B687268934204D8D21A726029623861A8
:10988000F0BD0A4602E00A46396A9B1B4E1C0BD00B
:1098900024264E4337197E689E42F4D324264E4335
:1098A00036197768FF1A77606B60296224214A4372
:1098B00011190862F0BD00001021002070B5194C8C
:1098C0002269A5681346114606E0814207D00A4680
:1098D000242671434919096A4E1CF6D170BD002E29
:1098E000FCD08A420CD1242043435819006A2061DD
:1098F000401C05D10C4B012098600023636160710E
:10990000242041434819242341685A43006A5219CC
:109910001062421CE2D02422504340194268511880
:10992000416070BD1021002000100140F8B51D4CB1
:109930002569681C35D01C48002640686169401ABA
:1099400007023F0A19E024204543A0682A185068FE
:10995000B84214D8A3693F1A8619156A002B09D09A
:10996000D16990699847002807D000221146FCF77A
:109970004FFF02E09169D0698847681CE3D1A17864
:10998000E078814206D1401CC0B2E070022801D1CB
:109990000020E07003490006800D1C310E50FFF7D7
:1099A00053FFF8BD102100200015014008B500202C
:1099B0001D4B052208210090FDF756F8002803D022
:1099C00000221146FCF724FF184A01211848FDF730
:1099D00025F8002803D000221146FCF719FF14488F
:1099E000144A0121001DFDF719F8002803D00022B8
:1099F0001146FCF70DFF0E480F4A01210830FDF714
:109A00000DF8002803D000221146FCF701FF08489A
:109A10000A4A01210C30FDF701F8002803D000228A
:109A20001146FCF7F5FE08BD482100209D6D0100A0
:109A30000C200020918601004D930100FD93010050
:109A40000870000A48700220704700000121814020
:109A5000024842688A434260704700006C20002040
:109A600038B51549154A488890420FD04A78144CA9
:109A7000521CD2B24A70237B934208D3083175DF5F
:109A8000002803D0A169002900D0884738BD0025EF
:109A90004D70217C002907D03B2176DF002803D0C0
:109AA000A169002900D0884761690029EED0684685
:109AB0000570884738BD000054200020FFFF0000DB
:109AC0006025002012494868C005C00D19D0103823
:109AD00040B2002807DA0207120F083A92089200F3
:109AE0005118C96904E081080A4A8900891809687F
:109AF0008007C00EC1400806800F012803D003284C
:109B000003D00220704700207047012070470000FA
:109B100000ED00E000E400E042788378521C9342BC
:109B200000D100220378934201D1002070470A60DF
:109B3000416840781822504308187047F8B5154618
:109B4000069C1E4607460222009400F00AF80028F0
:109B500006D13346102229463846009400F001F819
:109B6000F8BDFFB583B0074600200C9C86462678DA
:109B700005463AE07868A90041180A88684682805C
:109B80004988C1800022694601A865DF002810D1FC
:109B9000684601780598814226D17046002801D098
:109BA000002200E002222078891841181F2902D9DA
:109BB0000C2007B0F0BD7146002908D1401CC0B28E
:109BC000411C069B049A21701A5401208646217874
:109BD00006980A18694601A865DF0028E9D1694698
:109BE00020780978401820706D1C3888A842C1DCA4
:109BF0007046002804D020780699801B401E8855A6
:109C00000020D6E70D1801000F1801000A18010006
:109C10000500000012000000130000001400000006
:109C2000050003006974010012000300697401005B
:109C3000130003006974010014000300697401003B
:109C40003F8C0100AD850100358501005D86010076
:109C50003B8C01007D8501003185010055860100A6
:109C6000378C0100398501002D8501004D860100EA
:109C7000909C0100002000204801000008620100C3
:109C8000A09C010048210020400E0000AA640100B1
:109C90004201034CFFFF037E24F402780100000020
:04000005000160C1D5
:00000001FF
