:020000040001F9
:10600000802C0020F56001000F610100116101008A
:106010000000000000000000000000000000000080
:1060200000000000000000000000000013610100FB
:106030000000000000000000156101001761010070
:106040001961010019610100196101001961010064
:106050001961010000000000C56101001961010023
:106060001961010019610100196101001961010044
:106070001961010019610100196101001961010034
:1060800019610100956201001961010019610100A7
:10609000B562010019610100096301001961010085
:1060A00019610100196101000000000000000000FA
:1060B00000000000000000000000000000000000E0
:1060C0000348854600F06CF800480047CD75010094
:1060D000802C0020401E00BF00BF00BF00BF00BFDB
:1060E00000BF00BF00BF00BF00BF00BF00BFF1D1B5
:1060F000704700000321094802680A43026008480B
:1061000002680A4302600748804707480047FEE7E5
:10611000FEE7FEE7FEE7FEE7FEE70000240500409D
:10612000540500402D630100C160010030B50B46ED
:10613000014600202022012409E00D46D5409D4261
:1061400005D31D469540491B2546954040191546E7
:10615000521E002DF1DC30BD03460B439B0703D0DC
:1061600009E008C9121F08C0042AFAD203E00B781C
:106170000370401C491C521EF9D27047D2B201E094
:106180000270401C491EFBD270470022F6E710B592
:1061900013460A4604461946FFF7F0FF204610BD95
:1061A000064C0125064E05E0E36807CC2B430C3C6A
:1061B00098471034B442F7D3FFF786FF207E0100E2
:1061C000407E0100F8B51F4805691F490020C863DB
:1061D000074632E014213A464A4341688068541821
:1061E0000121B940014226D0E068C64320686E40D4
:1061F00006403146204601F0DBFB1248006968404A
:106200000CD00543E0682168C0436840084001465F
:106210000090204601F0CCFB009806433046A16870
:10622000A84301402A4660683240104002460A43B3
:1062300001D0226990477F1CFFB2044841788F4209
:10624000C8D3F8BD00050050406100405C2000202C
:106250008307FF22DB0E9A408907090E9940002828
:106260000BDA0007000F0838830808489B0018184D
:10627000C36993430B43C3617047830804489B0081
:106280001B181868904308431860704700ED00E041
:1062900000E400E010B5064900200860486088600E
:1062A000C860034940390860486001F087FC10BDB0
:1062B00040110140FEB50020C043124D02906869B4
:1062C000019068462E6900F0DFFF074601F0BCF838
:1062D0000446002F08D002AA0199009800F0F4FFAC
:1062E000029801F0FBF806E0029801F0F7F80028A8
:1062F00001D1002C02D0304600F0C6FE00206871AB
:10630000FEBD00007820002010B507484068002836
:1063100007D08047002803D00022114600F074F90E
:1063200010BD01F013F810BD9C20002010B501F045
:106330005BF8002805D00E490C484860C8130D4989
:1063400088610D48018CC9B201290ED1818C0907E1
:106350000BD1018D0906090F042906D1808D000695
:10636000000F02D105490120886010BDDFFF07C082
:1063700000050040006C0040C00F00F00006004027
:1063800030B47446641E2578641CAB4200D21D46AE
:10639000635D5B00E31830BC184702E008C8121FB9
:1063A00008C1002AFAD170477047002001E001C1FE
:1063B000121F002AFBD17047F7B582B000260546B0
:1063C000167000781446002805D02846039901F07D
:1063D000E9F906002DD1A87800281BD02078039F6A
:1063E000001D1F2824D8684679DF002821D1217894
:1063F0000322481C20707A5421781922481C2070EE
:106400007A542078C1196846008801F017FC217879
:1064100040182070A988002923D001208446AA684A
:106420000398002A07D0227853189B1C1F2B04D9ED
:106430000C2005B0F0BD0720FBE71346521C22706C
:10644000491CC15422786746511C21708754237817
:10645000AA881818A968FFF77FFE207829794018C4
:106460002070E868002815D00021415622788C461B
:10647000D01C03991F28DBD8501C022320708B549A
:1064800022780A23501C20708B5420786246431CCB
:1064900023700A54288A002809D02846009406222E
:1064A00002211030039B01F03DFC0600C1D1288B76
:1064B000002809D028460094072203211830039BA6
:1064C00001F030FC0600B4D1288C2F46203700287C
:1064D00008D00094152214213846039B01F022FCB9
:1064E0000600A6D1A86A002805D02246039900F02C
:1064F0001DFE06009DD1E86A002805D022460399BA
:1065000001F01EF9060094D1387D002806D02246FD
:106510002846039901F06EFA06008AD1304688E7D2
:1065200000B585B014216846FFF72FFE00206946AC
:1065300008700190087240200882B42048826846A2
:1065400073DF002803D00022114600F05DF802201E
:1065500000F024FC002803D00022114600F054F87B
:1065600005B000BD044842680121C9050B469343AC
:1065700083600A40C26070470005005010B50548AE
:106580004168002903D0407800F096F810BD08203B
:1065900010BD000040200020F8B50C46052A01D2AD
:1065A0000720F8BD1449154D48600C70CB608A6017
:1065B000002101230BE0E200121816789778B6004C
:1065C000BF007619376016781A46B240114322464A
:1065D000641EE4B2002AEED10748094B0A46401C6B
:1065E00000F0B4F80028DCD10348064A002110303E
:1065F00000F09AF9F8BD000040200020000700508C
:106600002173010021720100BFF34F8F034902483B
:10661000C860BFF34F8FFEE70400FA0500ED00E00D
:1066200010B5002903D08A070024002A01D00720D2
:1066300010BD0F4A0B465160107014215470414335
:1066400018469460FFF7A1FD00200A49C043886006
:10665000094840210160094A1068FF231B04984340
:106660000B041843106006480160002010BD0000B4
:106670005C2000200063004080E200E004E400E0D1
:1066800000E100E00A4B5A68002A04D05B78984287
:1066900003D30720704708207047142358438018FD
:1066A000044A12690068024000200A607047000036
:1066B0005C20002000050050F0B51F4A51680029F9
:1066C00004D05378984203D30720F0BD0820F0BDD2
:1066D0001A4B0025DD631A4B1C699768002F02D105
:1066E000184EDB057360012686403E4396601422F7
:1066F00050434218D560002201230D5893401D429B
:1067000015D01C4202D003252D0405E001256D049F
:106710004618F7681F43F7600B4B9600F3181E6886
:1067200003273F04BE431E601E682E431E60521C9A
:10673000202AE1D30020F0BD5C2000204061004011
:10674000000500500063004000070050F8B5114FED
:1067500084467D68002D07D0002B07D078783C78E0
:10676000A04205D30420F8BD0820F8BD0720F8BDDD
:106770000E461424164344432E5164192361A2602B
:10678000616061460870411C797001F0BDF800201D
:10679000F8BD00005C20002070B50F4B05245D782B
:1067A0001E78B54215D01D781C789E88B44201DA57
:1067B000641C00E000241C705C88DE686C43A41933
:1067C00004609B68E800C418A4880C801858002452
:1067D0001060204670BD000068200020F7B53B4CDB
:1067E00082B060880F4681426ED8002069460870EA
:1067F0003849374E4868C005C00D18D0103840B22F
:10680000002807DA0207120F083A9208920051187E
:10681000C96904E08108304A89008918096880073D
:10682000C00EC1400806850F012D01D10AE00425E4
:1068300068462EDF02280BD0002803D00022114624
:10684000FFF7E2FE6178A088814203D2491C02E092
:1068500072B6F7E700212278C9B2914207D0667874
:106860006178814201DA491C00E000216170012D4C
:106870000BD062B6684600782FDF022805D00028CA
:1068800003D000221146FFF7BFFE1148864219D0FF
:10689000A068F50004994151029900290CD0002FFD
:1068A0000AD060883A464643E0683018FFF754FC47
:1068B000A0682818878002E0002128188180002025
:1068C00005B0F0BD0420FBE70920F9E768200020AF
:1068D000FFFF000000ED00E000E400E00EB504E082
:1068E00068468188029A0098904702AA01A96846E2
:1068F000FFF752FF0028F3D00EBD000030B5CB00EB
:1069000008339DB293070024002B01D0072030BD2F
:10691000044B9A605219DA605C701C705880998040
:10692000002030BD6820002070B5114CA568002DF6
:1069300006D0002A06D0002804D00023247809E0DD
:10694000082070BD072070BD24265E43AE5D002E7A
:1069500004D05B1CA342F7DB042070BD2424012675
:106960005C432E5564196170A2610360002070BD04
:106970007820002010B50446082904D000221146D2
:106980001046FFF741FE21686068884710BD00008F
:106990001CB501910090034A08216846FFF71EFFCD
:1069A0001CBD000075690100FFB59807002481B087
:1069B0001E4615460F4600280BD1002E09D000F0C8
:1069C000C1FF22490A9888610F70324600208E600C
:1069D00008E0072005B0F0BD24234343D4549B189E
:1069E0001C75401CB842F7DB24204743BB19032029
:1069F00048700F461846CB601946183000221823FD
:106A00002E465E43D3005B181C705C709D7058600E
:106A10003018521C032AF5DB0020C0433861BC70DB
:106A2000FC7001240A482405046003211420FFF7A8
:106A30000FFC08480460084C0198A0600321112055
:106A4000FFF706FC606878610020C3E7782000202B
:106A500080E200E000E100E000150140FEB50446E0
:106A60001D48174682680D46002A0CD001788C42DA
:106A700001D2052D01D20720FEBD21462423594312
:106A8000535C012B01D00820FEBD881840780128F6
:106A90001DD0002601F00AF9C0000F490190C96815
:106AA0004018694601F02CF9002812D0012101702C
:106AB0000A49446049680830E2C007490198C9683A
:106AC00041180098487001F007F80020FEBD2E46DE
:106AD000E0E70420FEBD0000782000200015014002
:106AE000F8B5144D0446A868002809D029788C42CE
:106AF00001D30720F8BD24216143405C012801D067
:106B00000820F8BD01F0D2F8C600E86869463018E0
:106B100001F0F6F800280AD0022101704460E8680C
:106B200031180098487000F0D7FF0020F8BD04200D
:106B3000F8BD00007820002070B50D4692B000210D
:106B40006A46117007241171002812D0818800292B
:106B500005D08168002902D00978490702D420466F
:106B600012B070BD02A9FFF727FC0028F8D102AED1
:106B700000E00026002D0BD0A8880028EFD101AA44
:106B80000AA92846FFF718FC0028E9D10AAA00E064
:106B90000022684603790178304672DFE0E70000A2
:106BA00070B5054601461C220F48FFF7D5FA0F4C79
:106BB000002626702968002907D00822A018FFF7B0
:106BC000CBFA204608307ADF02E0084808307BDF45
:106BD000002808D1401E608004486670044A0021E5
:106BE000001DFFF7A1FE70BD6024002028200020BA
:106BF000497C0100F8B5224C028800271F4DE68928
:106C0000102A16D029464968112A21D0122A2DD0DF
:106C1000502A1CD1C288801DB24218D1028B022A90
:106C200015D1C27E837E10021843C007C00F0CD15D
:106C300012E0818869800146104808220E31103028
:106C4000FFF78AFA6F70002E01D100F0B7FAF8BD95
:106C50000020C04368806F700846FFF741FF00289E
:106C6000F5D0A1690029F2D08847F8BD811D0348FD
:106C700008221030FFF770FAE7E700002820002014
:106C80006024002010B5044600F0C2FD2046FFF746
:106C9000B1FF10BD08B5002350221449082000F0B0
:106CA000F7FE002803D000221146FFF7ADFC0020BC
:106CB000694600900870684660DF002803D0002213
:106CC0001146FFF7A1FC0A4800F0D8FE002803D0C7
:106CD00000221146FFF798FC064800F0F1FE00285C
:106CE00003D000221146FFF78FFC08BD4C23002083
:106CF000856C0100D57A010030B4002201290BD146
:106D00000B49C968002907D00A4B94001C598442DA
:106D100004D0521C042AF8D330BC7047042AFBD29A
:106D200003481030805C0028F6D030BC08470000D3
:106D300008200020F07D0100F0B500210F4D012753
:106D40000F4A03231B048C002E593C468C400442FE
:106D500007D0B400A41826689E43266026681E4308
:106D600005E0B400A41826689E43266026682660C5
:106D7000491C0429E7D30020F0BD0000F07D01008C
:106D80000007005002460020042A02D2024B995408
:106D900070470720704700001820002010B5054AF2
:106DA0000146127A0020D20702D0084600F054F8BB
:106DB00010BD000008200020F8B506462148002438
:106DC0008660C26041600F46B0071DD50025284689
:106DD0000B30C1B22846FFF7D5FF6D1C0446042DC9
:106DE00001D2002CF3D07A08002304211648FFF7C3
:106DF000D3FB002803D000221146FFF705FC002C2E
:106E000002D1FFF7BBFB0446F00708D00F210F4863
:106E10004904C161090181600022C2608161002CC6
:106E20000ED108480A4A00211430FFF77DFD040006
:106E300006D10448074A01211830FFF775FD0446C2
:106E40002046F8BD08200020007E0100000500500B
:106E50003174010065650100FEB5784906464F684A
:106E60004B690093BB00FB180020012201935205DF
:106E70000546734C3300FFF783FA180D1313374997
:106E8000596C828E858E97A1A5A5A5A5A5C3C8CD51
:106E9000D4DADA120B225205A260E5600D70FEBD55
:106EA00005208005A060E56060680F235B05584001
:106EB000800209D5A260E560022E02D1E120C00067
:106EC0000AE07D20400107E0E260A560022E01D1CA
:106ED000C82001E0FF2091300E706421FFF726F9F1
:106EE00078430022014646E005208005A060E56069
:106EF00060680F235B055840800204D5A260E560FE
:106F000019204001E8E7E260A560E1E7052080057F
:106F1000A060E56060680F235B055840800202D5E1
:106F2000A260E560CDE7E260A560D3E705208005BB
:106F3000A060E56060680F235B055840800202D5C1
:106F4000A260E56001E0E260A5600E7079000022B9
:106F500011E005208005A060E56060680F235B05F7
:106F60005840800202D5A260E56001E0E260A560C1
:106F70000E70002239460098FFF770FDFEBD052314
:106F80009B0544E06068012189050A468243A260AE
:106F90000840E06010E061680120800502468A43F5
:106FA000A2600140E160E4E76168012080050246DB
:106FB0008A43A2600140E1600199C8E70F214905B9
:106FC000E1601BE00F468869FFF78AFD11218A1BEB
:106FD0001C4E01D0002802D0A660E560FEBD012A4B
:106FE0000BD91046C82148436421FFF79FF8796800
:106FF00000224143B869FFF731FDE660A560FEBDA0
:107000000F225205A260E56015E007239B05A360EF
:10701000E5600EE00D225205A260E56001229205B6
:1070200007E00322D205A260E560921001E00F2282
:107030005205E260A5600E70FEBD00000820002031
:10704000000500500000800010B50E4AD368002BE8
:107050000AD0CAB2017840689847002803D00022BD
:107060001146FFF7D1FA10BD012906D00029FAD147
:10707000037842681846904710BD037801214268A2
:10708000F8E7000040200020F8B5224801694A1CBA
:107090003DD024225143826889184E681E494C68AD
:1070A00047690079E11B0D022D0AED1C002814D15F
:1070B00001201A4A00045060184A403A50601849AA
:1070C00040000860174908601749012008602F2018
:1070D000FFF700F80F4901200871B54200D235468C
:1070E000E81900020C49000A403108600A49496861
:1070F000001B091B0902090A0002000AC91C81427F
:1071000004D901200649400480390860F8BD00F028
:1071100019FCF8BD78200020001501404013014003
:1071200080E200E000E100E000100140F8B50D460B
:1071300011780646881D14461F2801D90C20F8BD79
:1071400033880720062BFAD31927FF01BB4202D947
:10715000164A9342F3D17288062AF0D3BA4202D972
:10716000124FBA42EBD1114FBB4203D0BA4201D009
:107170009342E4D8481C052220706A5420781222D9
:10718000411C21702A5420784119308800F056FDA6
:1071900021784018C0B220704119708800F04EFD6F
:1071A0002178401820700020F8BD0000FFFF00008B
:1071B00010B500221146FFF727FA10BDF8B51648A2
:1071C00000F004F9144D0026103D144C002807D09F
:1071D000616900291BD001206A461070684615E0DD
:1071E0002878002805D06169002910D0684606700B
:1071F0000CE0687800280CD0A16800226868FFF7CE
:107200002DFC002803D0A169002900D088472E70EA
:10721000F8BD6168F1E700003820002060240020FC
:10722000F8B5184D69466878FFF72CFA00281DD18B
:107230002F4600241437012615E06968E000401845
:10724000037831463A6899400A4210D04268002AD1
:107250000DD04178012901D1002100E00121FFF783
:10726000F3FE641CE4B228788442E6D3F8BD7A6861
:107270000A42F6D041680029F3D041780129EDD0C7
:10728000EAE700004020002010B50E4900238A786C
:10729000CC78A24212D0521CD2B28A70022A00D1FB
:1072A0008B708A78074B92001C339A5802604869A9
:1072B00010180002000A4861012010BD0360002080
:1072C00010BD000078200020F7B5144C0025A768F9
:1072D00023691EE024215943C9194E68864202D908
:1072E000301A486017E0801B751900264E600E7535
:1072F0000E699C460B6AB646002E0AD0019E76198E
:107300003602360A8E607646CE6016680E62614698
:107310001160591CDED12361FEBD000078200020E1
:1073200070B5094D04460E462869FFF7D9FB0028C1
:1073300009D1284614300660446034432246A968C7
:107340002869FFF78BFB70BD40200020F8B51E4C6C
:107350002078002837D02069002807D00026E06870
:10736000002805D00025002E04D013E00126F6E702
:107370000125F8E7684651DF052806D0002806D029
:1073800000221146FFF740F904E0012602E02169DE
:1073900000988847002D12D1608869460880A0684F
:1073A00061DF052806D0002806D000221146FFF72D
:1073B0002BF904E0012502E0E168A0688847002E6F
:1073C000D8D0002DCFD0F8BD9C20002041880548A2
:1073D0000288914204D34088814201D8012070473D
:1073E00000207047302000201048018CC9B20129CC
:1073F00017D1818C090714D1018D09060A0F03D119
:10740000828D1206120F0ED0090F012903D1828D31
:107410001206120F07D0032903D1808D0006000F3A
:1074200001D000207047012070470000C00F00F01D
:1074300010B50448017AC90702D00078FFF70CFDA7
:1074400010BD000008200020F8B523480169009114
:10745000457833E02048E900C0680E1834782AE007
:10746000182060437168641C0818B178E4B2A14226
:1074700000D100240178022902D003291BD113E096
:10748000154A40682421926841438F18397D0029AC
:1074900011D000F05BFB002038750CE02427784306
:1074A000C0180275006A03E00B4900228B68086966
:1074B000471CF3D108617078A042D1D128466D1ED7
:1074C000EDB20028C6D1044801690098814201D07C
:1074D0000120F8BD0020F8BD78200020F8B5044652
:1074E000384800270169009146785CE03548F10092
:1074F000C2688D1851E0601C07D0324A242092687F
:10750000604321468018046A24E02878182141430A
:107510006A68401CC0B252182870A978884200D10D
:107520002F70284B516824209B684843C01813785B
:10753000012B34D1037D002B31D193688360D36854
:10754000C360136903615269C2611E4A5279002AFD
:1075500000D087601B4B82685B6996469C46D31AB5
:107560001A02194B120A9A4202D2C368D21808E0D2
:10757000724663469A1A1202C368120A934202D9EB
:107580009A1A426000E0476087600122C760027576
:10759000921E0262084600F0A7FA601CABD1287860
:1075A00069788842A7D13046761EF6B200289DD170
:1075B000044801690098814201D00120F8BD0020F3
:1075C000F8BD000078200020FFFF7F0090B05148F8
:1075D0000090514B052204210020FFF7E5F9002817
:1075E00003D000221146FFF70FF84C490120FFF7A6
:1075F00017F8002803D000221146FFF705F8FFF71F
:1076000049FB002246490320FFF7D6FB002803D0A0
:1076100000221146FEF7F8FF0120FFF78DFB00283E
:1076200003D000221146FEF7EFFF3C4A0A21B03A90
:107630000820FFF763F9002803D000221146FEF767
:10764000E3FF1120694608720F2236A102A87CDFF1
:10765000002803D000221146FEF7D6FF0024FF21A8
:10766000913100946846019401804A0042808480F0
:10767000C1807ADF002803D000221146FEF7C4FF44
:107680000521684601702B48382100680F9001A839
:10769000FEF77BFD022168460171012181710181A4
:1076A000039081830FA80890002101A8FFF744FAF6
:1076B000002803D000221146FEF7A6FF1C216846D1
:1076C000FEF763FD0520C00301900F200004029027
:1076D0000094032168460173C48104741648059020
:1076E000164806906846FFF75BFA002803D0002290
:1076F0001146FEF789FF00F047F9FEF711FFFFF78B
:10770000EDF840DF0028FAD000221146FEF77CFF9A
:10771000F5E7000091690100B02000204C24002012
:10772000CD0C00004E6F726469635F54656D706CC0
:1077300061746500EC7D0100E5780100B171010024
:1077400070B5054600790E46801C1446C0B211780B
:10775000821C8A181F2A01D90C2070BD0A46491CB8
:107760002170401CB0542078FF22411C21703254FB
:1077700020788119288800F061FA21784018C0B279
:107780002070AA88002A09D0A968002908D0801989
:10779000FEF7E2FC2078297940182070002070BDA7
:1077A000072070BDF8B514780746A01C15460E4694
:1077B0001F2803D87878801C1F2801D90C20F8BD19
:1077C0001D20001B80B26946864608803019801C47
:1077D0007DDF0028F3D13878022805D1684600887B
:1077E000704501D8092107E078780821002801D0E8
:1077F000704501D968460088421C3255641CE2B2CB
:10780000B1542978801C081828700020F8BD0000A9
:1078100070B5324D04460188288814293BD009DC14
:10782000102917D0112921D0132912D1AA1C002107
:107830007FDF08E0172928D0192939D0522908D12B
:1078400000221146A9DF002803D000221146FEF7CE
:10785000DBFE70BD0720FFF7A1FA002803D000224D
:107860001146FEF7D1FEA088288070BD0020FFF7EA
:1078700095FA002803D000221146FEF7C5FE00202D
:10788000C0432880FEF74CFE70BD3222A11D144873
:10789000FEF762FC70BD1249E389CA88891D9A42CD
:1078A00002D1002281DFCEE70022114681DFCAE744
:1078B000A0790028EED1FFF771FA002803D000224A
:1078C0001146FEF7A1FE0120FFF736FA002803D08B
:1078D00000221146FEF798FE34DFB4E700200020B6
:1078E0001823002010B50078002809D105483B2155
:1078F000008876DF002803D000221146FEF784FEC0
:1079000010BD000000200020F0B50C4A0021536893
:107910001422504301240A4D03273F041E582246D7
:107920008A40164206D08A0052191668BE43166075
:1079300016681660491C2029F0D3F0BD5C20002099
:107940000007005070B501240B49600408600B4922
:1079500040108860094940398860094D6C602F20CB
:10796000FEF7B8FBAC60074D00242F206C61FEF7DA
:10797000B1FB2C7170BD000080E100E040130140BC
:10798000001001407820002008491E2008808878D7
:1079900001221043E1221040DF220C301040887099
:1079A0000720C870102008717047000002200020D6
:1079B000F0B500220123032636041F4697403942C2
:1079C00012D0C5683D4203D1012464043D4301E067
:1079D0003446BD43C560064D97007D192F68B743F7
:1079E0002F602F6827432F60521C202AE5D3F0BD5B
:1079F00000070050F7B582B002981446006B0F469E
:107A0000002833D0029800252030009028E002980A
:107A1000016B0C2068430E18217830794A1C2270C3
:107A2000C01C785420781622411C21703A542078CA
:107A3000C119308800F002F921784018C0B22070D6
:107A4000B288002A09D0B16800290FD0C019FEF70A
:107A500083FB20783179401820706D1C0098EDB2BE
:107A6000007DA842D3D8002005B0F0BD0720FBE779
:107A700010B508461146C046C04610BD002803D0C8
:107A80000249C860002070470E2070479C200020EB
:107A900070B5002901D08C0701D0072070BD064CBD
:107AA0000125A16062800549636010DF0028F5D1DF
:107AB0002570162026DF70BD9C200020717A010001
:107AC000002803D002490861002070470E2070474B
:107AD0009C2000207047000001200249000508603A
:107AE0007047000000E200E0F0B5174F2421BC68A9
:107AF00041430D1939694A1C09D024224A431619F9
:107B00006B687268934204D8D21A72602962386135
:107B1000F0BD0A4602E00A46396A9B1B4E1C0BD098
:107B200024264E4337197E689E42F4D324264E43C2
:107B300036197768FF1A77606B60296224214A43FF
:107B400011190862F0BD00007820002070B5194CB2
:107B50002269A5681346114606E0814207D00A460D
:107B6000242671434919096A4E1CF6D170BD002EB6
:107B7000FCD08A420CD1242043435819006A20616A
:107B8000401C05D10C4B012098600023636160719B
:107B9000242041434819242341685A43006A52195A
:107BA0001062421CE2D0242250434019426851180E
:107BB000416070BD7820002000100140F8B51D4CD8
:107BC0002569681C35D01C48002640686169401A48
:107BD00007023F0A19E024204543A0682A1850688C
:107BE000B84214D8A3693F1A8619156A002B09D028
:107BF000D16990699847002807D000221146FEF706
:107C000003FD02E09169D0698847681CE3D1A1783F
:107C1000E078814206D1401CC0B2E070022801D158
:107C20000020E07003490006800D1C310E50FFF764
:107C300053FFF8BD78200020001501400870000AAD
:107C4000487002207047000038B51549154A488829
:107C500090420FD04A78144C521CD2B24A70237B07
:107C6000934208D3083175DF002803D0A1690029A9
:107C700000D0884738BD00254D70217C002907D0F1
:107C80003B2176DF002803D0A169002900D0884776
:107C900061690029EED068460570884738BD00004C
:107CA00028200020FFFF00006024002012494868BF
:107CB000C005C00D19D0103840B2002807DA0207FD
:107CC000120F083A920892005118C96904E081081D
:107CD0000A4A8900891809688007C00EC140080651
:107CE000800F012803D0032803D002207047002012
:107CF000704701207047000000ED00E000E400E064
:107D000042788378521C934200D100220378934238
:107D100001D1002070470A60416840781822504322
:107D200008187047F8B51546069C1E4607460222FD
:107D3000009400F00AF8002806D1334610222946A4
:107D40003846009400F001F8F8BDFFB583B007464F
:107D500000200C9C8646267805463AE07868A90003
:107D600041180A88684682804988C1800022694695
:107D700001A865DF002810D1684601780598814286
:107D800026D17046002801D0002200E0022220788F
:107D9000891841181F2902D90C2007B0F0BD71467F
:107DA000002908D1401CC0B2411C069B049A2170D6
:107DB0001A5401208646217806980A18694601A8B7
:107DC00065DF0028E9D169462078097840182070DD
:107DD0006D1C3888A842C1DC7046002804D0207889
:107DE0000699801B401E88550020D6E70F18010019
:107DF0001100000012000000130000001400000039
:107E000011000300F96C010012000300F96C01007D
:107E100013000300F96C010014000300F96C010069
:107E2000407E010000200020B00000009A630100A5
:107E3000F07E0100B0200020D00B0000AA630100FA
:107E4000FFFF000000000000000000000000000034
:107E50000000000000000000000000000000000022
:107E6000000000000024F4000000000000000000FA
:107E70000000000000000000000000000000000002
:107E800000000000000000000000000000000000F2
:107E900000000000000000000000000000000000E2
:107EA00000000000000000000000000000000000D2
:107EB00000000000000000000000000000000000C2
:107EC00000000000000000000000000000000000B2
:107ED00000000000000000000000000000000000A2
:107EE0000000000000000000000000000000000092
:04000005000160C1D5
:00000001FF
