:020000040001F9
:10600000F02E0020F56001000F6101001161010018
:106010000000000000000000000000000000000080
:1060200000000000000000000000000013610100FB
:106030000000000000000000156101001761010070
:106040001961010019610100E56301001961010096
:1060500019610100000000002962010019610100BE
:106060001961010019610100196101001961010044
:106070001961010019610100196101001961010034
:1060800019610100F9620100196101001961010043
:1060900019630100196101006D63010019610100BC
:1060A00019610100196101000000000000000000FA
:1060B00000000000000000000000000000000000E0
:1060C0000348854600F080F800480047698B0100CE
:1060D000F02E0020401E00BF00BF00BF00BF00BF69
:1060E00000BF00BF00BF00BF00BF00BF00BFF1D1B5
:1060F000704700000321094802680A43026008480B
:1061000002680A4302600748804707480047FEE7E5
:10611000FEE7FEE7FEE7FEE7FEE70000240500409D
:106120005405004091630100C160010030B50B4689
:10613000014600202022012409E00D46D5409D4261
:1061400005D31D469540491B2546954040191546E7
:10615000521E002DF1DC30BD03460B439B0703D0DC
:1061600009E008C9121F08C0042AFAD203E00B781C
:106170000370401C491C521EF9D27047D2B201E094
:106180000270401C491EFBD270470022F6E710B592
:1061900013460A4604461946FFF7F0FF204610BD95
:1061A000421C0178401C0029FBD1801A704730B591
:1061B00004460020034600E05B1C934203D2E05CEF
:1061C000CD5C401BF8D030BD064C0125064E05E0E5
:1061D000E36807CC2B430C3C98471034B442F7D308
:1061E000FFF772FF549D0100749D010030B58C18BB
:1061F0000278401C13071B0F01D10378401C1209C1
:1062000006D10278401C03E005780D70401C491C43
:106210005B1EF9D101E00B70491C521EFBD1A1425B
:10622000E6D3002030BD0000F8B51F4805691F49BE
:106230000020C863074632E014213A464A434168C9
:10624000806854180121B940014226D0E068C64355
:1062500020686E4006403146204603F049F9124856
:10626000006968400CD00543E0682168C04368407D
:10627000084001460090204603F03AF90098064392
:106280003046A168A84301402A4660683240104069
:1062900002460A4301D0226990477F1CFFB204489E
:1062A00041788F42C8D3F8BD0005005040610040DE
:1062B000EC2000208307FF22DB0E9A408907090E9D
:1062C000994000280BDA0007000F083883080848B7
:1062D0009B001818C36993430B43C361704783083D
:1062E00004489B001B1818689043084318607047C7
:1062F00000ED00E000E400E010B506490020086071
:1063000048608860C860034940390860486003F00D
:10631000C5FB10BD40110140FEB50020C043124D29
:1063200002906869019068462E6902F0A7F9074655
:1063300002F058FB0446002F08D002AA01990098E9
:1063400002F0BCF9029802F097FB06E0029802F016
:1063500093FB002801D1002C02D0304601F07EFCD6
:1063600000206871FEBD0000F820002010B507482D
:106370004068002807D08047002803D0002211463B
:1063800000F038FA10BD02F0A9FA10BD1C2100205F
:1063900010B502F0F1FA002805D00E490C4848600B
:1063A000C8130D4988610D48018CC9B201290ED16D
:1063B000818C09070BD1018D0906090F042906D12B
:1063C000808D0006000F02D105490120886010BDB4
:1063D000DFFF07C000050040006C0040C00F00F068
:1063E000000600407CB51B4CA0681B4E0025002811
:1063F00018D0A56019488069C1B2194800F01DFA8B
:10640000002805D001216A4611700190684607E016
:106410001348C1688068081A012803D168460570CE
:10642000B1688847E069002803D0E561032002F0E5
:106430000BFD606A00280BD0656208498039086846
:10644000086002216A4611700190B1686846884769
:106450007CBD000000210040B82000200025004045
:10646000F025002030B47446641E2578641CAB42CD
:1064700000D21D46635D5B00E31830BC184702E0A4
:1064800008C8121F08C1002AFAD1704770470020BF
:1064900001E001C1121F002AFBD1704738B50D4C35
:1064A0006078022802D00C490120886069460B48B8
:1064B00000F0B2F9002802D000F016F838BD084804
:1064C000802181606A46074B1278DA61022262708D
:1064D000416038BDB8200020002000400026002088
:1064E00000230040002500401CB506490120C8607B
:1064F0000549487003206A461070896868468847D5
:106500001CBD000000200040B820002004490020ED
:10651000487004490122CA604A6003490860704714
:10652000B82000200020004000250040F7B582B0D0
:1065300000260546167000781446002805D0284627
:10654000039902F0C3FB06002DD1A87800281BD0C8
:106550002078039F001D1F2824D8684679DF002873
:1065600021D121780322481C20707A5421781922E5
:10657000481C20707A542078C1196846008803F0BE
:10658000CDFA217840182070A988002923D0012055
:106590008446AA680398002A07D0227853189B1CC7
:1065A0001F2B04D90C2005B0F0BD0720FBE71346D4
:1065B000521C2270491CC15422786746511C21701C
:1065C00087542378AA881818A968FFF7C5FD207892
:1065D000297940182070E868002815D0002141561C
:1065E00022788C46D01C03991F28DBD8501C02232C
:1065F00020708B5422780A23501C20708B542078F2
:106600006246431C23700A54288A002809D0284671
:106610000094062202211030039B03F001FB0600C8
:10662000C1D1288B002809D02846009407220321D5
:106630001830039B03F0F4FA0600B4D1288C2F46DF
:106640002037002808D00094152214213846039BD7
:1066500003F0E6FA0600A6D1A86A002805D0224673
:10666000039901F04DFB06009DD1E86A002805D092
:106670002246039902F0F8FA060094D1387D0028EA
:1066800006D022462846039902F09AFF06008AD1D6
:10669000304688E700B593B006206946164A087070
:1066A00007CA0FAB07C3382101A8FFF76EFD022010
:1066B000694608710120887108810320039188834D
:1066C0000FA80890002101A800F046FB002803D085
:1066D0000022114600F08EF814210848FFF755FDFE
:1066E0000648002101704160017228210182B42115
:1066F000418213B000BD0000E89C0100242400206A
:1067000008B5684602F03EFC002803D0002211467E
:1067100000F070F80098002803D00B490120487061
:1067200008BD0A4873DF002803D00022114600F09C
:1067300061F8022001F008F80028F1D0002211468B
:1067400000F058F808BD000000200020242400209C
:10675000044842680121C9050B46934383600A40FF
:10676000C26070470005005010B505484168002917
:1067700003D0407800F0BEF810BD082010BD000026
:10678000D0200020F8B50C46052A01D20720F8BD1C
:106790001449154D48600C70CB608A6000210123BC
:1067A0000BE0E200121816789778B600BF00761951
:1067B000376016781A46B24011432246641EE4B28E
:1067C000002AEED10748094B0A46401C00F0DCF8CD
:1067D0000028DCD10348064A0021103000F010F9EF
:1067E000F8BD0000D020002000070050B188010053
:1067F000497E0100BFF34F8F03490248C860BFF3D1
:106800004F8FFEE70400FA0500ED00E0014B1B6826
:1068100018470000E4250020C26883689A420AD025
:10682000826883881A4003689A5C0A708168491CF0
:1068300081600020704705207047C2688368D31AC2
:106840008288934208D8C36813400268D154C16853
:10685000491CC160002070470420704710B5002912
:1068600003D08A070024002A01D0072010BD0F4A58
:106870000B465160107014215470414318469460C7
:10688000FFF783FC00200A49C04388600948402183
:106890000160094A1068FF231B0498430B04184346
:1068A000106006480160002010BD0000EC200020B0
:1068B0000063004080E200E004E400E000E100E06A
:1068C0000A4B5A68002A04D05B78984203D3072009
:1068D000704708207047142358438018044A1269EF
:1068E0000068024000200A6070470000EC20002091
:1068F00000050050F0B51F4A5168002904D05378B4
:10690000984203D30720F0BD0820F0BD1A4B0025A4
:10691000DD631A4B1C699768002F02D1184EDB0506
:106920007360012686403E4396601422504342180D
:10693000D560002201230D5893401D4215D01C4202
:1069400002D003252D0405E001256D044618F768E3
:106950001F43F7600B4B9600F3181E6803273F0494
:10696000BE431E601E682E431E60521C202AE1D3C7
:106970000020F0BDEC2000204061004000050050E8
:106980000063004000070050F8B5114F84467D6851
:10699000002D07D0002B07D078783C78A04205D393
:1069A0000420F8BD0820F8BD0720F8BD0E461424C9
:1069B000164344432E5164192361A260616061460D
:1069C0000870411C797002F09FFA0020F8BD0000A9
:1069D000EC20002038B50246084814230178074C03
:1069E00059430818C368CC341B01E4580179C388A3
:1069F000009343690C30A04738BD000010260020EA
:106A000070B5114CA568002D06D0002A06D00028CC
:106A100004D00023247809E0082070BD072070BD51
:106A200024265E43AE5D002E04D05B1CA342F7DB40
:106A3000042070BD242401265C432E556419617026
:106A4000A2610360002070BDF8200020FFB5980708
:106A5000002481B01E4615460F4600280BD1002E9B
:106A600009D002F023FD22490A9888610F7032464E
:106A700000208E6008E0072005B0F0BD24234343CA
:106A8000D4549B181C75401CB842F7DB24204743A4
:106A9000BB19032048700F461846CB6019461830C2
:106AA000002218232E465E43D3005B181C705C70D6
:106AB0009D7058603018521C032AF5DB0020C0433B
:106AC0003861BC70FC7001240A482405046003216D
:106AD0001420FFF7EFFB08480460084C0198A06001
:106AE00003211120FFF7E6FB606878610020C3E70F
:106AF000F820002080E200E000E100E00015014005
:106B0000FEB504461D48174682680D46002A0CD083
:106B100001788C4201D2052D01D20720FEBD21460D
:106B200024235943535C012B01D00820FEBD881853
:106B3000407801281DD0002603F036F8C0000F4928
:106B40000190C9684018694603F058F8002812D02F
:106B5000012101700A49446049680830E2C00749D0
:106B60000198C96841180098487002F025FF00207C
:106B7000FEBD2E46E0E70420FEBD0000F820002008
:106B800000150140F8B5144D0446A868002809D046
:106B900029788C4201D30720F8BD24216143405C51
:106BA000012801D00820F8BD02F0FEFFC600E86809
:106BB0006946301803F022F800280AD0022101703B
:106BC0004460E86831180098487002F0F5FE002033
:106BD000F8BD0420F8BD0000F8200020F0B50546FF
:106BE000007D002493B00E4600280DD00120014600
:106BF0006846103103940173717B4173817BF920E6
:106C000001406846891C81731C2104A8FFF7BDFA66
:106C10006946087C02210843694608742A7DEF21F1
:106C2000002A02D01022104300E008406A46107487
:106C3000059407940894287D002800D003A80990A3
:106C400001270A9410469771304A82800094B27BE3
:106C50000270F27B42708078F9221040F722801C8B
:106C60001040EF2108404108490068468170317B9F
:106C7000017214210BA8FFF788FA01A80B9068464F
:106C80000C908786C486078702A80F90A888AB1D42
:106C90000BAA04A9A2DF002835D1B068002830D0A3
:106CA000684687711A4981800094317C0170002008
:106CB0000146684641708078F9210840F721801C20
:106CC0000840EF210840410849006846817011A83A
:106CD000B16800F0DFFA064614210BA8FFF755FA59
:106CE00001A80B9068460C908686C486068711A87A
:106CF0000F902A46E8880E320BA9A3DF002802D1A4
:106D000000E0EC81002013B0F0BD0000192A000063
:106D10000829000010B50C490C4800F097FAC1B2E0
:106D20000948743800F04CF800280BD0082809D026
:106D30000749884206D00749884203D000221146FD
:106D4000FFF758FD10BD0000AC24002014200020E7
:106D5000043000000134000070B50D4692B00021EF
:106D60006A46117007241171002812D08188002909
:106D700005D08168002902D00978490702D420464D
:106D800012B070BD02A9FFF7D1FB0028F8D102AE06
:106D900000E00026002D0BD0A8880028EFD101AA22
:106DA0000AA92846FFF7C2FB0028E9D10AAA00E099
:106DB0000022684603790178304672DFE0E7000080
:106DC00033B585B004466946227C097E00208A429C
:106DD00022D00125684605822174E08806AB04AA0A
:106DE0000021A4DF002817D1608A0D49884215D000
:106DF000207D002812D0002000900190029069466A
:106E000003900D82E2880A808D70888004A8029029
:106E100006A80390608AA6DF07B030BD0820FBE714
:106E2000FFFF000038B50446086820600020C0431A
:106E3000608208792075FF200D4620740121684684
:106E4000817006490180221D69460120A0DF0028CB
:106E500003D129462046FFF7C1FE38BD0F180000B8
:106E600038B50A88102A1AD0112A1AD0502A1BD1F4
:106E7000027D002A18D0CA884389891D9A4213D1FD
:106E80000A8B022A10D10268002A0DD0CB7E8C7E9C
:106E900019022143C907C90F07D0002106E08988DC
:106EA00001E00021C943418238BD01216B461970C0
:106EB0006946904738BD000038B504460868206030
:106EC0000020C043E08248890D46208301216846A6
:106ED000817009490180221D69460120A0DF002838
:106EE00009D12946204600F0A3FA002803D12946FB
:106EF000204600F055FA38BD101800001CB50C46AD
:106F000002216A46918040896B4601AA0021A5DFD3
:106F1000002804D1694609888907C90F21701CBD62
:106F200030B50446C08A134A8BB090421FD006AADF
:106F3000204600F0D5FA69460546088000200190F9
:106F4000029003900490E2888A8002228A7108816C
:106F500006A803910490E08A01A9A6DF002804D1C5
:106F600069460988A94200D00C200BB030BD08202A
:106F7000FBE70000FFFF000038B50A88102A10D098
:106F8000112A10D0502A12D0532A09D1C988C28898
:106F9000914205D102216A46117002686946904704
:106FA00038BD898801E00021C943C18238BDCA8843
:106FB0004389891D9A42F9D10A8B022AF6D10268C7
:106FC000002AF3D0CB7E8C7E190221438907C90F9A
:106FD00001D0002100E001216B4619706946DEE70F
:106FE00070B5054601461C220F48FFF7B5F80F4C57
:106FF000002626702968002907D00822A018FFF76C
:10700000ABF8204608307ADF02E0084808307BDF22
:10701000002808D1401E608004486670044A0021A0
:10702000001DFFF7EDFC70BDBC2400203C200020BB
:10703000459B0100F8B5224C028800271F4DE689C8
:10704000102A16D029464968112A21D0122A2DD09B
:10705000502A1CD1C288801DB24218D1028B022A4C
:1070600015D1C27E837E10021843C007C00F0CD119
:1070700012E0818869800146104808220E311030E4
:10708000FFF76AF86F70002E01D100F081FEF8BDA5
:107090000020C04368806F700846FFF773FD00282A
:1070A000F5D0A1690029F2D08847F8BD811D0348B9
:1070B00008221030FFF750F8E7E700003C200020DE
:1070C000BC2400207FB504460121684681714A49ED
:1070D00081804A4A01A90120A0DF00287ED12288B0
:1070E00025463C35002A09D044482B46801C009098
:1070F0004348616800F0A4FC00287BD12289002A63
:107100000AD03E482B460A3000903D48E168401FB7
:1071100000F096FC00286DD1228A002A0AD0374858
:107120002B461230009036486169001F00F088FC41
:1071300000285FD1228B002A0AD030482B461A3013
:1071400000902F48E169801E00F07AFC002851D1A0
:10715000228C002A0AD029482B4622300090284849
:10716000616AC01E00F06CFC002843D1228D002A09
:107170000AD022482B462A3000902148E16A401E5E
:1071800000F05EFC002835D1216B00290ED002A84A
:1071900002F0E6FB19482B463230009018480822CE
:1071A00002A9801F00F04CFC002823D1606B00284E
:1071B0000BD012492B463A310091027901681048F0
:1071C000401C00F03DFC002814D1A16B002910D018
:1071D00002A801F0B7FE0948423000E00AE0009042
:1071E00007482B46072202A9273000F029FC002877
:1071F00000D1002004B070BD0A1800006C200020EF
:10720000292A000010B5044601460948FFF7B4FEDC
:10721000074821461838FFF723FE2046FFF70AFFEC
:10722000204600F051FF204601F08CFD10BD00000B
:10723000502400200A7B002A03D049680160002105
:1072400002E00968016001210171704710B50479FD
:107250008B680268002C08D049688C1A9C4201D9BE
:10726000D11807E00160002108E00968541A9C4227
:1072700002D9D11A016002E00160012101710068A8
:1072800010BD70B504460D460846FEF789FF208004
:10729000656070BD0A7802704978417002207047BD
:1072A00008B5002350221449082002F067FA00288C
:1072B00003D000221146FFF79DFA00206946009096
:1072C0000870684660DF002803D000221146FFF7EF
:1072D00091FA0A4802F048FA002803D00022114629
:1072E000FFF788FA064802F061FA002803D000226E
:1072F0001146FFF77FFA08BDC02300200572010088
:107300003999010010B58AB069461148FFF7F6FDBA
:10731000002803D000221146FFF76CFA0D4C684696
:107320000078217888430ED001A800F051F901A916
:107330000748FFF7F5FD002807D0082803D00022F2
:107340001146FFF757FA0AB010BD01202070FAE786
:1073500050240020002000201CB5044681786A4695
:107360000C4801F023FE002812D160781821484310
:1073700009491C2340181822694601F0CBFE064833
:1073800006494830807A80000A582146684690476E
:107390001CBD0000642000209C250020349D0100BD
:1073A00070B590B00D4606461C216846FEF7EDFE0E
:1073B0006846017802200143684601700024019468
:1073C000039404940594012108A806948170174938
:1073D000684601840794827FF92002406846921C27
:1073E0008277E9790177297A4177E72002405108CD
:1073F000490068468177142109A8FEF7C6FE68890E
:107400000EA902F090FB014608A8099007A80A906F
:1074100068468185C48501860EA80D903346B088E4
:107420000E3309AA6946A2DF10B070BD492A0000D8
:10743000F0B5002406460D46601C01079DB0090FFB
:1074400008A810310D940175817DF9273940891CF8
:107450008175297941751C2106A8FEF796FE6846BC
:10746000017E20200143684601760DA807940B9009
:1074700009940A9401220C9408A882761749684658
:1074800001870594817D3940891C81756B7903756D
:10749000AB794375E720014011436846817514219B
:1074A000FEF773FE24210FA8FEF76FFE0EA80090D2
:1074B00005A8019018AA0FA9304600F011F801465E
:1074C0006846018114214481818118A80490B08804
:1074D000B31D6A4606A9A2DF1DB0F0BD352A000023
:1074E000F8B50878002716460C46002800D001277A
:1074F000A079218900070905000C090D0843711CBA
:1075000002F011FB401CC5B2A07AA1890007090551
:10751000000C090D0843711902F005FB4019C5B2B2
:10752000A07B218A00070905000C090D0843711989
:1075300002F0F9FA4019C5B26078002820D0022084
:10754000711907430091608A02F0EDFA0099227DDB
:107550000A54401C0099C0B2627D0A54401C009934
:10756000C0B2A27D0A54401C0099C0B2E27D0A5408
:10757000401C0099C0B2227E0A54401C4019C5B27A
:10758000A07800280DD004200743A07EA18B00071F
:107590000905000C090D0843711902F0C4FA4019DD
:1075A000C5B2E078002805D008200743A07F7055B9
:1075B0006D1CEDB22079002807D010200743711907
:1075C000208C02F0B0FA4019C5B237702846F8BDD9
:1075D000F8B50025254E04460570B07800282ED059
:1075E00002282CD00021617000282AD0012828D040
:1075F0000021A1701E4FE57001012571C819428854
:107600002281795CA171C188A1810179A17241892E
:107610002182007AA0731549204608220C311230CD
:10762000FEF79AFDB0780101C919CA89A283401CEE
:10763000097BC0B2A176B070042804D004E0012117
:10764000D1E70121D5E7B57008480C3081791B31AD
:10765000C9B281713B2908D93C3981714179491CF2
:10766000C9B241713B2900D94571F8BD0020002005
:107670006C24002030B4002201290BD10B49C968C9
:10768000002907D00A4B94001C59844204D0521C94
:10769000042AF8D330BC7047042AFBD203481030C8
:1076A000805C0028F6D030BC084700001C20002079
:1076B000F49C010010B5024604280DD20748006969
:1076C000074C9200A45CC34301220020A2401A4050
:1076D00000D001220A7010BD072010BD0005005027
:1076E000F49C0100F0B500210F4D01270F4A032340
:1076F0001B048C002E593C468C40044207D0B40039
:10770000A41826689E43266026681E4305E0B40040
:10771000A41826689E43266026682660491C042912
:10772000E7D30020F0BD0000F49C010000070050EA
:1077300002460020042A02D2024B995470470720C7
:10774000704700002C20002010B5054A0146127A2F
:107750000020D20702D0084600F054F810BD000007
:107760001C200020F8B50646214800248660C2602F
:1077700041600F46B0071DD5002528460B30C1B229
:107780002846FFF7D5FF6D1C0446042D01D2002CBE
:10779000F3D07A08002304211648FEF7F3FF0028EF
:1077A00003D000221146FFF725F8002C02D1FEF786
:1077B000DBFF0446F00708D00F210F484904C161E0
:1077C000090181600022C2608161002C0ED108484D
:1077D0000A4A00211430FFF713F9040006D10448C7
:1077E000074A01211830FFF70BF904462046F8BD7F
:1077F0001C200020049D010000050050CD890100DF
:1078000051670100FEB5784906464F684B69009301
:10781000BB00FB1800200122019352050546734C62
:107820003300FEF71FFE180D13133749596C828E73
:10783000858E97A1A5A5A5A5A5C3C8CDD4DADA12D2
:107840000B225205A260E5600D70FEBD052080058B
:10785000A060E56060680F235B055840800209D591
:10786000A260E560022E02D1E120C0000AE07D2086
:10787000400107E0E260A560022E01D1C82001E0CE
:10788000FF2091300E706421FEF750FC78430022F7
:10789000014646E005208005A060E56060680F2392
:1078A0005B055840800204D5A260E56019204001C4
:1078B000E8E7E260A560E1E705208005A060E560FB
:1078C00060680F235B055840800202D5A260E56026
:1078D000CDE7E260A560D3E705208005A060E56004
:1078E00060680F235B055840800202D5A260E56006
:1078F00001E0E260A5600E707900002211E0052031
:107900008005A060E56060680F235B055840800239
:1079100002D5A260E56001E0E260A5600E70002281
:1079200039460098FFF7ECF8FEBD05239B0544E0BF
:107930006068012189050A468243A2600840E06030
:1079400010E061680120800502468A43A260014080
:10795000E160E4E761680120800502468A43A26095
:107960000140E1600199C8E70F214905E1601BE092
:107970000F468869FFF706F911218A1B1C4E01D0BA
:10798000002802D0A660E560FEBD012A0BD9104692
:10799000C82148436421FEF7C9FB796800224143AE
:1079A000B869FFF7ADF8E660A560FEBD0F2252058D
:1079B000A260E56015E007239B05A360E5600EE08B
:1079C0000D225205A260E5600122920507E0032224
:1079D000D205A260E560921001E00F225205E2603C
:1079E000A5600E70FEBD00001C20002000050050A8
:1079F0000000800010B50B2801D1FFF783FC10BDFB
:107A000010B50E4AD368002B0AD0CAB2017840687C
:107A10009847002803D000221146FEF7EBFE10BD68
:107A2000012906D00029FAD1037842681846904708
:107A300010BD037801214268F8E70000D020002043
:107A4000FFB58FB01E4615460F0004D10022114627
:107A50001046FEF7CFFE002D04D10022114610463D
:107A6000FEF7C8FE1C216846FEF78FFB68460178CA
:107A70000220014368460170002401940394049499
:107A80000594012108A80694817068460F99018425
:107A900007943178017771784177807FF921084028
:107AA000F721801C0840EF21084041084900684642
:107AB0008177142109A8FEF768FB08A8099007A898
:107AC0000A9068468585C485058604480D9709AAED
:107AD00069460088189BA2DF13B0F0BD6C2000201F
:107AE000F8B5384914230A780F205A4354183649F8
:107AF000227926698F88241D022A1BD001252D0793
:107B0000042A2AD0052A5BD1286981B23046FEF7C3
:107B10000DFB0146A38828699A1980B24843101AC0
:107B2000820860881818861928694B1C80B258434F
:107B3000801B34E0B80262882169121A0918A388F0
:107B40003018181801239B029A4202D2920821DFB2
:107B500031E0FF22013221DF2DE0A368194819012D
:107B6000CC300818018942894068B04203D160884E
:107B70005143814218D0022B16D0286981B2304679
:107B8000FEF7D4FA0146286980B24843301A8208C9
:107B900028694B1C80B2584363889B19C01A83081C
:107BA000204601F00FFE06E0286981B23046FEF75C
:107BB000BDFAC01920DF002802D1024901228A70D3
:107BC000F8BD000010260020C420002010B5064992
:107BD00000204978002906D0FFF782FF002802D054
:107BE000112800D1002010BD10260020142250437F
:107BF000054A002180180171C18001220161C26023
:107C0000416101817047000010260020F8B5124C38
:107C1000069E65780A2D1DD027787D19EDB20A2DB4
:107C200001D30A3DEDB214277D432D1928716A61F5
:107C300003C92961E860EB802E81A178002000292A
:107C400004D1FFF74DFF112800D100206178491CB5
:107C50006170F8BD0420F8BD10260020F8B5224858
:107C600001694A1C3DD024225143826889184E681C
:107C70001E494C6847690079E11B0D022D0AED1C75
:107C8000002814D101201A4A00045060184A403AD2
:107C900050601849400008601749086017490120E2
:107CA00008602F20FEF716FA0F4901200871B5422F
:107CB00000D23546E81900020C49000A403108603C
:107CC0000A494968001B091B0902090A0002000A47
:107CD000C91C814204D9012006494004803908604A
:107CE000F8BD01F0E3FBF8BDF820002000150140CD
:107CF0004013014080E200E000E100E0001001409C
:107D0000F8B50D4611780646881D14461F2801D97E
:107D10000C20F8BD33880720062BFAD31927FF0162
:107D2000BB4202D9164A9342F3D17288062AF0D395
:107D3000BA4202D9124FBA42EBD1114FBB4203D023
:107D4000BA4201D09342E4D8481C052220706A54FC
:107D500020781222411C21702A5420784119308841
:107D600001F0DCFE21784018C0B220704119708803
:107D700001F0D4FE2178401820700020F8BD0000EA
:107D8000FFFF000010B500221146FEF733FD10BDC5
:107D9000F8B5164800F0E2FD144D0026103D144CD5
:107DA000002807D0616900291BD001206A461070A5
:107DB000684615E02878002805D06169002910D0B0
:107DC000684606700CE0687800280CD0A168002294
:107DD0006868FEF795FE002803D0A169002900D04D
:107DE00088472E70F8BD6168F1E700004C20002044
:107DF000BC24002070B5094B04469E7A082000255B
:107E00000E4207D00648844202D01889A04202D10F
:107E10000020156070BD052070BD0000D825002031
:107E2000FFFF00000C214843064910B5012240180D
:107E30008272911E0181FF21C1720721FEF7A5F90F
:107E400010BD0000D8250020F8B5184D69466878A7
:107E5000FEF736FD00281DD12F46002414370126D9
:107E600015E06968E0004018037831463A689940A7
:107E70000A4210D04268002A0DD04178012901D170
:107E8000002100E00121FFF7BBFD641CE4B228786B
:107E90008442E6D3F8BD7A680A42F6D041680029E8
:107EA000F3D041780129EDD0EAE70000D02000208E
:107EB000FEB50E46044681786A46234801F076F8FE
:107EC000002826D160780C21204F4843C019807AC1
:107ED00080061FD4022E1DD0012E1DD01C4DA0786F
:107EE0001C2148431B49002341181C226846A8470F
:107EF000002813D0022E0CD020780C2148431349BF
:107F00000C314018807A144980000A58214668468E
:107F10009047FEBD114DE2E7114DE0E7022EF8D08B
:107F200060780C214843C019817ADF2211408172A8
:107F300060781821484305491C233C394118182210
:107F40006846A847D8E7000064200020D825002014
:107F5000C1970100D8240020249D01001D94010038
:107F6000B592010070B50546114A124800241C2341
:107F700063431B189B7EFF2B04D0641C072CF6D395
:107F8000104670BD0A78022A09D01C2262431018DC
:107F9000FD22827607221030FEF7DEF804E01C2175
:107FA00061430818FE2181762C700022E8E700006A
:107FB00043800000D8240020F7B505250F4F064662
:107FC0000024002E0AD01C206043C019072231462D
:107FD0001030FEF7ECF8002807D00AE01C206043C0
:107FE000C019018B0298814203D1019800250460D9
:107FF00002E0641C072CE4D32846FEBDD8240020F0
:1080000038B50C46100003D000221146FEF7F2FBF3
:10801000207815280FD169460848FEF76FFF002821
:1080200003D000221146FEF7E5FB684600780028E1
:1080300001D0FFF767F9002038BD00005024002070
:108040001FB501F01BF8002803D000221146FEF7EF
:10805000D1FB03A90120FFF72DFB002803D000224C
:108060001146FEF7C7FB03A800F0D4F9002803D09F
:1080700000221146FEF7BEFB01A806210230FEF7E2
:1080800084F81E206946C880087A01221043E12145
:108090000840DF210C30084069460872072048720A
:1080A00010208872064800900A71064800F0BAFA5B
:1080B000002803D000221146FEF79CFB1FBD0000E4
:1080C0000180010003200020F0B5054687B0FF24A1
:1080D000C3480594007800286BD0C24F3868002848
:1080E00067D001A800F088F9002803D000221146CB
:1080F000FEF780FB002006460690281D03903421E1
:1081000068460182FF218171002101710091B54C07
:1081100028880C3C10280ED0A8886A460221FFF758
:1081200069FE002807D100980C2141430919CA7A39
:1081300069468A7148712888142876D02DDC102869
:1081400039D0112873D0132833D1694608723A1DEB
:10815000A88800217FDF00282BD100980C21414303
:1081600009198A7A04231A438A72C97AFF2913D01B
:1081700016216A461172242148439A493039401821
:108180002021001DFEF701F800980C21484300193A
:10819000817A2022114381720FE117287ED0924903
:1081A00018287CD0522804D1B87A8000095801A838
:1081B000884707B0F0BD8D4F6A4601213846FFF76A
:1081C00019FE0028F5D100990C204843022200191D
:1081D000827211236A4613725171A98801810722A4
:1081E000A91DFDF7B9FF687BC10707D041087C488E
:1081F0000830405CFF2808D0059006E03A4605A903
:10820000A81DFFF7D9FE0028C6D100990C225143C2
:1082100009190598C8728A7A08231A438A7269462E
:10822000887101A8FFF798F8C7E024E0FFE70098FD
:108230000C2148430119887AFD22104088720107F9
:1082400006D540060DD5002101A8FFF731FE08E054
:1082500068468079FF2804D000F03AFEFF20694686
:10826000887100990C22514310200919887212203C
:1082700069460872A1E000980C2148430019C07AB1
:10828000FF281FD1EA8905A90020FFF795FE0028E5
:1082900011D100990C225143091901E01FE079E046
:1082A0000598C8728A7A08231A438A7269468871C7
:1082B00001A8FFF751F800980C2148430019C07A33
:1082C000FF2807D0009818214843464948394018EC
:1082D000001D0690A8880022069981DF69E70098B2
:1082E0000C21414309198A7AFB231A408A7214210E
:1082F0006A461172A979002901D00E465DE0182165
:1083000048433849142248394018E97A8170A97ADB
:10831000417029460C31001DFDF71EFF00980C210D
:1083200048430119887A420647D5082210438872CB
:10833000CA7AFF2A04D0202210438872002125E047
:1083400005A8FFF70FFE002801D0064635E0694674
:108350000598887100990C2251430919C8721C2292
:10836000234F5043A989C0190183E97A49070CD5E5
:10837000294610222031FDF7EFFE05981C214843C5
:10838000C019817E490849008176012101A8FFF7C3
:108390008FFD12E000980C2250430019827A40238E
:1083A0001A43827215206A461072B87A8000095802
:1083B00001A88847002800D00E4E02A9324601A825
:1083C000FEF724FA6846007A122887D100980C211B
:1083D00041430919897A012980D0FFF723FDE8E696
:1083E00054200020E4250020449D0100FFFF0000F0
:1083F000D824002041800000002806D0FF21017011
:1084000041708170C17000207047014870470000C2
:108410000E800000F0B585B0040035D00025284955
:1084200028460D608D72FFF7FDFC25482421303869
:10843000FDF7ABFE0026FF27304600F049FD21483E
:108440008755761C072EF7D35C216846818007216B
:10845000C1801D481B4900900831684600F0ACFE01
:1084600000280FD1174E0120083E307020780028D8
:108470000CD069468888C988484381B2304610309C
:1084800000F0BEFD05B0F0BD1048FBE7104F002422
:108490000C48A1B202AA083000F088FD002809D1DA
:1084A0001C206043C01900231C2202A900F032FEE8
:1084B000002801D03570E5E7641C072CE8D3E1E71C
:1084C000E42500205C200020D58401000E800000FF
:1084D000D8240020FFB550488BB00068149F1E467A
:1084E000002869D05C2F67D803A8FFF785FF002814
:1084F00003D000221146FEF77DF90025684605737A
:1085000005702C4604970596A1B208AA434800F0CE
:108510004DFD002806D1082208A90B98FDF747FE5B
:10852000002817D0641C072CEED36846847BFF2CF0
:1085300042D00C98042810D039481C21301AFDF77D
:10854000F5FD0127072824D204A801900D980028E2
:1085500011D017E068468473E7E75C2F09D040200C
:108560006946087068460178032001436846017037
:1085700047E02020F4E738462849A04010394968F0
:10858000084219D0204601F0D3FA2020694608702D
:108590002EE0214818214838301AFDF7C7FD002881
:1085A0000CD01D4C2421303C301BFDF7BFFD0028B2
:1085B00010D04020694608700FB0F0BD04A80190AB
:1085C0002020694608701C20444315484D7320182C
:1085D00005900DE03021684601704573C7730E4861
:1085E0000C38807A800703D420462421FDF7CDFD86
:1085F0000C986946032808780BD002210843694685
:10860000087004A80190694603A80D9AFEF7FEF8C9
:10861000D2E73843F4E70000E4250020642000207E
:10862000D824002070B5064611480D460078002871
:108630000ED01049002E0ED0002D0CD02868002836
:1086400009D00D4C2168002907D00A480A3870BDAE
:108650000848801F70BD084670BD20600622A91D15
:10866000201DFDF779FD2879A0720020307070BDC3
:10867000542000200E800000E425002010B50E4993
:1086800000238A78CC78A24212D0521CD2B28A70CF
:10869000022A00D18B708A78074B92001C339A58BB
:1086A0000260486910180002000A4861012010BDEC
:1086B0000360002010BD0000F8200020F7B5144C26
:1086C0000025A76823691EE024215943C9194E6873
:1086D000864202D9301A486017E0801B75190026BF
:1086E0004E600E750E699C460B6AB646002E0AD087
:1086F000019E76193602360A8E607646CE6016687E
:108700000E6261461160591CDED12361FEBD00007E
:10871000F82000200EB51120694608720A2213A124
:1087200002A87CDF002803D000221146FEF762F881
:108730000720C00178DF002803D000221146FEF791
:1087400059F80021FF20913000916A460191108074
:10875000430053809180D08068467ADF002803D0A0
:1087600000221146FEF746F80EBD00004E6F7264FF
:1087700069635F425053000000207047002070473B
:1087800000207047F8B540780D4C2423434326461B
:108790000C270021E5582436784380190A46002D1D
:1087A00007D0867A770604D5B60602D41919AAB27C
:1087B000091D0089A9DF002800D00248F8BD00008B
:1087C000B42500204180000070B50D460146687850
:1087D0002422084C50430019342300F09BFC00284D
:1087E00006D16978242251436258521C00D162504C
:1087F00070BD0000B4250020F0B589B00D460746D5
:1088000020206946088468780C2148431F4E08AA36
:10881000801900896946AADF002833D168782421AD
:108820004843741A001969460A8C001DFDF7BFFC05
:108830000028687806D024214843215800290DD00B
:10884000134E0CE00C2141438919897A890719D408
:10885000242148430019FDF798FC13E00D4E6946AA
:108860000A8C225068782421484300196946001D6B
:10887000FDF772FC6878242148430119342324222F
:108880003846B047002009B0F0BD0000D8250020D0
:108890001D940100B592010010B5FFF773FF10BDE4
:1088A00010B5FFF791FF10BD10B5FFF7A5FF10BD84
:1088B00070B5094D04460E462869FEF763F9002895
:1088C00009D1284614300660446034432246A96822
:1088D0002869FEF715F970BDD0200020F8B51E4CB0
:1088E0002078002837D02069002807D00026E068CB
:1088F000002805D00025002E04D013E00126F6E75D
:108900000125F8E7684651DF052806D0002806D083
:1089100000221146FDF76EFF04E0012602E0216906
:1089200000988847002D12D1608869460880A068A9
:1089300061DF052806D0002806D000221146FDF789
:1089400059FF04E0012502E0E168A0688847002E95
:10895000D8D0002DCFD0F8BD1C210020418805487B
:108960000288914204D34088814201D80120704797
:1089700000207047442000201048018CC9B2012912
:1089800017D1818C090714D1018D09060A0F03D173
:10899000828D1206120F0ED0090F012903D1828D8C
:1089A0001206120F07D0032903D1808D0006000F95
:1089B00001D000207047012070470000C00F00F078
:1089C000800701D0002070470120704710B504488F
:1089D000017AC90702D00078FEF714FF10BD00002D
:1089E0001C200020F8B5234801690091457833E048
:1089F0002048E900C0680E1834782AE01820604347
:108A00007168641C0818B178E4B2A14200D1002456
:108A10000178022902D003291BD113E0154A4068CE
:108A20002421926841438F18397D002911D000F02C
:108A3000FDFF002038750CE024277843C01802752C
:108A4000006A03E00B4900228B680869471CF3D1D8
:108A500008617078A042D1D128466D1EEDB2002881
:108A6000C6D1044801690098814201D00120F8BDB7
:108A70000020F8BDF8200020F8B50446384800274B
:108A80000169009146785CE03548F100C2688D18B4
:108A900051E0601C07D0324A24209268604321468E
:108AA0008018046A24E02878182141436A68401C31
:108AB000C0B252182870A978884200D12F70284B74
:108AC000516824209B684843C0181378012B34D187
:108AD000037D002B31D193688360D368C360136931
:108AE00003615269C2611E4A5279002A00D0876030
:108AF0001B4B82685B6996469C46D31A1A02194B37
:108B0000120A9A4202D2C368D21808E0724663463B
:108B10009A1A1202C368120A934202D99A1A426040
:108B200000E0476087600122C7600275921E026202
:108B3000084600F049FF601CABD12878697888426C
:108B4000A7D13046761EF6B200289DD104480169AF
:108B50000098814201D00120F8BD0020F8BD00003E
:108B6000F8200020FFFF7F00002488B00522364B4C
:108B7000114620460094FDF769FF002803D000222B
:108B80001146FDF737FE314A01213148FDF738FF24
:108B9000002803D000221146FDF72CFE2D490120AC
:108BA000FDF75CFE002803D000221146FDF722FEEF
:108BB000294A2A490320FEF7D5FD002803D00022C8
:108BC0001146FDF717FEFEF76BFBFFF739FAFFF7CB
:108BD000A1FDFDF75FFD00F031FD00F0ABFC1C21B5
:108BE0006846FDF7D2FA0520C00301900F2000046B
:108BF00002900094032168460173C48104741848EC
:108C00000590184806906846FEF7EAF9002803D058
:108C100000221146FDF7EEFD0D4801210838002223
:108C200009048068FDF76CFF002803D0002211467C
:108C3000FDF7E0FDFDF764FD40DF0028FCD00022D9
:108C40001146FDF7D7FDF7E730210020156D010033
:108C50000820002010240020F5790100CD0C000030
:108C6000258E0100857D010070B5054600790E4610
:108C7000801C1446C0B21178821C8A181F2A01D9A0
:108C80000C2070BD0A46491C2170401CB05420784D
:108C9000FF22411C2170325420788119288800F06D
:108CA0003DFF21784018C0B22070AA88002A09D060
:108CB000A968002908D08019FDF74EFA2078297993
:108CC00040182070002070BD072070BDF8B51478E2
:108CD0000746A01C15460E461F2803D87878801C2E
:108CE0001F2801D90C20F8BD1D20001B80B2694649
:108CF000864608803019801C7DDF0028F3D1387843
:108D0000022805D168460088704501D8092107E08E
:108D100078780821002801D0704501D9684600887C
:108D2000421C3255641CE2B2B1542978801C0818E8
:108D300028700020F8BD00207047002070470020F8
:108D40007047000070B5044600882D4D102812D0E1
:108D5000112825D019283CD055280BD1A0790028FE
:108D600008D11321A88876DF002803D000221146FD
:108D7000FDF740FD70BD0720FEF7E6FC002803D09C
:108D800000221146FDF736FD0120FEF7ABFC00285E
:108D900003D000221146FDF72DFDA088A88070BDEC
:108DA0000020FEF7D1FC002803D000221146FDF779
:108DB00021FD0020C043A88000202870FEF792FC0F
:108DC000002803D000221146FDF714FDFDF798FCA2
:108DD00070BDA0790028FBD1FEF7B6FC002803D0B7
:108DE00000221146FDF706FD0320FEF77BFC00285C
:108DF00003D000221146FDF7FDFC34DFB4E700008C
:108E00000020002010B50878002805D0022802D1E3
:108E100003490020087010BDFEF774FA10BD000071
:108E20000020002010B50078002809D105483B211A
:108E3000808876DF002803D000221146FDF7DAFC97
:108E400010BD00000020002010B51D4A1D49030080
:108E5000FDF708FB05040B31202712004878012894
:108E60001FD0022808D1032005E04878002804D04C
:108E7000032801D10220487010BD134B0420186054
:108E8000124B01201860D36892689342F3D0FDF72B
:108E900005FB10BD4878012806D0022804D003281D
:108EA000F7D1FDF733FB10BDD06891688842EED151
:108EB000FDF71AFB10BD48780128E8D010BD00006E
:108EC00000260020B820002000250040002000409F
:108ED00070B505461C200B496843441820461130E4
:108EE0000621FDF752F920461021FDF74EF9FF212A
:108EF00021740020A176C0432083284600F018FE8C
:108F000070BD0000D8240020F0B50C4A0021536841
:108F10001422504301240A4D03273F041E582246C1
:108F20008A40164206D08A0052191668BE4316605F
:108F300016681660491C2029F0D3F0BDEC200020F3
:108F40000007005070B50D00044604D10022114600
:108F50001046FDF74FFC002C04D1002211461046AC
:108F6000FDF748FC2878207069886170090AA170B3
:108F7000A988E170090A2171E8886071000AA0716E
:108F800070BD000007490978002906D0002806D0E6
:108F900005494978016000207047082070470E207D
:108FA00070470000C42000201026002030B5124B6E
:108FB0001B78002B07D0002807D0002A05D00468B2
:108FC000002C12D103E0082030BD0E2030BD0B4B29
:108FD0001D68002D09D045681889414369185D89CD
:108FE000454358682818884201D8072030BD1460CE
:108FF0000020516030BD0000C4200020DC2600208D
:10900000F8B505461B480F460078002805D0002D0E
:1090100005D02868002820D103E00820F8BD0E20E4
:10902000F8BD154C00262068002816D060892189DB
:10903000484361684118686881420ED9FFF7C0FC57
:1090400000280CD029686868090109194A6809894B
:10905000801AFDF76BF8002903D00720F8BD102017
:10906000F8BD3B460022294604200096FEF7CEFDBF
:10907000F8BD0000C4200020DC260020F8B5002642
:10908000214C2248A6806670067046708670354670
:109090002846FEF7ABFD6D1C0A2DF9D31C4F6680E8
:1090A00078693D04401C05D0286981B27869FDF7D4
:1090B0003DF800E068692969801E89B24843A060D4
:1090C0001248A680CC300660068186814681082041
:1090D00060707869401C05D0286981B27869FDF715
:1090E00025F800E068692969401E89B2484329696A
:1090F00089B2FDF71BF820DF002803D1034A0121C4
:1091000091702170F8BD0000C420002010260020BE
:1091100000100010FFB5264881B000781F461646A3
:109120000D46002808D0002D09D00198002806D04F
:109130002868002818D104E0082005B0F0BD0E20F2
:10914000FBE71C4C206800280ED0618920896268EA
:10915000414389186A68914206D9002E04D0B04272
:1091600002D3F119814201D90720E6E70198FFF700
:1091700027FC00281AD03846FFF722FC002815D01B
:109180006868FFF71DFC002810D068683246C119D6
:109190000198FCF7E1FF009628680022000124589E
:1091A00003212846019BA0470020C6E71020C4E702
:1091B000C4200020DC260020F8B504463A480F46BB
:1091C000007800281DD0002C1DD0002F1BD0206857
:1091D000002818D001252D07A688286980B286426C
:1091E00030D8102E2ED3E088009000282AD02F48A7
:1091F0004169491C09D02969406989B2FCF796FF89
:1092000004E00820F8BD0E20F8BD68692969401EF9
:1092100089B24843244B00999D6871434B19984289
:1092200010D301200007006980B2814208DD0120CF
:1092300000070069314680B2FCF778FF002901D1B0
:10924000B00701D00720F8BD17484288012A1AD07C
:10925000174824C711010E18756023684350A08871
:109260003081E0887081A088E18800234843012193
:1092700009075B1C0C699BB2A4B2844205D20C693D
:10928000A4B2001B02E00420F8BD00200C69A4B2C7
:1092900065190C69A4B28442EBD90348521C85605D
:1092A000B38142800020F8BDC420002000100010CF
:1092B000DC260020F8B5044620481E4600781546F6
:1092C0000F46002807D0002F07D0002C05D02068BB
:1092D000002817D103E00820F8BD0E20F8BD18487B
:1092E000016800290ED04289018940684A4310185C
:1092F0006268904206D9002D04D0A94202D3A81971
:10930000884201D90720F8BD3846FFF759FB0028ED
:1093100011D03046FFF754FB00280CD06068FFF7EF
:109320004FFB002807D02B463A46214602200096E4
:10933000FEF76CFCF8BD1020F8BD0000C420002032
:10934000DC260020F8B5334B9978012914D100258B
:1093500031499D704A78082A05D002280FD0032889
:109360000AD10D2006E0022807D00D70FEF72EFC72
:10937000002801D0FDF72EFBF8BD4D70F6E725481B
:10938000142403782449634318188B885B1C9CB20F
:109390008C800379001D022B05D14688A102B142C1
:1093A00001D3012700E00027052B01D1072A03D0B4
:1093B0000021042B02D003E00121FAE7072A03D0A1
:1093C0000026042B02D007E00126FAE74088A3021A
:1093D000834201D3002A1AD000203143014339438C
:1093E000C4D00D4E28467570FDF7F4FA094C20786C
:1093F000FEF7FCFBB5806078401E60702078401C52
:10940000C0B220700A28B1D30A382070AEE701201C
:10941000E3E7000010260020C4200020F8B5044631
:1094200020481E46007815460F46002807D0002F1A
:1094300007D0002C05D02068002817D103E00820B1
:10944000F8BD0E20F8BD1848016800290ED04289E9
:10945000018940684A4310186268904206D9002D7D
:1094600004D0A94202D3A819884201D90720F8BD27
:109470003846FFF7A5FA002811D03046FFF7A0FACA
:1094800000280CD06068FFF79BFA002807D02B4615
:109490003A46214605200096FEF7B8FBF8BD10209D
:1094A000F8BD0000C4200020DC26002070B5012497
:1094B0000B49600408600B49401088600949403935
:1094C0008860094D6C602F20FCF704FEAC60074DEE
:1094D00000242F206C61FCF7FDFD2C7170BD000095
:1094E00080E100E04013014000100140F82000201E
:1094F000F0B500220123032636041F469740394267
:1095000012D0C5683D4203D1012464043D4301E00B
:109510003446BD43C560064D97007D192F68B7439B
:109520002F602F6827432F60521C202AE5D3F0BDFF
:109530000007005070B520485125642405600121C2
:1095400044608160017301461C48FDF773FE1A48B0
:10955000752140384180002101704C22C280017188
:109560006722428101723C22C281017379224282C8
:109570000174C58201756A22428301764822C28342
:1095800001778A2242840246203211705823C38414
:1095900011717823438511726923C3851173912357
:1095A00043861174C48611758323438711767D2306
:1095B000C387117770BD0000AC2400201420002068
:1095C000F7B582B002981446006B0F46002833D0DE
:1095D000029800252030009028E00298016B0C20B2
:1095E00068430E18217830794A1C2270C01C7854C8
:1095F00020781622411C21703A542078C1193088F5
:1096000000F08CFA21784018C0B22070B288002A8D
:1096100009D0B16800290FD0C019FCF79DFD207852
:109620003179401820706D1C0098EDB2007DA84281
:10963000D3D8002005B0F0BD0720FBE710B59CB0E3
:1096400000243948159016941121179410A8C1834D
:10965000601C0107090F10A820310176447684763A
:10966000601C0107090F10A81031C17600200146C7
:1096700010A8017715A92D48FDF71EFC002803D07E
:1096800000221146FDF7B6F8142110A8FCF77DFD65
:109690000120014610A8103141730120014610A895
:1096A000103181730020014610A8C17301200146CA
:1096B00010A81031017401211094017164211294D9
:1096C0000173014619481838FDF7ACFB002803D098
:1096D00000221146FDF78EF840216846FCF755FD43
:1096E00013A16846FDF7CDFD16A102A8FDF7C9FD3F
:1096F0001848189018481A9018A811210C90199120
:109700000120014608A8103101770020014608A871
:1097100041776846FDF7D6FC002803D000221146A9
:10972000FDF768F81CB010BD058E01005024002024
:109730004E6F7264696353656D69636F6E647563C0
:10974000746F72004E532D4250532D4558414D5069
:109750004C450000554433228877660010B5084612
:109760001146C046C04610BD002803D00249C8605B
:10977000002070470E2070471C21002070B5002982
:1097800001D08C0701D0072070BD064C0125A160D7
:1097900062800549636010DF0028F5D1257016202E
:1097A00026DF70BD1C2100205D970100002803D03A
:1097B00002490861002070470E2070471C210020DC
:1097C00000207047FFB583B00F46594D069A0599A2
:1097D00006466B78114303200191002B03D1002929
:1097E0000FD001216970059A69780124920024073D
:1097F00000920B00FCF736FE0732072134547483C5
:1098000032000221EEE74B484169491C05D021692D
:10981000406989B2FCF78AFC00E060692169401E5A
:1098200089B24843216909048A0C216989B27943C4
:1098300021DF002812D102210FE0384620DF002866
:109840000CD10599002901D0032106E006990029D1
:109850001FD13178042968D020E0697007B0F0BDCD
:1098600034484169491C05D02169406989B2FCF737
:109870005DFC00E060692169401E89B241432069B6
:10988000059A80B2784321DF0028E7D106990029A4
:1098900001D00421E1E7317804292ED00521DCE74D
:1098A00024484169491C05D02169406989B2FCF707
:1098B0003DFC00E060692169401E89B2484371881F
:1098C000421800981018226992B27A4352180099EF
:1098D000531801461846069A21DF0028DBD0BDE761
:1098E0002069718880B2784380188A08316921DF45
:1098F0000028B3D10199002917D00621ADE70D4802
:109900004169491C05D02169406989B2FCF70EFC08
:1099100000E060692169401E89B24843216989B22B
:10992000FCF704FC20DF002898D1072195E7000010
:10993000C42000200010001010B50446FFF702FDFF
:10994000022C01D0032C07D104484178002903D010
:1099500000214170FCF7D4FE10BD00000020002063
:1099600070B50C00054604D1002211461046FCF7E4
:1099700041FF002D04D1002211461046FCF73AFFAA
:10998000207828702088FF2109020840000A6870AA
:10999000206809020840000CA8702068000EE870DA
:1099A00020792871207A68712089000AA871A0683E
:1099B000000CE87170BD000001200249000508603C
:1099C0007047000000E200E0F0B5174F2421BC68AA
:1099D00041430D1939694A1C09D024224A431619FA
:1099E0006B687268934204D8D21A72602962386137
:1099F000F0BD0A4602E00A46396A9B1B4E1C0BD09A
:109A000024264E4337197E689E42F4D324264E43C3
:109A100036197768FF1A77606B60296224214A4300
:109A200011190862F0BD0000F820002070B5194C33
:109A30002269A5681346114606E0814207D00A460E
:109A4000242671434919096A4E1CF6D170BD002EB7
:109A5000FCD08A420CD1242043435819006A20616B
:109A6000401C05D10C4B012098600023636160719C
:109A7000242041434819242341685A43006A52195B
:109A80001062421CE2D0242250434019426851180F
:109A9000416070BDF820002000100140F8B51D4C59
:109AA0002569681C35D01C48002640686169401A49
:109AB00007023F0A19E024204543A0682A1850688D
:109AC000B84214D8A3693F1A8619156A002B09D029
:109AD000D16990699847002807D000221146FCF709
:109AE00089FE02E09169D0698847681CE3D1A178BA
:109AF000E078814206D1401CC0B2E070022801D15A
:109B00000020E07003490006800D1C310E50FFF765
:109B100053FFF8BDF8200020001501400870000A2E
:109B20004870022070470870000A48700220704791
:109B300001218140024842688A4342607047000028
:109B40005420002038B51549154A488890420FD056
:109B50004A78144C521CD2B24A70237B934208D3E9
:109B6000083175DF002803D0A169002900D088479B
:109B700038BD00254D70217C002907D03B2176DFC0
:109B8000002803D0A169002900D088476169002915
:109B9000EED068460570884738BD00003C200020A4
:109BA000FFFF0000BC24002012494868C005C00D1A
:109BB00019D0103840B2002807DA0207120F083A0D
:109BC000920892005118C96904E081080A4A890084
:109BD000891809688007C00EC1400806800F012857
:109BE00003D0032803D002207047002070470120D3
:109BF0007047000000ED00E000E400E04278837868
:109C0000521C934200D100220378934201D10020DC
:109C100070470A604168407818225043081870471E
:109C2000F8B51546069C1E4607460222009400F031
:109C30000AF8002806D133461022294638460094F7
:109C400000F001F8F8BDFFB583B0074600200C9C7A
:109C50008646267805463AE07868A90041180A88C1
:109C6000684682804988C1800022694601A865DF74
:109C7000002810D1684601780598814226D17046A7
:109C8000002801D0002200E0022220788918411823
:109C90001F2902D90C2007B0F0BD7146002908D158
:109CA000401CC0B2411C069B049A21701A5401202A
:109CB0008646217806980A18694601A865DF0028BB
:109CC000E9D1694620780978401820706D1C3888E1
:109CD000A842C1DC7046002804D020780699801B79
:109CE000401E88550020D6E7101801000F1801000B
:109CF0000A1801001100000012000000130000000B
:109D0000140000001100030075760100120003002A
:109D1000757601001300030075760100140003003E
:109D2000757601003F8D0100F987010081870100F0
:109D3000A98801003B8D0100C98701007D870100D2
:109D4000A1880100378D0100858701007987010016
:109D500099880100749D010000200020300100005E
:109D6000EC610100889D010030210020C00D000041
:109D70008E6401005173FFFF0827DC070C050B05FB
:089D800003037E24F4027801C4
:04000005000160C1D5
:00000001FF
